BL51 BANKED LINKER/LOCATER V6.22                                                        06/26/2019  15:58:54  PAGE 1


BL51 BANKED LINKER/LOCATER V6.22, INVOKED BY:
E:\KEIL14开发程序\C51\BIN\BL51.EXE .\main.obj, .\gizwits_product.obj, .\gizwits_protocol.obj, .\hal_uart.obj, .\Hal_key.
>> obj, .\common.obj, .\dataPointTools.obj, .\ringbuffer.obj, .\Delay.obj TO STC15F2K60S2 RAMSIZE (256)


MEMORY MODEL: LARGE WITH FLOATING POINT ARITHMETIC


INPUT MODULES INCLUDED:
  .\main.obj (MAIN)
  .\gizwits_product.obj (GIZWITS_PRODUCT)
  .\gizwits_protocol.obj (GIZWITS_PROTOCOL)
  .\hal_uart.obj (HAL_UART)
  .\Hal_key.obj (HAL_KEY)
  .\common.obj (COMMON)
  .\dataPointTools.obj (DATAPOINTTOOLS)
  .\ringbuffer.obj (RINGBUFFER)
  .\Delay.obj (DELAY)
  E:\KEIL14开发程序\C51\LIB\C51FPL.LIB (?C?FPADD)
  E:\KEIL14开发程序\C51\LIB\C51FPL.LIB (?C?FPMUL)
  E:\KEIL14开发程序\C51\LIB\C51FPL.LIB (?C?FPDIV)
  E:\KEIL14开发程序\C51\LIB\C51FPL.LIB (?C?FPCMP)
  E:\KEIL14开发程序\C51\LIB\C51FPL.LIB (?C?FCAST)
  E:\KEIL14开发程序\C51\LIB\C51FPL.LIB (?C?CASTF)
  E:\KEIL14开发程序\C51\LIB\C51FPL.LIB (PRINTF)
  E:\KEIL14开发程序\C51\LIB\C51FPL.LIB (?C?FPGETOPN)
  E:\KEIL14开发程序\C51\LIB\C51FPL.LIB (?C?FPROUND)
  E:\KEIL14开发程序\C51\LIB\C51FPL.LIB (?C?FPCONVERT)
  E:\KEIL14开发程序\C51\LIB\C51FPL.LIB (?C?FTNPWR)
  E:\KEIL14开发程序\C51\LIB\C51L.LIB (?C_STARTUP)
  E:\KEIL14开发程序\C51\LIB\C51L.LIB (?C?COPY)
  E:\KEIL14开发程序\C51\LIB\C51L.LIB (?C?CLDPTR)
  E:\KEIL14开发程序\C51\LIB\C51L.LIB (?C?CLDOPTR)
  E:\KEIL14开发程序\C51\LIB\C51L.LIB (?C?CILDPTR)
  E:\KEIL14开发程序\C51\LIB\C51L.LIB (?C?CSTPTR)
  E:\KEIL14开发程序\C51\LIB\C51L.LIB (?C?CSTOPTR)
  E:\KEIL14开发程序\C51\LIB\C51L.LIB (?C?IILDX)
  E:\KEIL14开发程序\C51\LIB\C51L.LIB (?C?ILDIX)
  E:\KEIL14开发程序\C51\LIB\C51L.LIB (?C?ILDPTR)
  E:\KEIL14开发程序\C51\LIB\C51L.LIB (?C?ILDOPTR)
  E:\KEIL14开发程序\C51\LIB\C51L.LIB (?C?IILDOPTR)
  E:\KEIL14开发程序\C51\LIB\C51L.LIB (?C?ISTPTR)
  E:\KEIL14开发程序\C51\LIB\C51L.LIB (?C?ISTOPTR)
  E:\KEIL14开发程序\C51\LIB\C51L.LIB (?C?LMUL)
  E:\KEIL14开发程序\C51\LIB\C51L.LIB (?C?ULDIV)
  E:\KEIL14开发程序\C51\LIB\C51L.LIB (?C?SLDIV)
  E:\KEIL14开发程序\C51\LIB\C51L.LIB (?C?LNEG)
  E:\KEIL14开发程序\C51\LIB\C51L.LIB (?C?SLCMP)
  E:\KEIL14开发程序\C51\LIB\C51L.LIB (?C?ULCMP)
  E:\KEIL14开发程序\C51\LIB\C51L.LIB (?C?ULSHR)
  E:\KEIL14开发程序\C51\LIB\C51L.LIB (?C?LSHL)
  E:\KEIL14开发程序\C51\LIB\C51L.LIB (?C?LLDOPTR)
  E:\KEIL14开发程序\C51\LIB\C51L.LIB (?C?LLDOPTR0)
  E:\KEIL14开发程序\C51\LIB\C51L.LIB (?C?LLDIXDATA)
  E:\KEIL14开发程序\C51\LIB\C51L.LIB (?C?LSTXDATA)
  E:\KEIL14开发程序\C51\LIB\C51L.LIB (?C?LSTKXDATA)
  E:\KEIL14开发程序\C51\LIB\C51L.LIB (?C?LSTKPTR)
  E:\KEIL14开发程序\C51\LIB\C51L.LIB (?C?OFFXADD)
BL51 BANKED LINKER/LOCATER V6.22                                                      06/26/2019  15:58:54  PAGE 2


  E:\KEIL14开发程序\C51\LIB\C51L.LIB (?C?PLDIXDATA)
  E:\KEIL14开发程序\C51\LIB\C51L.LIB (?C?PSTXDATA)
  E:\KEIL14开发程序\C51\LIB\C51L.LIB (?C?PLDOPTR)
  E:\KEIL14开发程序\C51\LIB\C51L.LIB (?C?PSTOPTR)
  E:\KEIL14开发程序\C51\LIB\C51L.LIB (?C?CCASE)
  E:\KEIL14开发程序\C51\LIB\C51L.LIB (TOUPPER)
  E:\KEIL14开发程序\C51\LIB\C51L.LIB (STRLEN)
  E:\KEIL14开发程序\C51\LIB\C51L.LIB (?C?MEMSET)
  E:\KEIL14开发程序\C51\LIB\C51L.LIB (?C_INIT)
  E:\KEIL14开发程序\C51\LIB\C51L.LIB (?C?LLDIDATA)
  E:\KEIL14开发程序\C51\LIB\C51L.LIB (?C?LLDXDATA)
  E:\KEIL14开发程序\C51\LIB\C51L.LIB (?C?LLDPDATA)
  E:\KEIL14开发程序\C51\LIB\C51L.LIB (?C?LLDCODE)
  E:\KEIL14开发程序\C51\LIB\C51L.LIB (?C?LLDIDATA0)
  E:\KEIL14开发程序\C51\LIB\C51L.LIB (?C?LLDXDATA0)
  E:\KEIL14开发程序\C51\LIB\C51L.LIB (?C?LLDPDATA0)
  E:\KEIL14开发程序\C51\LIB\C51L.LIB (?C?LLDCODE0)
  E:\KEIL14开发程序\C51\LIB\C51L.LIB (?C?LSTKIDATA)
  E:\KEIL14开发程序\C51\LIB\C51L.LIB (?C?LSTKPDATA)
  E:\KEIL14开发程序\C51\LIB\C51L.LIB (?C?PLDIDATA)
  E:\KEIL14开发程序\C51\LIB\C51L.LIB (?C?PSTIDATA)
  E:\KEIL14开发程序\C51\LIB\C51L.LIB (?C?PLDXDATA)
  E:\KEIL14开发程序\C51\LIB\C51L.LIB (?C?PLDPDATA)
  E:\KEIL14开发程序\C51\LIB\C51L.LIB (?C?PSTPDATA)
  E:\KEIL14开发程序\C51\LIB\C51L.LIB (?C?PLDCODE)


LINK MAP OF MODULE:  STC15F2K60S2 (MAIN)


            TYPE    BASE      LENGTH    RELOCATION   SEGMENT NAME
            -----------------------------------------------------

            * * * * * * *   D A T A   M E M O R Y   * * * * * * *
            REG     0000H     0008H     ABSOLUTE     "REG BANK 0"
            DATA    0008H     000AH     UNIT         _DATA_GROUP_
                    0012H     000EH                  *** GAP ***
            BIT     0020H.0   0002H.2   UNIT         _BIT_GROUP_
            BIT     0022H.2   0000H.2   UNIT         ?BI?HAL_UART
            BIT     0022H.4   0000H.1   UNIT         ?BI?HAL_KEY
                    0022H.5   0000H.3                *** GAP ***
            IDATA   0023H     0001H     UNIT         ?STACK

            * * * * * * *  X D A T A   M E M O R Y  * * * * * * *
            XDATA   0000H     0191H     UNIT         ?XD?GIZWITS_PROTOCOL
            XDATA   0191H     0133H     UNIT         _XDATA_GROUP_
            XDATA   02C4H     004CH     UNIT         ?XD?_GIZVARLENDECOMPRESSIONVALUE?DATAPOINTTOOLS
            XDATA   0310H     004BH     UNIT         ?XD?_RETURNNTP2WT?COMMON
            XDATA   035BH     002BH     UNIT         ?XD?_GIZWITSPASSTHROUGHDATA?GIZWITS_PROTOCOL
            XDATA   0386H     0022H     UNIT         ?XD?MAIN
            XDATA   03A8H     0020H     UNIT         ?XD?_RETURNWEEKDAY?COMMON
            XDATA   03C8H     0016H     UNIT         ?XD?_GIZVARLENCOMPRESSVALUE?DATAPOINTTOOLS
            XDATA   03DEH     0012H     UNIT         ?XD?_STR2HEX?COMMON
            XDATA   03F0H     0010H     UNIT         ?XD?_HEX2STR?COMMON
            XDATA   0400H     000CH     UNIT         ?XD?_GIZX2Y?DATAPOINTTOOLS
            XDATA   040CH     000CH     UNIT         ?XD?_GIZX2YFLOAT?DATAPOINTTOOLS
            XDATA   0418H     000BH     UNIT         ?XD?_CHECKSTRINGISNOTZERO?COMMON
BL51 BANKED LINKER/LOCATER V6.22                                                      06/26/2019  15:58:54  PAGE 3


            XDATA   0423H     000AH     UNIT         ?XD?GIZWITSGETMODULEINFO?GIZWITS_PROTOCOL
            XDATA   042DH     0009H     UNIT         ?XD?GIZWITSGETNTP?GIZWITS_PROTOCOL
            XDATA   0436H     0004H     UNIT         ?XD?HAL_KEY
            XDATA   043AH     0004H     UNIT         ?XD?_ISLEAP?COMMON
            XDATA   043EH     0003H     UNIT         ?XD?GIZWITS_PRODUCT
            XDATA   0441H     0003H     UNIT         ?XD?_RBDELETE?RINGBUFFER

            * * * * * * *   C O D E   M E M O R Y   * * * * * * *
            CODE    0000H     0003H     ABSOLUTE     
            CODE    0003H     0008H     UNIT         ?PR?UART1_RCV?HAL_UART
            CODE    000BH     0003H     ABSOLUTE     
            CODE    000EH     0015H     UNIT         ?PR?_STRLEN?STRLEN
            CODE    0023H     0003H     ABSOLUTE     
            CODE    0026H     001BH     UNIT         ?PR?_USER_DELAY_MS?DELAY
                    0041H     0002H                  *** GAP ***
            CODE    0043H     0003H     ABSOLUTE     
            CODE    0046H     0C76H     UNIT         ?C?LIB_CODE
            CODE    0CBCH     076FH     UNIT         ?CO?GIZWITS_PROTOCOL
            CODE    142BH     0485H     UNIT         ?PR?_GIZPROTOCOLMODULESTATUS?GIZWITS_PROTOCOL
            CODE    18B0H     0483H     UNIT         ?PR?PRINTF?PRINTF
            CODE    1D33H     0394H     UNIT         ?PR?_GIZWITSHANDLE?GIZWITS_PROTOCOL
            CODE    20C7H     0388H     UNIT         ?PR?_RETURNNTP2WT?COMMON
            CODE    244FH     0342H     UNIT         ?PR?_GIZWITSSETMODE?GIZWITS_PROTOCOL
            CODE    2791H     0335H     UNIT         ?PR?_RBREAD?RINGBUFFER
            CODE    2AC6H     0321H     UNIT         ?PR?_GIZCHECKREPORT?GIZWITS_PROTOCOL
            CODE    2DE7H     0314H     UNIT         ?PR?_GIZPROTOCOLGETONEPACKET?GIZWITS_PROTOCOL
            CODE    30FBH     030FH     UNIT         ?PR?_GIZPROTOCOLISSUEDDATAACK?GIZWITS_PROTOCOL
            CODE    340AH     02FDH     UNIT         ?PR?_RBWRITE?RINGBUFFER
            CODE    3707H     02BFH     UNIT         ?PR?_RETURNWEEKDAY?COMMON
            CODE    39C6H     02A6H     UNIT         ?PR?_GIZDATAPOINTS2REPORTDATA?GIZWITS_PROTOCOL
            CODE    3C6CH     027BH     UNIT         ?PR?_GIZWITSEVENTPROCESS?GIZWITS_PRODUCT
            CODE    3EE7H     0256H     UNIT         ?PR?_GIZVARLENDECOMPRESSIONVALUE?DATAPOINTTOOLS
            CODE    413DH     0243H     UNIT         ?PR?_GIZDATAPOINT2EVENT?GIZWITS_PROTOCOL
            CODE    4380H     022EH     UNIT         ?PR?_GIZSTANDARDDECOMPRESSIONVALUE?DATAPOINTTOOLS
            CODE    45AEH     01C6H     UNIT         ?PR?_GIZWITSPASSTHROUGHDATA?GIZWITS_PROTOCOL
            CODE    4774H     019FH     UNIT         ?PR?_GIZPROTOCOLISSUEDPROCESS?GIZWITS_PROTOCOL
            CODE    4913H     0169H     UNIT         ?PR?_GIZVARLENCOMPRESSVALUE?DATAPOINTTOOLS
            CODE    4A7CH     0162H     UNIT         ?PR?_GIZPROTOCOLGETDEVICEINFO?GIZWITS_PROTOCOL
            CODE    4BDEH     014FH     UNIT         ?PR?_RBCANREAD?RINGBUFFER
            CODE    4D2DH     0146H     UNIT         ?PR?_GIZSTANDARDCOMPRESSVALUE?DATAPOINTTOOLS
            CODE    4E73H     013FH     UNIT         ?PR?_GIZBYTEORDEREXCHANGE?DATAPOINTTOOLS
            CODE    4FB2H     011AH     UNIT         ?PR?_HEX2STR?COMMON
            CODE    50CCH     0110H     UNIT         ?PR?_GIZDEVREPORTPOLICY?GIZWITS_PROTOCOL
            CODE    51DCH     00FBH     UNIT         ?PR?_GIZREPORTDATA?GIZWITS_PROTOCOL
            CODE    52D7H     00F5H     UNIT         ?PR?_STR2HEX?COMMON
            CODE    53CCH     00EAH     UNIT         ?PR?_UARTWRITE?GIZWITS_PRODUCT
            CODE    54B6H     00CCH     UNIT         ?PR?_GIZPROTOCOLERRORCMD?GIZWITS_PROTOCOL
            CODE    5582H     00C6H     UNIT         ?PR?_GIZPROTOCOLCOMMONACK?GIZWITS_PROTOCOL
            CODE    5648H     00C5H     UNIT         ?CO?GIZWITS_PRODUCT
            CODE    570DH     00C4H     UNIT         ?PR?_GIZPROTOCOLSUM?COMMON
            CODE    57D1H     00B0H     UNIT         ?PR?_CHECKSTRINGISNOTZERO?COMMON
            CODE    5881H     00A5H     UNIT         ?PR?_GIZPUTDATA?GIZWITS_PROTOCOL
            CODE    5926H     00A2H     UNIT         ?PR?_EXCHANGEWORD?COMMON
            CODE    59C8H     0095H     UNIT         ?PR?_GIZACROSSBYTEJUDGE?DATAPOINTTOOLS
            CODE    5A5DH     0094H     UNIT         ?PR?_GIZPROTOCOLNTP?GIZWITS_PROTOCOL
            CODE    5AF1H     008DH     UNIT         ?PR?TIMER0_TSR?MAIN
            CODE    5B7EH     008CH     UNIT         ?C_C51STARTUP
BL51 BANKED LINKER/LOCATER V6.22                                                      06/26/2019  15:58:54  PAGE 4


            CODE    5C0AH     0089H     UNIT         ?PR?_CHAR2HEX?COMMON
            CODE    5C93H     0087H     UNIT         ?PR?_RBDELETE?RINGBUFFER
            CODE    5D1AH     0085H     UNIT         ?PR?GIZPROTOCOLACKHANDLE?GIZWITS_PROTOCOL
            CODE    5D9FH     0080H     UNIT         ?PR?GIZWITSGETMODULEINFO?GIZWITS_PROTOCOL
            CODE    5E1FH     007FH     UNIT         ?PR?_GIZPROTOCOLWAITACK?GIZWITS_PROTOCOL
            CODE    5E9EH     007FH     UNIT         ?PR?_GIZPROTOCOLWAITACKCHECK?GIZWITS_PROTOCOL
            CODE    5F1DH     007FH     UNIT         ?PR?_ISLEAP?COMMON
            CODE    5F9CH     007CH     UNIT         ?PR?GIZWITSGETNTP?GIZWITS_PROTOCOL
            CODE    6018H     006FH     UNIT         ?PR?_RBCREATE?RINGBUFFER
            CODE    6087H     006AH     UNIT         ?PR?_GIZPROTOCOLMODULEINFOHANDLE?GIZWITS_PROTOCOL
            CODE    60F1H     0065H     UNIT         ?PR?_GIZPROTOCOLHEADINIT?GIZWITS_PROTOCOL
            CODE    6156H     0065H     UNIT         ?PR?GIZPROTOCOLRESENDDATA?GIZWITS_PROTOCOL
            CODE    61BBH     0061H     UNIT         ?PR?UART2_RCV?HAL_UART
            CODE    621CH     004DH     UNIT         ?PR?SETKEYSCAN?HAL_KEY
            CODE    6269H     0048H     UNIT         ?PR?_RBCANWRITE?RINGBUFFER
            CODE    62B1H     0044H     UNIT         ?C?LDIV
            CODE    62F5H     0041H     UNIT         ?PR?GIZWITSINIT?GIZWITS_PROTOCOL
            CODE    6336H     0040H     UNIT         ?PR?_RBCAPACITY?RINGBUFFER
            CODE    6376H     003EH     UNIT         ?PR?_GIZX2Y?DATAPOINTTOOLS
            CODE    63B4H     003DH     UNIT         ?PR?_GIZY2X?DATAPOINTTOOLS
            CODE    63F1H     003CH     UNIT         ?PR?USERHANDLE?GIZWITS_PRODUCT
            CODE    642DH     003BH     UNIT         ?PR?_GIZX2YFLOAT?DATAPOINTTOOLS
            CODE    6468H     0038H     UNIT         ?PR?_GIZY2XFLOAT?DATAPOINTTOOLS
            CODE    64A0H     0037H     UNIT         ?PR?GIZPROTOCOLREBOOT?GIZWITS_PROTOCOL
            CODE    64D7H     0031H     UNIT         ?C_INITSEG
            CODE    6508H     0030H     UNIT         ?CO?COMMON
            CODE    6538H     0023H     UNIT         ?PR?MAIN?MAIN
            CODE    655BH     0020H     UNIT         ?PR?_DELAY_MS?MAIN
            CODE    657BH     001FH     UNIT         ?PR?GIZTIMERMS?GIZWITS_PRODUCT
            CODE    659AH     001EH     UNIT         ?PR?_DELAY1MS?HAL_KEY
            CODE    65B8H     001AH     UNIT         ?PR?UART2_INIT?HAL_UART
            CODE    65D2H     0017H     UNIT         ?PR?UART1_INIT?HAL_UART
            CODE    65E9H     0017H     UNIT         ?PR?_GET_YEARDAYS?COMMON
            CODE    6600H     0016H     UNIT         ?PR?_DELAY_US?DELAY
            CODE    6616H     0011H     UNIT         ?PR?_TOUPPER?TOUPPER
            CODE    6627H     0010H     UNIT         ?PR?_PRINTSTRING1?HAL_UART
            CODE    6637H     0010H     UNIT         ?PR?_PRINTSTRING2?HAL_UART
            CODE    6647H     0010H     UNIT         ?PR?KEY_INIT?HAL_KEY
            CODE    6657H     000FH     UNIT         ?PR?USERINIT?GIZWITS_PRODUCT
            CODE    6666H     000FH     UNIT         ?PR?GIZGETTIMERCOUNT?GIZWITS_PRODUCT
            CODE    6675H     000EH     UNIT         ?PR?_PUTCHAR?MAIN
            CODE    6683H     000EH     UNIT         ?PR?TIMER0_INIT?MAIN
            CODE    6691H     000AH     UNIT         ?PR?_UART1_TXBYTE?HAL_UART
            CODE    669BH     000AH     UNIT         ?PR?_UART2_TXBYTE?HAL_UART
            CODE    66A5H     000AH     UNIT         ?PR?PRO_SKSP?HAL_KEY
            CODE    66AFH     0009H     UNIT         ?PR?PRO_SKLP?HAL_KEY
            CODE    66B8H     0009H     UNIT         ?PR?_EXCHANGEBYTES?COMMON
            CODE    66C1H     0007H     UNIT         ?PR?PIN_INIT?MAIN
            CODE    66C8H     0007H     UNIT         ?PR?MCURESTART?GIZWITS_PRODUCT



OVERLAY MAP OF MODULE:   STC15F2K60S2 (MAIN)


SEGMENT                                             BIT_GROUP          DATA_GROUP          XDATA_GROUP
  +--> CALLED SEGMENT                            START    LENGTH     START    LENGTH     START    LENGTH
BL51 BANKED LINKER/LOCATER V6.22                                                      06/26/2019  15:58:54  PAGE 5


--------------------------------------------------------------------------------------------------------
?PR?TIMER0_TSR?MAIN                              -----    -----      -----    -----      -----    -----
  +--> ?PR?GIZTIMERMS?GIZWITS_PRODUCT

*** NEW ROOT ***************************************************

?PR?UART2_RCV?HAL_UART                           -----    -----      -----    -----      0191H    0001H
  +--> ?PR?_GIZPUTDATA?GIZWITS_PROTOCOL

?PR?_GIZPUTDATA?GIZWITS_PROTOCOL                 -----    -----      -----    -----      0192H    000BH
  +--> ?CO?GIZWITS_PROTOCOL
  +--> ?PR?_RBWRITE?RINGBUFFER
  +--> ?PR?PRINTF?PRINTF

?PR?_RBWRITE?RINGBUFFER                          -----    -----      -----    -----      019DH    000CH
  +--> ?PR?_RBCANWRITE?RINGBUFFER
  +--> ?PR?_RBCAPACITY?RINGBUFFER

?PR?_RBCANWRITE?RINGBUFFER                       -----    -----      -----    -----      01A9H    0003H
  +--> ?PR?_RBCANREAD?RINGBUFFER
  +--> ?PR?_RBCAPACITY?RINGBUFFER

?PR?_RBCANREAD?RINGBUFFER                        -----    -----      -----    -----      023EH    0003H
  +--> ?PR?_RBCAPACITY?RINGBUFFER

?PR?_RBCAPACITY?RINGBUFFER                       -----    -----      -----    -----      0241H    0003H

?PR?PRINTF?PRINTF                                0021H.1  0001H.1    000DH    0005H      0293H    0030H
  +--> ?PR?_PUTCHAR?MAIN

?PR?_PUTCHAR?MAIN                                -----    -----      -----    -----      02C3H    0001H
  +--> ?PR?_UART2_TXBYTE?HAL_UART

*** NEW ROOT ***************************************************

?C_C51STARTUP                                    -----    -----      -----    -----      -----    -----
  +--> ?PR?MAIN?MAIN
  +--> ?C_INITSEG

?PR?MAIN?MAIN                                    -----    -----      -----    -----      -----    -----
  +--> ?PR?PIN_INIT?MAIN
  +--> ?PR?UART1_INIT?HAL_UART
  +--> ?PR?UART2_INIT?HAL_UART
  +--> ?PR?TIMER0_INIT?MAIN
  +--> ?PR?USERINIT?GIZWITS_PRODUCT
  +--> ?PR?GIZWITSINIT?GIZWITS_PROTOCOL
  +--> ?PR?SETKEYSCAN?HAL_KEY
  +--> ?PR?USERHANDLE?GIZWITS_PRODUCT
  +--> ?PR?_GIZWITSHANDLE?GIZWITS_PROTOCOL

?PR?GIZWITSINIT?GIZWITS_PROTOCOL                 -----    -----      -----    -----      -----    -----
  +--> ?PR?_RBCREATE?RINGBUFFER
  +--> ?CO?GIZWITS_PROTOCOL
  +--> ?PR?PRINTF?PRINTF

?PR?_RBCREATE?RINGBUFFER                         -----    -----      -----    -----      01CEH    0003H

BL51 BANKED LINKER/LOCATER V6.22                                                      06/26/2019  15:58:54  PAGE 6


?PR?SETKEYSCAN?HAL_KEY                           -----    -----      -----    -----      -----    -----
  +--> ?PR?PRO_SKLP?HAL_KEY
  +--> ?PR?PRO_SKSP?HAL_KEY
  +--> ?PR?_DELAY1MS?HAL_KEY

?PR?PRO_SKLP?HAL_KEY                             -----    -----      -----    -----      -----    -----
  +--> ?PR?_GIZWITSSETMODE?GIZWITS_PROTOCOL

?PR?_GIZWITSSETMODE?GIZWITS_PROTOCOL             -----    -----      -----    -----      01CEH    0018H
  +--> ?PR?_GIZPROTOCOLHEADINIT?GIZWITS_PROT...
  +--> ?PR?_EXCHANGEBYTES?COMMON
  +--> ?PR?_GIZPROTOCOLSUM?COMMON
  +--> ?PR?_UARTWRITE?GIZWITS_PRODUCT
  +--> ?CO?GIZWITS_PROTOCOL
  +--> ?PR?PRINTF?PRINTF
  +--> ?PR?_GIZPROTOCOLWAITACK?GIZWITS_PROTOCOL

?PR?_GIZPROTOCOLHEADINIT?GIZWITS_PROT...         -----    -----      -----    -----      0290H    0003H
  +--> ?CO?GIZWITS_PROTOCOL
  +--> ?PR?PRINTF?PRINTF

?PR?_EXCHANGEBYTES?COMMON                        -----    -----      -----    -----      0290H    0002H

?PR?_GIZPROTOCOLSUM?COMMON                       -----    -----      -----    -----      0290H    000CH

?PR?_UARTWRITE?GIZWITS_PRODUCT                   -----    -----      -----    -----      0290H    000BH
  +--> ?PR?_UART1_TXBYTE?HAL_UART

?PR?_GIZPROTOCOLWAITACK?GIZWITS_PROTOCOL         -----    -----      -----    -----      0239H    0007H
  +--> ?CO?GIZWITS_PROTOCOL
  +--> ?PR?PRINTF?PRINTF
  +--> ?PR?GIZGETTIMERCOUNT?GIZWITS_PRODUCT

?PR?PRO_SKSP?HAL_KEY                             -----    -----      -----    -----      -----    -----
  +--> ?PR?_GIZWITSSETMODE?GIZWITS_PROTOCOL

?PR?_DELAY1MS?HAL_KEY                            -----    -----      -----    -----      01CEH    0001H

?PR?_GIZWITSHANDLE?GIZWITS_PROTOCOL              -----    -----      -----    -----      01CEH    0048H
  +--> ?CO?GIZWITS_PROTOCOL
  +--> ?PR?PRINTF?PRINTF
  +--> ?PR?GIZPROTOCOLACKHANDLE?GIZWITS_PROT...
  +--> ?PR?_GIZPROTOCOLGETONEPACKET?GIZWITS_...
  +--> ?PR?_GIZPROTOCOLGETDEVICEINFO?GIZWITS...
  +--> ?PR?_GIZPROTOCOLISSUEDPROCESS?GIZWITS...
  +--> ?PR?_GIZPROTOCOLISSUEDDATAACK?GIZWITS...
  +--> ?PR?_GIZPROTOCOLCOMMONACK?GIZWITS_PRO...
  +--> ?PR?_GIZPROTOCOLMODULESTATUS?GIZWITS_...
  +--> ?PR?_GIZPROTOCOLWAITACKCHECK?GIZWITS_...
  +--> ?PR?GIZPROTOCOLREBOOT?GIZWITS_PROTOCOL
  +--> ?PR?_GIZPROTOCOLNTP?GIZWITS_PROTOCOL
  +--> ?PR?_GIZPROTOCOLMODULEINFOHANDLE?GIZW...
  +--> ?PR?_GIZPROTOCOLERRORCMD?GIZWITS_PROT...
  +--> ?PR?_GIZWITSEVENTPROCESS?GIZWITS_PRODUCT
  +--> ?PR?_GIZDEVREPORTPOLICY?GIZWITS_PROTOCOL

?PR?GIZPROTOCOLACKHANDLE?GIZWITS_PROT...         -----    -----      -----    -----      -----    -----
BL51 BANKED LINKER/LOCATER V6.22                                                      06/26/2019  15:58:54  PAGE 7


  +--> ?PR?GIZGETTIMERCOUNT?GIZWITS_PRODUCT
  +--> ?CO?GIZWITS_PROTOCOL
  +--> ?PR?PRINTF?PRINTF
  +--> ?PR?GIZPROTOCOLRESENDDATA?GIZWITS_PRO...

?PR?GIZPROTOCOLRESENDDATA?GIZWITS_PRO...         -----    -----      -----    -----      0216H    0004H
  +--> ?CO?GIZWITS_PROTOCOL
  +--> ?PR?PRINTF?PRINTF
  +--> ?PR?_UARTWRITE?GIZWITS_PRODUCT
  +--> ?PR?GIZGETTIMERCOUNT?GIZWITS_PRODUCT

?PR?_GIZPROTOCOLGETONEPACKET?GIZWITS_...         -----    -----      -----    -----      0216H    001CH
  +--> ?CO?GIZWITS_PROTOCOL
  +--> ?PR?PRINTF?PRINTF
  +--> ?PR?_RBCANREAD?RINGBUFFER
  +--> ?PR?_RBREAD?RINGBUFFER
  +--> ?PR?_EXCHANGEBYTES?COMMON
  +--> ?PR?_GIZPROTOCOLSUM?COMMON

?PR?_RBREAD?RINGBUFFER                           -----    -----      -----    -----      0232H    000CH
  +--> ?PR?_RBCANREAD?RINGBUFFER
  +--> ?PR?_RBCAPACITY?RINGBUFFER

?PR?_GIZPROTOCOLGETDEVICEINFO?GIZWITS...         -----    -----      -----    -----      0216H    007AH
  +--> ?CO?GIZWITS_PROTOCOL
  +--> ?PR?PRINTF?PRINTF
  +--> ?PR?_GIZPROTOCOLHEADINIT?GIZWITS_PROT...
  +--> ?PR?_STRLEN?STRLEN
  +--> ?PR?_EXCHANGEBYTES?COMMON
  +--> ?PR?_GIZPROTOCOLSUM?COMMON
  +--> ?PR?_UARTWRITE?GIZWITS_PRODUCT

?PR?_GIZPROTOCOLISSUEDPROCESS?GIZWITS...         -----    -----      -----    -----      0216H    0011H
  +--> ?CO?GIZWITS_PROTOCOL
  +--> ?PR?PRINTF?PRINTF
  +--> ?PR?_GIZDATAPOINT2EVENT?GIZWITS_PROTOCOL
  +--> ?PR?_GIZDATAPOINTS2REPORTDATA?GIZWITS...

?PR?_GIZDATAPOINT2EVENT?GIZWITS_PROTOCOL         -----    -----      -----    -----      0227H    0009H
  +--> ?CO?GIZWITS_PROTOCOL
  +--> ?PR?PRINTF?PRINTF
  +--> ?PR?_GIZSTANDARDDECOMPRESSIONVALUE?DA...

?PR?_GIZSTANDARDDECOMPRESSIONVALUE?DA...         -----    -----      -----    -----      0230H    004CH
  +--> ?PR?_GIZBYTEORDEREXCHANGE?DATAPOINTTOOLS
  +--> ?PR?_GIZACROSSBYTEJUDGE?DATAPOINTTOOLS

?PR?_GIZBYTEORDEREXCHANGE?DATAPOINTTOOLS         -----    -----      -----    -----      027CH    000DH

?PR?_GIZACROSSBYTEJUDGE?DATAPOINTTOOLS           -----    -----      -----    -----      027CH    0008H

?PR?_GIZDATAPOINTS2REPORTDATA?GIZWITS...         -----    -----      -----    -----      0227H    0006H
  +--> ?CO?GIZWITS_PROTOCOL
  +--> ?PR?PRINTF?PRINTF
  +--> ?PR?_GIZSTANDARDCOMPRESSVALUE?DATAPOI...
  +--> ?PR?_GIZBYTEORDEREXCHANGE?DATAPOINTTOOLS
  +--> ?PR?_GIZY2X?DATAPOINTTOOLS
BL51 BANKED LINKER/LOCATER V6.22                                                      06/26/2019  15:58:54  PAGE 8


  +--> ?PR?_GIZY2XFLOAT?DATAPOINTTOOLS

?PR?_GIZSTANDARDCOMPRESSVALUE?DATAPOI...         -----    -----      -----    -----      022DH    0016H
  +--> ?PR?_GIZACROSSBYTEJUDGE?DATAPOINTTOOLS

?PR?_GIZY2X?DATAPOINTTOOLS                       -----    -----      -----    -----      022DH    000CH

?PR?_GIZY2XFLOAT?DATAPOINTTOOLS                  -----    -----      -----    -----      022DH    000CH

?PR?_GIZPROTOCOLISSUEDDATAACK?GIZWITS...         -----    -----      -----    -----      0216H    004FH
  +--> ?CO?GIZWITS_PROTOCOL
  +--> ?PR?PRINTF?PRINTF
  +--> ?PR?_GIZPROTOCOLSUM?COMMON
  +--> ?PR?_UARTWRITE?GIZWITS_PRODUCT

?PR?_GIZPROTOCOLCOMMONACK?GIZWITS_PRO...         -----    -----      -----    -----      0216H    0010H
  +--> ?CO?GIZWITS_PROTOCOL
  +--> ?PR?PRINTF?PRINTF
  +--> ?PR?_EXCHANGEBYTES?COMMON
  +--> ?PR?_GIZPROTOCOLSUM?COMMON
  +--> ?PR?_UARTWRITE?GIZWITS_PRODUCT

?PR?_GIZPROTOCOLMODULESTATUS?GIZWITS_...         -----    -----      -----    -----      0216H    0003H
  +--> ?CO?GIZWITS_PROTOCOL
  +--> ?PR?PRINTF?PRINTF
  +--> ?PR?_EXCHANGEBYTES?COMMON

?PR?_GIZPROTOCOLWAITACKCHECK?GIZWITS_...         -----    -----      -----    -----      0216H    0006H
  +--> ?CO?GIZWITS_PROTOCOL
  +--> ?PR?PRINTF?PRINTF

?PR?GIZPROTOCOLREBOOT?GIZWITS_PROTOCOL           -----    -----      -----    -----      0216H    0004H
  +--> ?PR?GIZGETTIMERCOUNT?GIZWITS_PRODUCT
  +--> ?PR?MCURESTART?GIZWITS_PRODUCT

?PR?_GIZPROTOCOLNTP?GIZWITS_PROTOCOL             -----    -----      -----    -----      0216H    0006H
  +--> ?CO?GIZWITS_PROTOCOL
  +--> ?PR?PRINTF?PRINTF
  +--> ?PR?_EXCHANGEBYTES?COMMON
  +--> ?PR?_EXCHANGEWORD?COMMON

?PR?_EXCHANGEWORD?COMMON                         -----    -----      -----    -----      021CH    0004H

?PR?_GIZPROTOCOLMODULEINFOHANDLE?GIZW...         -----    -----      -----    -----      0216H    0006H
  +--> ?CO?GIZWITS_PROTOCOL
  +--> ?PR?PRINTF?PRINTF

?PR?_GIZPROTOCOLERRORCMD?GIZWITS_PROT...         -----    -----      -----    -----      0216H    0012H
  +--> ?CO?GIZWITS_PROTOCOL
  +--> ?PR?PRINTF?PRINTF
  +--> ?PR?_GIZPROTOCOLHEADINIT?GIZWITS_PROT...
  +--> ?PR?_EXCHANGEBYTES?COMMON
  +--> ?PR?_GIZPROTOCOLSUM?COMMON
  +--> ?PR?_UARTWRITE?GIZWITS_PRODUCT

?PR?_GIZWITSEVENTPROCESS?GIZWITS_PRODUCT         -----    -----      -----    -----      0216H    0017H
  +--> ?CO?GIZWITS_PRODUCT
BL51 BANKED LINKER/LOCATER V6.22                                                      06/26/2019  15:58:54  PAGE 9


  +--> ?PR?PRINTF?PRINTF
  +--> ?PR?_USER_DELAY_MS?DELAY

?PR?_GIZDEVREPORTPOLICY?GIZWITS_PROTOCOL         -----    -----      -----    -----      0216H    0007H
  +--> ?PR?GIZGETTIMERCOUNT?GIZWITS_PRODUCT
  +--> ?PR?_GIZCHECKREPORT?GIZWITS_PROTOCOL
  +--> ?CO?GIZWITS_PROTOCOL
  +--> ?PR?PRINTF?PRINTF
  +--> ?PR?_GIZDATAPOINTS2REPORTDATA?GIZWITS...
  +--> ?PR?_GIZREPORTDATA?GIZWITS_PROTOCOL

?PR?_GIZCHECKREPORT?GIZWITS_PROTOCOL             -----    -----      -----    -----      021DH    000BH
  +--> ?CO?GIZWITS_PROTOCOL
  +--> ?PR?PRINTF?PRINTF
  +--> ?PR?GIZGETTIMERCOUNT?GIZWITS_PRODUCT

?PR?_GIZREPORTDATA?GIZWITS_PROTOCOL              -----    -----      -----    -----      021DH    001CH
  +--> ?CO?GIZWITS_PROTOCOL
  +--> ?PR?PRINTF?PRINTF
  +--> ?PR?_GIZPROTOCOLHEADINIT?GIZWITS_PROT...
  +--> ?PR?_EXCHANGEBYTES?COMMON
  +--> ?PR?_GIZPROTOCOLSUM?COMMON
  +--> ?PR?_UARTWRITE?GIZWITS_PRODUCT
  +--> ?PR?_GIZPROTOCOLWAITACK?GIZWITS_PROTOCOL



SYMBOL TABLE OF MODULE:  STC15F2K60S2 (MAIN)

  VALUE           TYPE          NAME
  ----------------------------------

  -------         MODULE        MAIN
  C:0000H         SYMBOL        _ICE_DUMMY_
  X:0386H         PUBLIC        sec1000
  D:0080H         PUBLIC        P0
  D:0090H         PUBLIC        P1
  D:00A0H         PUBLIC        P2
  D:00B0H         PUBLIC        P3
  D:00C0H         PUBLIC        P4
  D:00C8H         PUBLIC        P5
  D:00E8H         PUBLIC        P6
  D:00F8H         PUBLIC        P7
  D:00A8H         PUBLIC        IE
  X:0388H         PUBLIC        Time
  X:038AH         PUBLIC        currentDataPoint
  D:00B8H         PUBLIC        IP
  C:66C1H         PUBLIC        Pin_Init
  D:00D8H         PUBLIC        CCON
  C:6538H         PUBLIC        main
  C:6683H         PUBLIC        Timer0_Init
  B:0080H.1       PUBLIC        P01
  B:0080H.2       PUBLIC        P02
  C:655BH         PUBLIC        _Delay_ms
  B:0080H.3       PUBLIC        P03
  D:0098H         PUBLIC        SCON
  D:0089H         PUBLIC        TMOD
BL51 BANKED LINKER/LOCATER V6.22                                                      06/26/2019  15:58:54  PAGE 10


  D:0088H         PUBLIC        TCON
  B:00A8H.1       PUBLIC        ET0
  D:008CH         PUBLIC        TH0
  C:5AF1H         PUBLIC        Timer0_Tsr
  D:008AH         PUBLIC        TL0
  B:0088H.4       PUBLIC        TR0
  B:0080H.0       PUBLIC        SETKEY
  X:03A4H         PUBLIC        timerMsCount
  D:00D0H         PUBLIC        PSW
  C:6675H         PUBLIC        _putchar
  -------         PROC          _PUTCHAR
  X:02C3H         SYMBOL        c
  C:6675H         LINE#         55
  C:667AH         LINE#         56
  C:667AH         LINE#         57
  C:667DH         LINE#         58
  C:6682H         LINE#         59
  -------         ENDPROC       _PUTCHAR
  -------         PROC          MAIN
  C:6538H         LINE#         72
  C:6538H         LINE#         73
  C:6538H         LINE#         74
  C:653BH         LINE#         75
  C:653EH         LINE#         76
  C:6541H         LINE#         77
  C:6544H         LINE#         79
  C:6547H         LINE#         80
  C:654AH         LINE#         82
  C:654AH         LINE#         83
  C:654AH         LINE#         84
  C:654DH         LINE#         86
  C:6550H         LINE#         88
  C:6559H         LINE#         92
  -------         ENDPROC       MAIN
  -------         PROC          PIN_INIT
  C:66C1H         LINE#         95
  C:66C1H         LINE#         96
  C:66C1H         LINE#         97
  C:66C3H         LINE#         98
  C:66C5H         LINE#         99
  C:66C7H         LINE#         100
  -------         ENDPROC       PIN_INIT
  -------         PROC          TIMER0_INIT
  C:6683H         LINE#         102
  C:6683H         LINE#         103
  C:6683H         LINE#         104
  C:6686H         LINE#         105
  C:6689H         LINE#         106
  C:668CH         LINE#         107
  C:668EH         LINE#         108
  C:6690H         LINE#         109
  -------         ENDPROC       TIMER0_INIT
  -------         PROC          TIMER0_TSR
  C:5AF1H         LINE#         111
  C:5B0EH         LINE#         113
  C:5B1CH         LINE#         114
  C:5B28H         LINE#         115
BL51 BANKED LINKER/LOCATER V6.22                                                      06/26/2019  15:58:54  PAGE 11


  C:5B28H         LINE#         116
  C:5B2EH         LINE#         117
  C:5B31H         LINE#         118
  C:5B31H         LINE#         119
  C:5B3FH         LINE#         120
  C:5B4EH         LINE#         121
  C:5B4EH         LINE#         122
  C:5B52H         LINE#         124
  C:5B55H         LINE#         125
  C:5B55H         LINE#         126
  C:5B5BH         LINE#         127
  C:5B63H         LINE#         128
  C:5B63H         LINE#         129
  C:5B63H         LINE#         130
  -------         ENDPROC       TIMER0_TSR
  -------         PROC          _DELAY_MS
  D:0006H         SYMBOL        n
  -------         DO            
  D:0004H         SYMBOL        i
  D:0002H         SYMBOL        j
  -------         ENDDO         
  C:655BH         LINE#         132
  C:655BH         LINE#         133
  C:655BH         LINE#         135
  C:6565H         LINE#         136
  C:657AH         LINE#         137
  -------         ENDPROC       _DELAY_MS
  -------         ENDMOD        MAIN

  -------         MODULE        GIZWITS_PRODUCT
  C:0000H         SYMBOL        _ICE_DUMMY_
  C:6666H         PUBLIC        gizGetTimerCount
  D:0080H         PUBLIC        P0
  C:3C6CH         PUBLIC        _gizwitsEventProcess
  D:0090H         PUBLIC        P1
  D:00A0H         PUBLIC        P2
  D:00B0H         PUBLIC        P3
  D:00C0H         PUBLIC        P4
  D:00C8H         PUBLIC        P5
  D:00E8H         PUBLIC        P6
  D:00F8H         PUBLIC        P7
  D:00A8H         PUBLIC        IE
  C:63F1H         PUBLIC        userHandle
  C:657BH         PUBLIC        gizTimerMs
  D:00B8H         PUBLIC        IP
  X:043EH         PUBLIC        flag_reset
  D:00D8H         PUBLIC        CCON
  C:66C8H         PUBLIC        mcuRestart
  B:0080H.1       PUBLIC        P01
  B:0080H.2       PUBLIC        P02
  B:0080H.3       PUBLIC        P03
  D:0098H         PUBLIC        SCON
  D:0088H         PUBLIC        TCON
  X:043FH         PUBLIC        flag_off
  D:00C7H         PUBLIC        IAP_CONTR
  C:53CCH         PUBLIC        _uartWrite
  C:6657H         PUBLIC        userInit
BL51 BANKED LINKER/LOCATER V6.22                                                      06/26/2019  15:58:54  PAGE 12


  X:0440H         PUBLIC        flag_on
  D:00D0H         PUBLIC        PSW
  -------         PROC          _GIZWITSEVENTPROCESS
  X:0216H         SYMBOL        info
  X:0219H         SYMBOL        gizdata
  X:021CH         SYMBOL        len
  -------         DO            
  X:0220H         SYMBOL        i
  X:0221H         SYMBOL        dataPointPtr
  X:0224H         SYMBOL        wifiData
  X:0227H         SYMBOL        ptime
  X:022AH         SYMBOL        ptModuleInfo
  -------         ENDDO         
  C:3C6CH         LINE#         59
  C:3C77H         LINE#         60
  C:3C77H         LINE#         61
  C:3C7CH         LINE#         62
  C:3C91H         LINE#         63
  C:3CA4H         LINE#         64
  C:3CB7H         LINE#         69
  C:3CCAH         LINE#         72
  C:3CE4H         LINE#         73
  C:3CE4H         LINE#         74
  C:3CE7H         LINE#         75
  C:3CE7H         LINE#         77
  C:3D07H         LINE#         78
  C:3D07H         LINE#         79
  C:3D46H         LINE#         80
  C:3D46H         LINE#         81
  C:3D46H         LINE#         82
  C:3D5FH         LINE#         83
  C:3D70H         LINE#         84
  C:3D7FH         LINE#         85
  C:3D7FH         LINE#         86
  C:3D81H         LINE#         87
  C:3D88H         LINE#         88
  C:3D8AH         LINE#         89
  C:3D8DH         LINE#         90
  C:3D90H         LINE#         92
  C:3D90H         LINE#         94
  C:3D90H         LINE#         95
  C:3D90H         LINE#         96
  C:3D90H         LINE#         97
  C:3DACH         LINE#         98
  C:3DBDH         LINE#         99
  C:3DCCH         LINE#         100
  C:3DCCH         LINE#         101
  C:3DCEH         LINE#         102
  C:3DD5H         LINE#         103
  C:3DD7H         LINE#         104
  C:3DDAH         LINE#         105
  C:3DDCH         LINE#         107
  C:3DDCH         LINE#         109
  C:3DDCH         LINE#         110
  C:3DDCH         LINE#         111
  C:3DDCH         LINE#         112
  C:3DF8H         LINE#         113
BL51 BANKED LINKER/LOCATER V6.22                                                      06/26/2019  15:58:54  PAGE 13


  C:3E09H         LINE#         114
  C:3E18H         LINE#         115
  C:3E18H         LINE#         116
  C:3E1AH         LINE#         117
  C:3E21H         LINE#         118
  C:3E23H         LINE#         119
  C:3E29H         LINE#         120
  C:3E2CH         LINE#         122
  C:3E2CH         LINE#         124
  C:3E2CH         LINE#         125
  C:3E2CH         LINE#         130
  C:3E2CH         LINE#         131
  C:3E2CH         LINE#         132
  C:3E2CH         LINE#         133
  C:3E2CH         LINE#         134
  C:3E2CH         LINE#         135
  C:3E2CH         LINE#         136
  C:3E2CH         LINE#         138
  C:3E2CH         LINE#         139
  C:3E2CH         LINE#         141
  C:3E2CH         LINE#         142
  C:3E2CH         LINE#         144
  C:3E2CH         LINE#         145
  C:3E2CH         LINE#         146
  C:3E2CH         LINE#         147
  C:3E2CH         LINE#         148
  C:3E44H         LINE#         149
  C:3E47H         LINE#         150
  C:3E47H         LINE#         151
  C:3E4DH         LINE#         153
  C:3E50H         LINE#         154
  C:3E50H         LINE#         155
  C:3EACH         LINE#         156
  C:3EAEH         LINE#         157
  C:3EAEH         LINE#         158
  C:3EB7H         LINE#         163
  C:3EC0H         LINE#         165
  C:3EDBH         LINE#         167
  C:3EDBH         LINE#         168
  C:3EDBH         LINE#         169
  C:3EDBH         LINE#         170
  C:3EDBH         LINE#         171
  C:3EE4H         LINE#         173
  C:3EE6H         LINE#         174
  -------         ENDPROC       _GIZWITSEVENTPROCESS
  -------         PROC          USERHANDLE
  C:63F1H         LINE#         184
  C:63F1H         LINE#         185
  C:63F1H         LINE#         186
  C:6405H         LINE#         187
  C:6419H         LINE#         188
  C:642CH         LINE#         198
  -------         ENDPROC       USERHANDLE
  -------         PROC          USERINIT
  C:6657H         LINE#         208
  C:6657H         LINE#         209
  C:6657H         LINE#         210
BL51 BANKED LINKER/LOCATER V6.22                                                      06/26/2019  15:58:54  PAGE 14


  -------         ENDPROC       USERINIT
  -------         PROC          GIZTIMERMS
  C:657BH         LINE#         233
  C:657BH         LINE#         234
  C:657BH         LINE#         235
  -------         ENDPROC       GIZTIMERMS
  -------         PROC          GIZGETTIMERCOUNT
  C:6666H         LINE#         244
  C:6666H         LINE#         245
  C:6666H         LINE#         246
  C:6674H         LINE#         247
  -------         ENDPROC       GIZGETTIMERCOUNT
  -------         PROC          MCURESTART
  C:66C8H         LINE#         255
  C:66C8H         LINE#         256
  C:66C8H         LINE#         257
  C:66CBH         LINE#         258
  C:66CEH         LINE#         259
  -------         ENDPROC       MCURESTART
  -------         PROC          _UARTWRITE
  X:0290H         SYMBOL        buf
  X:0293H         SYMBOL        len
  -------         DO            
  X:0297H         SYMBOL        i
  -------         ENDDO         
  C:53CCH         LINE#         273
  C:53DBH         LINE#         274
  C:53DBH         LINE#         275
  C:53E5H         LINE#         277
  C:53F3H         LINE#         278
  C:53F3H         LINE#         279
  C:53FAH         LINE#         280
  C:53FAH         LINE#         297
  C:5427H         LINE#         298
  C:5427H         LINE#         299
  C:5447H         LINE#         301
  C:5480H         LINE#         302
  C:5480H         LINE#         303
  C:5485H         LINE#         304
  C:5485H         LINE#         305
  C:54A7H         LINE#         307
  C:54B5H         LINE#         308
  -------         ENDPROC       _UARTWRITE
  -------         ENDMOD        GIZWITS_PRODUCT

  -------         MODULE        GIZWITS_PROTOCOL
  C:0000H         SYMBOL        _ICE_DUMMY_
  D:0080H         PUBLIC        P0
  D:0090H         PUBLIC        P1
  D:00A0H         PUBLIC        P2
  D:00B0H         PUBLIC        P3
  C:5881H         PUBLIC        _gizPutData
  D:00C0H         PUBLIC        P4
  D:00C8H         PUBLIC        P5
  C:5D1AH         SYMBOL        gizProtocolAckHandle
  D:00E8H         PUBLIC        P6
  C:6156H         SYMBOL        gizProtocolResendData
BL51 BANKED LINKER/LOCATER V6.22                                                      06/26/2019  15:58:54  PAGE 15


  D:00F8H         PUBLIC        P7
  D:00A8H         PUBLIC        IE
  C:413DH         SYMBOL        _gizDataPoint2Event
  C:64A0H         SYMBOL        gizProtocolReboot
  C:142BH         SYMBOL        _gizProtocolModuleStatus
  C:5A5DH         SYMBOL        _gizProtocolNTP
  D:00B8H         PUBLIC        IP
  C:558DH         SYMBOL        _gizProtocolCommonAck
  C:30FBH         SYMBOL        _gizProtocolIssuedDataAck
  D:00D8H         PUBLIC        CCON
  X:000FH         PUBLIC        pRb
  C:4A7CH         SYMBOL        _gizProtocolGetDeviceInfo
  C:5F9CH         PUBLIC        gizwitsGetNTP
  C:62F5H         PUBLIC        gizwitsInit
  C:2AC6H         SYMBOL        _gizCheckReport
  C:5EA9H         SYMBOL        _gizProtocolWaitAckCheck
  C:60F7H         SYMBOL        _gizProtocolHeadInit
  C:5D9FH         PUBLIC        gizwitsGetModuleInfo
  C:45AEH         PUBLIC        _gizwitsPassthroughData
  D:0098H         PUBLIC        SCON
  D:0088H         PUBLIC        TCON
  C:2DE7H         SYMBOL        _gizProtocolGetOnePacket
  C:54B6H         SYMBOL        _gizProtocolErrorCmd
  C:51DCH         SYMBOL        _gizReportData
  C:244FH         PUBLIC        _gizwitsSetMode
  C:5E25H         SYMBOL        _gizProtocolWaitAck
  C:50CCH         SYMBOL        _gizDevReportPolicy
  C:1D33H         PUBLIC        _gizwitsHandle
  C:6087H         SYMBOL        _gizProtocolModuleInfoHandle
  X:001AH         PUBLIC        gizwitsProtocol
  X:015BH         SYMBOL        rbBuf
  C:4774H         SYMBOL        _gizProtocolIssuedProcess
  C:39DFH         SYMBOL        _gizDataPoints2ReportData
  D:00D0H         PUBLIC        PSW
  -------         PROC          _GIZPUTDATA
  X:0192H         SYMBOL        buf
  X:0195H         SYMBOL        len
  -------         DO            
  X:0199H         SYMBOL        count
  -------         ENDDO         
  C:5881H         LINE#         40
  C:5890H         LINE#         41
  C:5890H         LINE#         42
  C:589AH         LINE#         44
  C:58A8H         LINE#         45
  C:58A8H         LINE#         46
  C:58AEH         LINE#         47
  C:58B0H         LINE#         48
  C:58B0H         LINE#         50
  C:58E5H         LINE#         51
  C:5907H         LINE#         52
  C:5907H         LINE#         53
  C:5910H         LINE#         54
  C:5917H         LINE#         55
  C:5917H         LINE#         57
  C:5925H         LINE#         58
  -------         ENDPROC       _GIZPUTDATA
BL51 BANKED LINKER/LOCATER V6.22                                                      06/26/2019  15:58:54  PAGE 16


  C:60F1H         SYMBOL        L?0272
  -------         PROC          L?0271
  -------         ENDPROC       L?0271
  C:60F1H         SYMBOL        L?0272
  -------         PROC          _GIZPROTOCOLHEADINIT
  X:0290H         SYMBOL        head
  C:60F7H         LINE#         69
  C:6102H         LINE#         70
  C:6102H         LINE#         71
  C:6110H         LINE#         72
  C:6110H         LINE#         73
  C:6119H         LINE#         74
  C:611CH         LINE#         75
  C:611CH         LINE#         77
  C:6130H         LINE#         78
  C:6140H         LINE#         79
  C:6153H         LINE#         81
  C:6155H         LINE#         82
  -------         ENDPROC       _GIZPROTOCOLHEADINIT
  -------         PROC          L?0273
  -------         ENDPROC       L?0273
  -------         PROC          _GIZPROTOCOLWAITACK
  X:0239H         SYMBOL        gizdata
  X:023CH         SYMBOL        len
  C:5E25H         LINE#         92
  C:5E34H         LINE#         93
  C:5E34H         LINE#         94
  C:5E42H         LINE#         95
  C:5E42H         LINE#         96
  C:5E4BH         LINE#         97
  C:5E4EH         LINE#         98
  C:5E4EH         LINE#         100
  C:5E5DH         LINE#         101
  C:5E7BH         LINE#         102
  C:5E8CH         LINE#         104
  C:5E92H         LINE#         105
  C:5E9BH         LINE#         107
  C:5E9DH         LINE#         108
  -------         ENDPROC       _GIZPROTOCOLWAITACK
  -------         PROC          _GIZDATAPOINT2EVENT
  X:0227H         SYMBOL        issuedData
  X:022AH         SYMBOL        info
  X:022DH         SYMBOL        dataPoints
  C:413DH         LINE#         117
  C:4148H         LINE#         118
  C:4148H         LINE#         119
  C:416EH         LINE#         120
  C:416EH         LINE#         121
  C:4177H         LINE#         122
  C:417AH         LINE#         123
  C:417AH         LINE#         126
  C:417AH         LINE#         127
  C:417AH         LINE#         128
  C:417AH         LINE#         129
  C:417AH         LINE#         130
  C:417AH         LINE#         131
  C:417AH         LINE#         132
BL51 BANKED LINKER/LOCATER V6.22                                                      06/26/2019  15:58:54  PAGE 17


  C:417AH         LINE#         133
  C:417AH         LINE#         135
  C:418EH         LINE#         136
  C:418EH         LINE#         137
  C:41BEH         LINE#         138
  C:41CEH         LINE#         139
  C:4221H         LINE#         140
  C:4221H         LINE#         142
  C:4238H         LINE#         143
  C:4238H         LINE#         144
  C:4268H         LINE#         145
  C:4278H         LINE#         146
  C:42CEH         LINE#         147
  C:42CEH         LINE#         149
  C:42E7H         LINE#         150
  C:42E7H         LINE#         151
  C:4317H         LINE#         152
  C:4327H         LINE#         153
  C:437DH         LINE#         154
  C:437DH         LINE#         157
  C:437FH         LINE#         158
  -------         ENDPROC       _GIZDATAPOINT2EVENT
  -------         PROC          _GIZCHECKREPORT
  X:021DH         SYMBOL        cur
  X:0220H         SYMBOL        last
  -------         DO            
  X:0223H         SYMBOL        ret
  X:0000H         SYMBOL        lastReportTime
  X:0224H         SYMBOL        currentTime
  -------         ENDDO         
  C:2AC6H         LINE#         168
  C:2AD1H         LINE#         169
  C:2AD1H         LINE#         170
  C:2AD6H         LINE#         172
  C:2ADEH         LINE#         174
  C:2AF8H         LINE#         175
  C:2AF8H         LINE#         176
  C:2B01H         LINE#         177
  C:2B04H         LINE#         178
  C:2B04H         LINE#         179
  C:2B0DH         LINE#         180
  C:2B34H         LINE#         181
  C:2B34H         LINE#         182
  C:2B3DH         LINE#         183
  C:2B43H         LINE#         184
  C:2B43H         LINE#         185
  C:2B70H         LINE#         186
  C:2B70H         LINE#         187
  C:2B79H         LINE#         188
  C:2B7FH         LINE#         189
  C:2B7FH         LINE#         190
  C:2BACH         LINE#         191
  C:2BACH         LINE#         192
  C:2BB5H         LINE#         193
  C:2BBBH         LINE#         194
  C:2BBBH         LINE#         196
  C:2BE3H         LINE#         197
BL51 BANKED LINKER/LOCATER V6.22                                                      06/26/2019  15:58:54  PAGE 18


  C:2BE3H         LINE#         198
  C:2C17H         LINE#         199
  C:2C17H         LINE#         200
  C:2C20H         LINE#         201
  C:2C26H         LINE#         202
  C:2C26H         LINE#         203
  C:2C26H         LINE#         204
  C:2C4DH         LINE#         205
  C:2C4DH         LINE#         206
  C:2C81H         LINE#         207
  C:2C81H         LINE#         208
  C:2C8AH         LINE#         209
  C:2C90H         LINE#         210
  C:2C90H         LINE#         211
  C:2C90H         LINE#         212
  C:2CB8H         LINE#         213
  C:2CB8H         LINE#         214
  C:2CECH         LINE#         215
  C:2CECH         LINE#         216
  C:2CF5H         LINE#         217
  C:2CFBH         LINE#         218
  C:2CFBH         LINE#         219
  C:2CFBH         LINE#         220
  C:2D23H         LINE#         221
  C:2D23H         LINE#         222
  C:2D57H         LINE#         223
  C:2D57H         LINE#         224
  C:2D60H         LINE#         225
  C:2D66H         LINE#         226
  C:2D66H         LINE#         227
  C:2D66H         LINE#         228
  C:2D8EH         LINE#         229
  C:2D8EH         LINE#         230
  C:2DC2H         LINE#         231
  C:2DC2H         LINE#         232
  C:2DCBH         LINE#         233
  C:2DD1H         LINE#         234
  C:2DD1H         LINE#         235
  C:2DD1H         LINE#         237
  C:2DD8H         LINE#         238
  C:2DD8H         LINE#         239
  C:2DE1H         LINE#         240
  C:2DE1H         LINE#         241
  C:2DE6H         LINE#         242
  -------         ENDPROC       _GIZCHECKREPORT
  -------         PROC          L?0268
  -------         ENDPROC       L?0268
  -------         PROC          _GIZDATAPOINTS2REPORTDATA
  X:0227H         SYMBOL        dataPoints
  X:022AH         SYMBOL        devStatusPtr
  C:39DFH         LINE#         252
  C:39EAH         LINE#         253
  C:39EAH         LINE#         254
  C:3A04H         LINE#         255
  C:3A04H         LINE#         256
  C:3A0DH         LINE#         257
  C:3A10H         LINE#         258
BL51 BANKED LINKER/LOCATER V6.22                                                      06/26/2019  15:58:54  PAGE 19


  C:3A10H         LINE#         260
  C:3A24H         LINE#         262
  C:3A75H         LINE#         263
  C:3AC9H         LINE#         264
  C:3B1DH         LINE#         265
  C:3B33H         LINE#         267
  C:3B71H         LINE#         268
  C:3BAFH         LINE#         269
  C:3BEDH         LINE#         270
  C:3C2BH         LINE#         271
  C:3C69H         LINE#         276
  C:3C6BH         LINE#         277
  -------         ENDPROC       _GIZDATAPOINTS2REPORTDATA
  -------         PROC          _GIZPROTOCOLISSUEDPROCESS
  X:0216H         SYMBOL        did
  X:0219H         SYMBOL        inData
  X:021CH         SYMBOL        inLen
  X:0220H         SYMBOL        outData
  X:0223H         SYMBOL        outLen
  -------         DO            
  X:0226H         SYMBOL        issuedAction
  -------         ENDDO         
  C:4774H         LINE#         288
  C:477FH         LINE#         289
  C:477FH         LINE#         290
  C:478FH         LINE#         292
  C:47B3H         LINE#         293
  C:47B3H         LINE#         294
  C:47BCH         LINE#         295
  C:47BFH         LINE#         296
  C:47BFH         LINE#         298
  C:47D0H         LINE#         299
  C:47D0H         LINE#         300
  C:47DDH         LINE#         301
  C:47F3H         LINE#         302
  C:47F3H         LINE#         303
  C:47F3H         LINE#         304
  C:4820H         LINE#         305
  C:4826H         LINE#         306
  C:482AH         LINE#         307
  C:482AH         LINE#         308
  C:482DH         LINE#         310
  C:482DH         LINE#         311
  C:4847H         LINE#         312
  C:4847H         LINE#         313
  C:4868H         LINE#         314
  C:4878H         LINE#         315
  C:488AH         LINE#         316
  C:488DH         LINE#         318
  C:488DH         LINE#         319
  C:4890H         LINE#         320
  C:4890H         LINE#         321
  C:4890H         LINE#         322
  C:4890H         LINE#         323
  C:48B9H         LINE#         324
  C:48DBH         LINE#         326
  C:48EBH         LINE#         327
BL51 BANKED LINKER/LOCATER V6.22                                                      06/26/2019  15:58:54  PAGE 20


  C:48F1H         LINE#         328
  C:48F7H         LINE#         329
  C:4900H         LINE#         330
  C:4910H         LINE#         331
  C:4910H         LINE#         333
  C:4910H         LINE#         334
  C:4910H         LINE#         335
  C:4910H         LINE#         336
  C:4910H         LINE#         338
  C:4912H         LINE#         339
  -------         ENDPROC       _GIZPROTOCOLISSUEDPROCESS
  -------         PROC          _GIZPROTOCOLISSUEDDATAACK
  X:0216H         SYMBOL        head
  X:0219H         SYMBOL        gizdata
  X:021CH         SYMBOL        len
  X:0220H         SYMBOL        proFlag
  -------         DO            
  X:0221H         SYMBOL        ret
  X:0225H         SYMBOL        tx_buf
  X:025BH         SYMBOL        offset
  X:025FH         SYMBOL        sDidLen
  X:0260H         SYMBOL        data_len
  X:0262H         SYMBOL        pTxBuf
  -------         ENDDO         
  C:30FBH         LINE#         352
  C:3106H         LINE#         353
  C:3106H         LINE#         354
  C:3110H         LINE#         356
  C:311AH         LINE#         357
  C:311FH         LINE#         358
  C:3123H         LINE#         359
  C:312EH         LINE#         360
  C:313CH         LINE#         361
  C:313CH         LINE#         362
  C:3145H         LINE#         363
  C:314AH         LINE#         364
  C:314AH         LINE#         367
  C:3151H         LINE#         368
  C:3151H         LINE#         369
  C:3167H         LINE#         370
  C:317BH         LINE#         371
  C:317DH         LINE#         373
  C:317DH         LINE#         374
  C:3192H         LINE#         375
  C:3192H         LINE#         376
  C:31C6H         LINE#         377
  C:31DBH         LINE#         378
  C:31F0H         LINE#         379
  C:3209H         LINE#         380
  C:3221H         LINE#         381
  C:3248H         LINE#         382
  C:326EH         LINE#         383
  C:3282H         LINE#         384
  C:329BH         LINE#         385
  C:32A5H         LINE#         386
  C:32B0H         LINE#         387
  C:32B0H         LINE#         388
BL51 BANKED LINKER/LOCATER V6.22                                                      06/26/2019  15:58:54  PAGE 21


  C:32C9H         LINE#         389
  C:32E8H         LINE#         390
  C:3318H         LINE#         391
  C:333FH         LINE#         392
  C:334DH         LINE#         394
  C:334DH         LINE#         395
  C:3366H         LINE#         396
  C:3366H         LINE#         397
  C:3390H         LINE#         398
  C:3390H         LINE#         399
  C:33BDH         LINE#         401
  C:33D6H         LINE#         402
  C:33E8H         LINE#         403
  C:33E8H         LINE#         404
  C:33FEH         LINE#         405
  C:3404H         LINE#         406
  C:3404H         LINE#         408
  C:3409H         LINE#         409
  -------         ENDPROC       _GIZPROTOCOLISSUEDDATAACK
  -------         PROC          _GIZREPORTDATA
  X:021DH         SYMBOL        action
  X:021EH         SYMBOL        gizdata
  X:0221H         SYMBOL        len
  -------         DO            
  X:0225H         SYMBOL        ret
  X:0229H         SYMBOL        protocolReport
  -------         ENDDO         
  C:51DCH         LINE#         422
  C:51EAH         LINE#         423
  C:51EAH         LINE#         424
  C:51F4H         LINE#         427
  C:5202H         LINE#         428
  C:5202H         LINE#         429
  C:520BH         LINE#         430
  C:5211H         LINE#         431
  C:5211H         LINE#         432
  C:521AH         LINE#         433
  C:5220H         LINE#         434
  C:522BH         LINE#         435
  C:5233H         LINE#         436
  C:5242H         LINE#         437
  C:5260H         LINE#         438
  C:5276H         LINE#         440
  C:528DH         LINE#         441
  C:529FH         LINE#         442
  C:529FH         LINE#         443
  C:52B5H         LINE#         444
  C:52BDH         LINE#         445
  C:52BDH         LINE#         447
  C:52C8H         LINE#         449
  C:52D6H         LINE#         450
  -------         ENDPROC       _GIZREPORTDATA
  -------         PROC          _GIZDEVREPORTPOLICY
  X:0216H         SYMBOL        currentData
  -------         DO            
  X:0004H         SYMBOL        lastRepTime
  X:0219H         SYMBOL        timeNow
BL51 BANKED LINKER/LOCATER V6.22                                                      06/26/2019  15:58:54  PAGE 22


  -------         ENDDO         
  C:50CCH         LINE#         460
  C:50D7H         LINE#         461
  C:50D7H         LINE#         463
  C:50E0H         LINE#         465
  C:5101H         LINE#         466
  C:5101H         LINE#         467
  C:510AH         LINE#         468
  C:5110H         LINE#         469
  C:5110H         LINE#         470
  C:5125H         LINE#         471
  C:513DH         LINE#         472
  C:513DH         LINE#         474
  C:518BH         LINE#         475
  C:518BH         LINE#         476
  C:5194H         LINE#         477
  C:519AH         LINE#         478
  C:519AH         LINE#         479
  C:51AFH         LINE#         480
  C:51AFH         LINE#         481
  C:51C7H         LINE#         483
  C:51DBH         LINE#         484
  C:51DBH         LINE#         485
  -------         ENDPROC       _GIZDEVREPORTPOLICY
  -------         PROC          _GIZPROTOCOLGETONEPACKET
  X:0216H         SYMBOL        rb
  X:0219H         SYMBOL        gizdata
  X:021CH         SYMBOL        len
  -------         DO            
  X:021FH         SYMBOL        ret
  X:0223H         SYMBOL        sum
  X:0224H         SYMBOL        i
  X:0228H         SYMBOL        tmpData
  X:0229H         SYMBOL        tmpLen
  X:022AH         SYMBOL        tmpCount
  X:0008H         SYMBOL        protocolFlag
  X:0009H         SYMBOL        protocolCount
  X:000BH         SYMBOL        lastData
  X:000CH         SYMBOL        debugCount
  X:022CH         SYMBOL        protocolBuff
  X:022FH         SYMBOL        head
  -------         ENDDO         
  C:2DE7H         LINE#         496
  C:2DF2H         LINE#         497
  C:2DF2H         LINE#         498
  C:2DFCH         LINE#         499
  C:2E01H         LINE#         500
  C:2E09H         LINE#         502
  C:2E0EH         LINE#         503
  C:2E12H         LINE#         508
  C:2E27H         LINE#         509
  C:2E2EH         LINE#         511
  C:2E54H         LINE#         512
  C:2E54H         LINE#         513
  C:2E5DH         LINE#         514
  C:2E60H         LINE#         515
  C:2E60H         LINE#         517
BL51 BANKED LINKER/LOCATER V6.22                                                      06/26/2019  15:58:54  PAGE 23


  C:2E73H         LINE#         518
  C:2E75H         LINE#         519
  C:2E75H         LINE#         520
  C:2E78H         LINE#         521
  C:2E78H         LINE#         523
  C:2EA2H         LINE#         524
  C:2EA2H         LINE#         525
  C:2ECAH         LINE#         526
  C:2EE1H         LINE#         527
  C:2EE1H         LINE#         528
  C:2EF5H         LINE#         529
  C:2EF5H         LINE#         530
  C:2EFBH         LINE#         531
  C:2EFBH         LINE#         532
  C:2F0BH         LINE#         533
  C:2F1EH         LINE#         534
  C:2F27H         LINE#         535
  C:2F2CH         LINE#         536
  C:2F2FH         LINE#         538
  C:2F2FH         LINE#         539
  C:2F55H         LINE#         540
  C:2F55H         LINE#         541
  C:2F63H         LINE#         542
  C:2F76H         LINE#         543
  C:2F7FH         LINE#         544
  C:2F7FH         LINE#         545
  C:2F7FH         LINE#         546
  C:2F82H         LINE#         547
  C:2F94H         LINE#         548
  C:2F94H         LINE#         549
  C:2F94H         LINE#         551
  C:2F94H         LINE#         552
  C:2F9CH         LINE#         553
  C:2F9CH         LINE#         554
  C:2FBBH         LINE#         555
  C:2FC9H         LINE#         557
  C:2FD8H         LINE#         558
  C:2FD8H         LINE#         559
  C:2FECH         LINE#         560
  C:3006H         LINE#         561
  C:3012H         LINE#         562
  C:3012H         LINE#         563
  C:3012H         LINE#         564
  C:3012H         LINE#         565
  C:3012H         LINE#         566
  C:3012H         LINE#         567
  C:3012H         LINE#         569
  C:301AH         LINE#         570
  C:301EH         LINE#         571
  C:301EH         LINE#         572
  C:3046H         LINE#         574
  C:306CH         LINE#         575
  C:306CH         LINE#         576
  C:3084H         LINE#         578
  C:30A6H         LINE#         579
  C:30A6H         LINE#         580
  C:30CAH         LINE#         581
BL51 BANKED LINKER/LOCATER V6.22                                                      06/26/2019  15:58:54  PAGE 24


  C:30E2H         LINE#         582
  C:30E7H         LINE#         584
  C:30EBH         LINE#         585
  C:30EFH         LINE#         586
  C:30F3H         LINE#         588
  C:30F5H         LINE#         589
  C:30F5H         LINE#         591
  C:30F5H         LINE#         592
  C:30F8H         LINE#         593
  C:30F8H         LINE#         594
  C:30F8H         LINE#         596
  C:30FAH         LINE#         597
  -------         ENDPROC       _GIZPROTOCOLGETONEPACKET
  -------         PROC          GIZPROTOCOLRESENDDATA
  -------         DO            
  X:0216H         SYMBOL        ret
  -------         ENDDO         
  C:6156H         LINE#         610
  C:6156H         LINE#         611
  C:6156H         LINE#         612
  C:6160H         LINE#         614
  C:6166H         LINE#         615
  C:6166H         LINE#         617
  C:6166H         LINE#         619
  C:616FH         LINE#         621
  C:6189H         LINE#         622
  C:61A8H         LINE#         623
  C:61A8H         LINE#         624
  C:61B1H         LINE#         625
  C:61B1H         LINE#         627
  C:61BAH         LINE#         628
  -------         ENDPROC       GIZPROTOCOLRESENDDATA
  C:5E9EH         SYMBOL        L?0267
  -------         PROC          L?0266
  -------         ENDPROC       L?0266
  C:5E9EH         SYMBOL        L?0267
  -------         PROC          _GIZPROTOCOLWAITACKCHECK
  X:0216H         SYMBOL        head
  -------         DO            
  X:0219H         SYMBOL        waitAckHead
  -------         ENDDO         
  C:5EA9H         LINE#         637
  C:5EB4H         LINE#         638
  C:5EB4H         LINE#         639
  C:5EC0H         LINE#         641
  C:5ECEH         LINE#         642
  C:5ECEH         LINE#         643
  C:5ED7H         LINE#         644
  C:5EDAH         LINE#         645
  C:5EDAH         LINE#         647
  C:5F0BH         LINE#         648
  C:5F0BH         LINE#         649
  C:5F1AH         LINE#         650
  C:5F1AH         LINE#         652
  C:5F1CH         LINE#         653
  -------         ENDPROC       _GIZPROTOCOLWAITACKCHECK
  C:5582H         SYMBOL        L?0270
BL51 BANKED LINKER/LOCATER V6.22                                                      06/26/2019  15:58:54  PAGE 25


  -------         PROC          L?0269
  -------         ENDPROC       L?0269
  C:5582H         SYMBOL        L?0270
  -------         PROC          _GIZPROTOCOLCOMMONACK
  X:0216H         SYMBOL        head
  -------         DO            
  X:0219H         SYMBOL        ret
  X:021DH         SYMBOL        ack
  -------         ENDDO         
  C:558DH         LINE#         662
  C:5598H         LINE#         663
  C:5598H         LINE#         664
  C:55A0H         LINE#         667
  C:55AEH         LINE#         668
  C:55AEH         LINE#         669
  C:55B7H         LINE#         670
  C:55BEH         LINE#         671
  C:55BEH         LINE#         672
  C:55D6H         LINE#         673
  C:55DCH         LINE#         674
  C:55EBH         LINE#         675
  C:5601H         LINE#         677
  C:5618H         LINE#         678
  C:562AH         LINE#         679
  C:562AH         LINE#         680
  C:5639H         LINE#         681
  C:5639H         LINE#         683
  C:5647H         LINE#         684
  -------         ENDPROC       _GIZPROTOCOLCOMMONACK
  -------         PROC          GIZPROTOCOLACKHANDLE
  C:5D1AH         LINE#         695
  C:5D1AH         LINE#         696
  C:5D1AH         LINE#         697
  C:5D22H         LINE#         698
  C:5D22H         LINE#         699
  C:5D2DH         LINE#         700
  C:5D2DH         LINE#         702
  C:5D57H         LINE#         703
  C:5D57H         LINE#         704
  C:5D85H         LINE#         705
  C:5D88H         LINE#         706
  C:5D8EH         LINE#         707
  C:5D8EH         LINE#         708
  C:5D8FH         LINE#         710
  C:5D8FH         LINE#         711
  C:5D9EH         LINE#         712
  C:5D9EH         LINE#         713
  C:5D9EH         LINE#         714
  -------         ENDPROC       GIZPROTOCOLACKHANDLE
  -------         PROC          _GIZPROTOCOLGETDEVICEINFO
  X:0216H         SYMBOL        head
  -------         DO            
  X:0219H         SYMBOL        ret
  X:021DH         SYMBOL        deviceInfo
  -------         ENDDO         
  C:4A7CH         LINE#         723
  C:4A87H         LINE#         724
BL51 BANKED LINKER/LOCATER V6.22                                                      06/26/2019  15:58:54  PAGE 26


  C:4A87H         LINE#         725
  C:4A8FH         LINE#         728
  C:4A9DH         LINE#         729
  C:4A9DH         LINE#         730
  C:4AA6H         LINE#         731
  C:4AADH         LINE#         732
  C:4AADH         LINE#         734
  C:4AB6H         LINE#         735
  C:4ABCH         LINE#         736
  C:4AD1H         LINE#         737
  C:4AE4H         LINE#         738
  C:4AF7H         LINE#         739
  C:4B0AH         LINE#         740
  C:4B1DH         LINE#         741
  C:4B35H         LINE#         742
  C:4B4DH         LINE#         743
  C:4B5CH         LINE#         744
  C:4B61H         LINE#         745
  C:4B64H         LINE#         746
  C:4B72H         LINE#         747
  C:4B81H         LINE#         748
  C:4B97H         LINE#         750
  C:4BAEH         LINE#         751
  C:4BC0H         LINE#         752
  C:4BC0H         LINE#         753
  C:4BCFH         LINE#         754
  C:4BCFH         LINE#         756
  C:4BDDH         LINE#         757
  -------         ENDPROC       _GIZPROTOCOLGETDEVICEINFO
  -------         PROC          _GIZPROTOCOLERRORCMD
  X:0216H         SYMBOL        head
  X:0219H         SYMBOL        errno
  -------         DO            
  X:021AH         SYMBOL        ret
  X:021EH         SYMBOL        errorType
  -------         ENDDO         
  C:54B6H         LINE#         766
  C:54C4H         LINE#         767
  C:54C4H         LINE#         768
  C:54CCH         LINE#         771
  C:54DAH         LINE#         772
  C:54DAH         LINE#         773
  C:54E3H         LINE#         774
  C:54EAH         LINE#         775
  C:54EAH         LINE#         776
  C:54F3H         LINE#         777
  C:54F9H         LINE#         778
  C:550EH         LINE#         780
  C:551DH         LINE#         781
  C:5525H         LINE#         782
  C:553BH         LINE#         784
  C:5552H         LINE#         785
  C:5564H         LINE#         786
  C:5564H         LINE#         787
  C:5573H         LINE#         788
  C:5573H         LINE#         790
  C:5581H         LINE#         791
BL51 BANKED LINKER/LOCATER V6.22                                                      06/26/2019  15:58:54  PAGE 27


  -------         ENDPROC       _GIZPROTOCOLERRORCMD
  -------         PROC          _GIZPROTOCOLNTP
  X:0216H         SYMBOL        head
  -------         DO            
  X:0219H         SYMBOL        UTTInfo
  -------         ENDDO         
  C:5A5DH         LINE#         800
  C:5A68H         LINE#         801
  C:5A68H         LINE#         802
  C:5A71H         LINE#         804
  C:5A7FH         LINE#         805
  C:5A7FH         LINE#         806
  C:5A88H         LINE#         807
  C:5A8BH         LINE#         808
  C:5A8BH         LINE#         810
  C:5AA8H         LINE#         811
  C:5ABBH         LINE#         812
  C:5AD2H         LINE#         814
  C:5AE2H         LINE#         815
  C:5AE8H         LINE#         817
  C:5AEEH         LINE#         820
  C:5AF0H         LINE#         821
  -------         ENDPROC       _GIZPROTOCOLNTP
  -------         PROC          GIZPROTOCOLREBOOT
  -------         DO            
  X:0216H         SYMBOL        timeDelay
  -------         ENDDO         
  C:64A0H         LINE#         829
  C:64A0H         LINE#         830
  C:64A0H         LINE#         831
  C:64A9H         LINE#         834
  C:64D4H         LINE#         835
  -------         ENDPROC       GIZPROTOCOLREBOOT
  -------         PROC          _GIZPROTOCOLMODULESTATUS
  X:0216H         SYMBOL        status
  -------         DO            
  X:000DH         SYMBOL        lastStatus
  -------         ENDDO         
  C:142BH         LINE#         844
  C:1436H         LINE#         845
  C:1436H         LINE#         848
  C:1444H         LINE#         849
  C:1444H         LINE#         850
  C:144DH         LINE#         851
  C:1450H         LINE#         852
  C:1450H         LINE#         854
  C:147BH         LINE#         857
  C:14AFH         LINE#         858
  C:14AFH         LINE#         859
  C:14B3H         LINE#         860
  C:14B3H         LINE#         861
  C:14C7H         LINE#         862
  C:14C7H         LINE#         863
  C:14D6H         LINE#         864
  C:14DCH         LINE#         865
  C:14E5H         LINE#         866
  C:14E5H         LINE#         868
BL51 BANKED LINKER/LOCATER V6.22                                                      06/26/2019  15:58:54  PAGE 28


  C:1503H         LINE#         869
  C:1503H         LINE#         870
  C:1513H         LINE#         871
  C:1519H         LINE#         872
  C:151FH         LINE#         873
  C:151FH         LINE#         874
  C:1521H         LINE#         876
  C:1521H         LINE#         877
  C:1535H         LINE#         878
  C:1535H         LINE#         879
  C:1544H         LINE#         880
  C:154AH         LINE#         881
  C:1553H         LINE#         882
  C:1553H         LINE#         884
  C:156EH         LINE#         885
  C:156EH         LINE#         886
  C:157EH         LINE#         887
  C:1584H         LINE#         888
  C:158DH         LINE#         889
  C:158DH         LINE#         890
  C:158DH         LINE#         891
  C:158DH         LINE#         894
  C:15C9H         LINE#         895
  C:15C9H         LINE#         896
  C:15E4H         LINE#         897
  C:15F6H         LINE#         898
  C:15F6H         LINE#         899
  C:1603H         LINE#         900
  C:1609H         LINE#         901
  C:160FH         LINE#         902
  C:1611H         LINE#         904
  C:1611H         LINE#         905
  C:161EH         LINE#         906
  C:1624H         LINE#         907
  C:162DH         LINE#         908
  C:162DH         LINE#         909
  C:162DH         LINE#         912
  C:1666H         LINE#         913
  C:1666H         LINE#         914
  C:1681H         LINE#         915
  C:1692H         LINE#         916
  C:1692H         LINE#         917
  C:169FH         LINE#         918
  C:16A5H         LINE#         919
  C:16ABH         LINE#         920
  C:16ADH         LINE#         922
  C:16ADH         LINE#         923
  C:16BAH         LINE#         924
  C:16C0H         LINE#         925
  C:16C9H         LINE#         926
  C:16C9H         LINE#         927
  C:16C9H         LINE#         930
  C:1705H         LINE#         931
  C:1705H         LINE#         932
  C:1720H         LINE#         933
  C:1732H         LINE#         934
  C:1732H         LINE#         935
BL51 BANKED LINKER/LOCATER V6.22                                                      06/26/2019  15:58:54  PAGE 29


  C:173FH         LINE#         936
  C:1745H         LINE#         937
  C:174BH         LINE#         938
  C:174DH         LINE#         940
  C:174DH         LINE#         941
  C:175AH         LINE#         942
  C:1760H         LINE#         943
  C:1769H         LINE#         944
  C:1769H         LINE#         945
  C:1769H         LINE#         948
  C:1793H         LINE#         949
  C:1793H         LINE#         950
  C:17AAH         LINE#         951
  C:17B6H         LINE#         952
  C:17B6H         LINE#         953
  C:17C3H         LINE#         954
  C:17C9H         LINE#         955
  C:17CFH         LINE#         956
  C:17D1H         LINE#         958
  C:17D1H         LINE#         959
  C:17DEH         LINE#         960
  C:17E4H         LINE#         961
  C:17EDH         LINE#         962
  C:17EDH         LINE#         963
  C:17EDH         LINE#         966
  C:1813H         LINE#         967
  C:1813H         LINE#         968
  C:182AH         LINE#         969
  C:1834H         LINE#         970
  C:1834H         LINE#         971
  C:1841H         LINE#         972
  C:1847H         LINE#         973
  C:184DH         LINE#         974
  C:184FH         LINE#         976
  C:184FH         LINE#         977
  C:185CH         LINE#         978
  C:1862H         LINE#         979
  C:186BH         LINE#         980
  C:186BH         LINE#         981
  C:186BH         LINE#         983
  C:187BH         LINE#         984
  C:1881H         LINE#         985
  C:189AH         LINE#         986
  C:18A7H         LINE#         988
  C:18ADH         LINE#         990
  C:18AFH         LINE#         991
  -------         ENDPROC       _GIZPROTOCOLMODULESTATUS
  -------         PROC          GIZWITSINIT
  C:62F5H         LINE#         1008
  C:62F5H         LINE#         1009
  C:62F5H         LINE#         1010
  C:62FEH         LINE#         1011
  C:630CH         LINE#         1012
  C:631AH         LINE#         1013
  C:631AH         LINE#         1014
  C:631EH         LINE#         1015
  C:6320H         LINE#         1017
BL51 BANKED LINKER/LOCATER V6.22                                                      06/26/2019  15:58:54  PAGE 30


  C:6320H         LINE#         1018
  C:6327H         LINE#         1019
  C:6327H         LINE#         1021
  -------         ENDPROC       GIZWITSINIT
  -------         PROC          _GIZWITSSETMODE
  X:01CEH         SYMBOL        mode
  -------         DO            
  X:01CFH         SYMBOL        ret
  X:01D3H         SYMBOL        cfgMode
  X:01DDH         SYMBOL        setDefault
  -------         ENDDO         
  C:244FH         LINE#         1033
  C:2455H         LINE#         1034
  C:2455H         LINE#         1035
  C:245DH         LINE#         1039
  C:2483H         LINE#         1040
  C:2483H         LINE#         1041
  C:2483H         LINE#         1042
  C:2486H         LINE#         1043
  C:248CH         LINE#         1044
  C:2497H         LINE#         1045
  C:24A6H         LINE#         1046
  C:24BCH         LINE#         1047
  C:24D3H         LINE#         1048
  C:24E5H         LINE#         1049
  C:24E5H         LINE#         1050
  C:24F4H         LINE#         1051
  C:24F4H         LINE#         1053
  C:24F4H         LINE#         1054
  C:24F7H         LINE#         1055
  C:24F7H         LINE#         1056
  C:2500H         LINE#         1057
  C:2506H         LINE#         1058
  C:2511H         LINE#         1059
  C:2519H         LINE#         1060
  C:2528H         LINE#         1061
  C:253EH         LINE#         1062
  C:2555H         LINE#         1063
  C:2567H         LINE#         1064
  C:2567H         LINE#         1065
  C:2576H         LINE#         1066
  C:2576H         LINE#         1067
  C:2576H         LINE#         1068
  C:2579H         LINE#         1069
  C:2579H         LINE#         1070
  C:2582H         LINE#         1071
  C:2588H         LINE#         1072
  C:2593H         LINE#         1073
  C:259BH         LINE#         1074
  C:25AAH         LINE#         1075
  C:25C0H         LINE#         1076
  C:25D7H         LINE#         1077
  C:25E9H         LINE#         1078
  C:25E9H         LINE#         1079
  C:25F8H         LINE#         1080
  C:25F8H         LINE#         1081
  C:2600H         LINE#         1082
BL51 BANKED LINKER/LOCATER V6.22                                                      06/26/2019  15:58:54  PAGE 31


  C:2603H         LINE#         1083
  C:2603H         LINE#         1084
  C:2606H         LINE#         1085
  C:260CH         LINE#         1086
  C:2617H         LINE#         1087
  C:2626H         LINE#         1088
  C:263CH         LINE#         1089
  C:2653H         LINE#         1090
  C:2665H         LINE#         1091
  C:2665H         LINE#         1092
  C:2674H         LINE#         1093
  C:2674H         LINE#         1095
  C:267CH         LINE#         1096
  C:267FH         LINE#         1097
  C:267FH         LINE#         1098
  C:2682H         LINE#         1099
  C:2688H         LINE#         1100
  C:2693H         LINE#         1101
  C:26A2H         LINE#         1102
  C:26B8H         LINE#         1103
  C:26CFH         LINE#         1104
  C:26E1H         LINE#         1105
  C:26E1H         LINE#         1106
  C:26F0H         LINE#         1107
  C:26F0H         LINE#         1109
  C:26F8H         LINE#         1110
  C:26FBH         LINE#         1111
  C:26FBH         LINE#         1112
  C:26FEH         LINE#         1113
  C:2704H         LINE#         1114
  C:270FH         LINE#         1115
  C:271EH         LINE#         1116
  C:2734H         LINE#         1117
  C:274BH         LINE#         1118
  C:275DH         LINE#         1119
  C:275DH         LINE#         1120
  C:276CH         LINE#         1121
  C:276CH         LINE#         1123
  C:2777H         LINE#         1124
  C:2779H         LINE#         1125
  C:2779H         LINE#         1126
  C:2782H         LINE#         1127
  C:2782H         LINE#         1128
  C:2782H         LINE#         1130
  C:2790H         LINE#         1131
  -------         ENDPROC       _GIZWITSSETMODE
  -------         PROC          GIZWITSGETNTP
  -------         DO            
  D:0004H         SYMBOL        ret
  X:042DH         SYMBOL        getNTP
  -------         ENDDO         
  C:5F9CH         LINE#         1141
  C:5F9CH         LINE#         1142
  C:5F9CH         LINE#         1143
  C:5FA4H         LINE#         1146
  C:5FADH         LINE#         1147
  C:5FB3H         LINE#         1148
BL51 BANKED LINKER/LOCATER V6.22                                                      06/26/2019  15:58:54  PAGE 32


  C:5FBEH         LINE#         1149
  C:5FCDH         LINE#         1150
  C:5FE3H         LINE#         1151
  C:5FF4H         LINE#         1152
  C:5FF8H         LINE#         1153
  C:5FF8H         LINE#         1154
  C:6007H         LINE#         1155
  C:6007H         LINE#         1157
  -------         ENDPROC       GIZWITSGETNTP
  -------         PROC          GIZWITSGETMODULEINFO
  -------         DO            
  D:0004H         SYMBOL        ret
  X:0423H         SYMBOL        getModuleInfo
  -------         ENDDO         
  C:5D9FH         LINE#         1169
  C:5D9FH         LINE#         1170
  C:5D9FH         LINE#         1171
  C:5DA7H         LINE#         1174
  C:5DB0H         LINE#         1175
  C:5DB6H         LINE#         1176
  C:5DC1H         LINE#         1177
  C:5DC6H         LINE#         1178
  C:5DD4H         LINE#         1179
  C:5DEAH         LINE#         1180
  C:5DFBH         LINE#         1181
  C:5DFFH         LINE#         1182
  C:5DFFH         LINE#         1183
  C:5E0EH         LINE#         1184
  C:5E0EH         LINE#         1186
  -------         ENDPROC       GIZWITSGETMODULEINFO
  -------         PROC          _GIZPROTOCOLMODULEINFOHANDLE
  X:0216H         SYMBOL        head
  -------         DO            
  X:0219H         SYMBOL        moduleInfo
  -------         ENDDO         
  C:6087H         LINE#         1197
  C:6092H         LINE#         1198
  C:6092H         LINE#         1199
  C:609BH         LINE#         1201
  C:60A9H         LINE#         1202
  C:60A9H         LINE#         1203
  C:60B2H         LINE#         1204
  C:60B5H         LINE#         1205
  C:60B5H         LINE#         1207
  C:60D2H         LINE#         1209
  C:60E2H         LINE#         1210
  C:60E8H         LINE#         1212
  C:60EEH         LINE#         1215
  C:60F0H         LINE#         1216
  -------         ENDPROC       _GIZPROTOCOLMODULEINFOHANDLE
  -------         PROC          _GIZWITSHANDLE
  X:01CEH         SYMBOL        currentData
  -------         DO            
  X:01D1H         SYMBOL        ret
  X:01D2H         SYMBOL        ackData
  X:0208H         SYMBOL        protocolLen
  X:020AH         SYMBOL        ackLen
BL51 BANKED LINKER/LOCATER V6.22                                                      06/26/2019  15:58:54  PAGE 33


  X:020EH         SYMBOL        recvHead
  X:0211H         SYMBOL        didPtr
  X:0214H         SYMBOL        offset
  -------         ENDDO         
  C:1D33H         LINE#         1226
  C:1D3EH         LINE#         1227
  C:1D3EH         LINE#         1228
  C:1D41H         LINE#         1233
  C:1D47H         LINE#         1234
  C:1D4FH         LINE#         1235
  C:1D58H         LINE#         1236
  C:1D61H         LINE#         1237
  C:1D66H         LINE#         1240
  C:1D74H         LINE#         1241
  C:1D74H         LINE#         1242
  C:1D7DH         LINE#         1243
  C:1D82H         LINE#         1244
  C:1D82H         LINE#         1247
  C:1D85H         LINE#         1248
  C:1DADH         LINE#         1250
  C:1DB2H         LINE#         1251
  C:1DB2H         LINE#         1252
  C:1DBBH         LINE#         1263
  C:1DCCH         LINE#         1264
  C:1E03H         LINE#         1265
  C:1E03H         LINE#         1266
  C:1E03H         LINE#         1267
  C:1E11H         LINE#         1268
  C:1E14H         LINE#         1269
  C:1E14H         LINE#         1270
  C:1E3CH         LINE#         1273
  C:1EA2H         LINE#         1274
  C:1EA2H         LINE#         1275
  C:1EDDH         LINE#         1276
  C:1EE3H         LINE#         1277
  C:1EE3H         LINE#         1278
  C:1EE6H         LINE#         1279
  C:1EE6H         LINE#         1280
  C:1EE9H         LINE#         1281
  C:1EECH         LINE#         1282
  C:1EECH         LINE#         1283
  C:1EEFH         LINE#         1284
  C:1EFDH         LINE#         1285
  C:1F00H         LINE#         1286
  C:1F00H         LINE#         1287
  C:1F00H         LINE#         1288
  C:1F00H         LINE#         1289
  C:1F00H         LINE#         1290
  C:1F00H         LINE#         1291
  C:1F03H         LINE#         1292
  C:1F06H         LINE#         1293
  C:1F06H         LINE#         1294
  C:1F09H         LINE#         1295
  C:1F12H         LINE#         1297
  C:1F15H         LINE#         1298
  C:1F18H         LINE#         1299
  C:1F18H         LINE#         1300
BL51 BANKED LINKER/LOCATER V6.22                                                      06/26/2019  15:58:54  PAGE 34


  C:1F18H         LINE#         1301
  C:1F18H         LINE#         1302
  C:1F1BH         LINE#         1303
  C:1F21H         LINE#         1304
  C:1F23H         LINE#         1305
  C:1F23H         LINE#         1306
  C:1F26H         LINE#         1307
  C:1F34H         LINE#         1308
  C:1F3AH         LINE#         1309
  C:1F3CH         LINE#         1310
  C:1F3CH         LINE#         1311
  C:1F3FH         LINE#         1312
  C:1F4DH         LINE#         1313
  C:1F53H         LINE#         1314
  C:1F55H         LINE#         1316
  C:1F55H         LINE#         1317
  C:1F65H         LINE#         1318
  C:1F6EH         LINE#         1319
  C:1F70H         LINE#         1320
  C:1F70H         LINE#         1321
  C:1F70H         LINE#         1322
  C:1F77H         LINE#         1323
  C:1F77H         LINE#         1325
  C:1F88H         LINE#         1326
  C:1F8DH         LINE#         1327
  C:1F96H         LINE#         1328
  C:1F9DH         LINE#         1329
  C:1F9DH         LINE#         1331
  C:1FBBH         LINE#         1332
  C:1FBBH         LINE#         1333
  C:1FBBH         LINE#         1334
  C:1FC0H         LINE#         1335
  C:1FDEH         LINE#         1336
  C:1FEAH         LINE#         1337
  C:1FEDH         LINE#         1338
  C:1FEDH         LINE#         1339
  C:1FF2H         LINE#         1340
  C:2010H         LINE#         1341
  C:201CH         LINE#         1342
  C:201FH         LINE#         1343
  C:201FH         LINE#         1344
  C:2024H         LINE#         1345
  C:204EH         LINE#         1346
  C:2050H         LINE#         1347
  C:2050H         LINE#         1348
  C:2055H         LINE#         1349
  C:2073H         LINE#         1350
  C:207FH         LINE#         1351
  C:2081H         LINE#         1352
  C:2081H         LINE#         1353
  C:2086H         LINE#         1354
  C:20A4H         LINE#         1355
  C:20B3H         LINE#         1356
  C:20B3H         LINE#         1357
  C:20B3H         LINE#         1358
  C:20B3H         LINE#         1359
  C:20B3H         LINE#         1361
BL51 BANKED LINKER/LOCATER V6.22                                                      06/26/2019  15:58:54  PAGE 35


  C:20C1H         LINE#         1363
  C:20C6H         LINE#         1364
  -------         ENDPROC       _GIZWITSHANDLE
  -------         PROC          _GIZWITSPASSTHROUGHDATA
  X:035BH         SYMBOL        gizdata
  X:035EH         SYMBOL        len
  -------         DO            
  X:0362H         SYMBOL        ret
  X:0366H         SYMBOL        tx_buf
  X:0381H         SYMBOL        pTxBuf
  X:0384H         SYMBOL        data_len
  -------         ENDDO         
  C:45AEH         LINE#         1375
  C:45BDH         LINE#         1376
  C:45BDH         LINE#         1377
  C:45C7H         LINE#         1379
  C:45D5H         LINE#         1380
  C:45EAH         LINE#         1381
  C:45F8H         LINE#         1382
  C:45F8H         LINE#         1383
  C:4601H         LINE#         1384
  C:4606H         LINE#         1385
  C:4606H         LINE#         1387
  C:461BH         LINE#         1388
  C:4630H         LINE#         1389
  C:4649H         LINE#         1390
  C:4663H         LINE#         1391
  C:4678H         LINE#         1392
  C:4692H         LINE#         1393
  C:46A6H         LINE#         1394
  C:46BAH         LINE#         1395
  C:46CFH         LINE#         1397
  C:46EDH         LINE#         1398
  C:471AH         LINE#         1400
  C:4733H         LINE#         1401
  C:4745H         LINE#         1402
  C:4745H         LINE#         1403
  C:4754H         LINE#         1404
  C:4754H         LINE#         1406
  C:476EH         LINE#         1408
  C:4773H         LINE#         1409
  -------         ENDPROC       _GIZWITSPASSTHROUGHDATA
  -------         ENDMOD        GIZWITS_PROTOCOL

  -------         MODULE        HAL_UART
  C:0000H         SYMBOL        _ICE_DUMMY_
  D:0080H         PUBLIC        P0
  D:0090H         PUBLIC        P1
  D:00A0H         PUBLIC        P2
  D:00B0H         PUBLIC        P3
  D:00C0H         PUBLIC        P4
  D:00C8H         PUBLIC        P5
  B:00A8H.7       PUBLIC        EA
  D:00E8H         PUBLIC        P6
  D:00F8H         PUBLIC        P7
  C:65D2H         PUBLIC        uart1_init
  C:65B8H         PUBLIC        uart2_init
BL51 BANKED LINKER/LOCATER V6.22                                                      06/26/2019  15:58:54  PAGE 36


  D:00A8H         PUBLIC        IE
  B:00A8H.4       PUBLIC        ES
  D:00B8H         PUBLIC        IP
  B:0098H.1       PUBLIC        TI
  D:00D8H         PUBLIC        CCON
  D:0099H         PUBLIC        SBUF
  C:6691H         PUBLIC        _UART1_TxByte
  D:0098H         PUBLIC        SCON
  C:669BH         PUBLIC        _UART2_TxByte
  D:0089H         PUBLIC        TMOD
  D:0088H         PUBLIC        TCON
  C:0003H         PUBLIC        UART1_RCV
  C:61BBH         PUBLIC        UART2_RCV
  C:6627H         PUBLIC        _PrintString1
  C:6637H         PUBLIC        _PrintString2
  B:0022H.2       PUBLIC        B_TI
  D:00AFH         PUBLIC        IE2
  D:008EH         PUBLIC        AUXR
  B:00A8H.3       PUBLIC        ET1
  D:008DH         PUBLIC        TH1
  D:00D6H         PUBLIC        T2H
  D:008BH         PUBLIC        TL1
  D:00D7H         PUBLIC        T2L
  B:0088H.6       PUBLIC        TR1
  D:009BH         PUBLIC        S2BUF
  D:009AH         PUBLIC        S2CON
  B:0022H.3       PUBLIC        B_TI2
  D:00D0H         PUBLIC        PSW
  -------         PROC          _UART1_TXBYTE
  D:0007H         SYMBOL        dat
  C:6691H         LINE#         9
  C:6691H         LINE#         10
  C:6691H         LINE#         11
  C:6693H         LINE#         12
  C:6695H         LINE#         13
  C:6698H         LINE#         14
  C:669AH         LINE#         15
  -------         ENDPROC       _UART1_TXBYTE
  -------         PROC          _UART2_TXBYTE
  D:0007H         SYMBOL        dat
  C:669BH         LINE#         17
  C:669BH         LINE#         18
  C:669BH         LINE#         19
  C:669DH         LINE#         20
  C:669FH         LINE#         21
  C:66A2H         LINE#         22
  C:66A4H         LINE#         23
  -------         ENDPROC       _UART2_TXBYTE
  -------         PROC          _PRINTSTRING1
  D:0082H         SYMBOL        puts
  C:6627H         LINE#         25
  C:662BH         LINE#         26
  C:662BH         LINE#         27
  C:6636H         LINE#         28
  -------         ENDPROC       _PRINTSTRING1
  -------         PROC          _PRINTSTRING2
  D:0082H         SYMBOL        puts
BL51 BANKED LINKER/LOCATER V6.22                                                      06/26/2019  15:58:54  PAGE 37


  C:6637H         LINE#         30
  C:663BH         LINE#         31
  C:663BH         LINE#         32
  C:6646H         LINE#         33
  -------         ENDPROC       _PRINTSTRING2
  -------         PROC          UART1_INIT
  C:65D2H         LINE#         37
  C:65D2H         LINE#         38
  C:65D2H         LINE#         39
  C:65D5H         LINE#         40
  C:65D8H         LINE#         41
  C:65DBH         LINE#         42
  C:65DEH         LINE#         43
  C:65E1H         LINE#         44
  C:65E4H         LINE#         45
  C:65E6H         LINE#         46
  C:65E8H         LINE#         47
  -------         ENDPROC       UART1_INIT
  -------         PROC          UART1_RCV
  C:0003H         LINE#         50
  C:0003H         LINE#         52
  C:0006H         LINE#         53
  C:0006H         LINE#         54
  C:0008H         LINE#         55
  C:000AH         LINE#         56
  C:000AH         LINE#         57
  -------         ENDPROC       UART1_RCV
  -------         PROC          UART2_INIT
  C:65B8H         LINE#         61
  C:65B8H         LINE#         62
  C:65B8H         LINE#         63
  C:65BBH         LINE#         64
  C:65BEH         LINE#         65
  C:65C1H         LINE#         66
  C:65C4H         LINE#         67
  C:65C7H         LINE#         68
  C:65CAH         LINE#         69
  C:65CDH         LINE#         70
  C:65CFH         LINE#         71
  C:65D1H         LINE#         72
  -------         ENDPROC       UART2_INIT
  -------         PROC          UART2_RCV
  -------         DO            
  X:0191H         SYMBOL        gizbuf
  -------         ENDDO         
  C:61BBH         LINE#         75
  C:61D8H         LINE#         79
  C:61DDH         LINE#         80
  C:61DDH         LINE#         81
  C:61E0H         LINE#         82
  C:61E6H         LINE#         83
  C:61F7H         LINE#         84
  C:61F7H         LINE#         85
  C:61FCH         LINE#         86
  C:61FCH         LINE#         87
  C:61FFH         LINE#         88
  C:6201H         LINE#         89
BL51 BANKED LINKER/LOCATER V6.22                                                      06/26/2019  15:58:54  PAGE 38


  C:6201H         LINE#         90
  -------         ENDPROC       UART2_RCV
  -------         ENDMOD        HAL_UART

  -------         MODULE        HAL_KEY
  C:0000H         SYMBOL        _ICE_DUMMY_
  D:0080H         PUBLIC        P0
  D:0090H         PUBLIC        P1
  D:00A0H         PUBLIC        P2
  D:00B0H         PUBLIC        P3
  D:00C0H         PUBLIC        P4
  D:00C8H         PUBLIC        P5
  D:00E8H         PUBLIC        P6
  D:00F8H         PUBLIC        P7
  D:00A8H         PUBLIC        IE
  X:0436H         PUBLIC        sflag
  D:00B8H         PUBLIC        IP
  D:00D8H         PUBLIC        CCON
  C:659AH         PUBLIC        _delay1ms
  D:0098H         PUBLIC        SCON
  D:0088H         PUBLIC        TCON
  C:621CH         PUBLIC        setkeyscan
  X:0437H         PUBLIC        longflag
  B:0080H.0       PUBLIC        SETKEY
  C:6647H         PUBLIC        key_init
  X:0438H         PUBLIC        skeycount
  B:0022H.4       PUBLIC        skpflag
  C:66AFH         PUBLIC        pro_sklp
  X:0439H         PUBLIC        skpttime
  C:66A5H         PUBLIC        pro_sksp
  D:00D0H         PUBLIC        PSW
  -------         PROC          SETKEYSCAN
  C:621CH         LINE#         23
  C:621CH         LINE#         24
  C:621CH         LINE#         25
  C:621FH         LINE#         26
  C:621FH         LINE#         27
  C:6228H         LINE#         28
  C:6228H         LINE#         29
  C:622BH         LINE#         30
  C:622DH         LINE#         31
  C:6233H         LINE#         32
  C:6234H         LINE#         33
  C:6244H         LINE#         34
  C:6244H         LINE#         35
  C:6247H         LINE#         36
  C:6249H         LINE#         37
  C:6249H         LINE#         38
  C:624AH         LINE#         40
  C:624AH         LINE#         41
  C:624DH         LINE#         42
  C:624DH         LINE#         43
  C:6252H         LINE#         44
  C:625BH         LINE#         45
  C:625BH         LINE#         46
  C:625DH         LINE#         47
  C:625FH         LINE#         48
BL51 BANKED LINKER/LOCATER V6.22                                                      06/26/2019  15:58:54  PAGE 39


  C:6261H         LINE#         49
  C:6261H         LINE#         50
  C:6261H         LINE#         51
  C:6263H         LINE#         52
  C:6268H         LINE#         53
  C:6268H         LINE#         54
  C:6268H         LINE#         55
  -------         ENDPROC       SETKEYSCAN
  -------         PROC          _DELAY1MS
  D:0007H         SYMBOL        ms
  -------         DO            
  X:01CEH         SYMBOL        i
  -------         ENDDO         
  C:659AH         LINE#         59
  C:659AH         LINE#         60
  C:65A0H         LINE#         61
  C:65A0H         LINE#         62
  C:65AEH         LINE#         63
  C:65AEH         LINE#         64
  C:65AFH         LINE#         65
  C:65B0H         LINE#         66
  C:65B1H         LINE#         67
  C:65B2H         LINE#         68
  C:65B7H         LINE#         69
  C:65B7H         LINE#         70
  -------         ENDPROC       _DELAY1MS
  -------         PROC          PRO_SKSP
  C:66A5H         LINE#         74
  C:66A5H         LINE#         75
  C:66A5H         LINE#         76
  C:66AAH         LINE#         78
  -------         ENDPROC       PRO_SKSP
  -------         PROC          PRO_SKLP
  C:66AFH         LINE#         83
  C:66AFH         LINE#         84
  C:66AFH         LINE#         85
  C:66B4H         LINE#         87
  -------         ENDPROC       PRO_SKLP
  -------         PROC          KEY_INIT
  C:6647H         LINE#         91
  C:6647H         LINE#         92
  C:6647H         LINE#         93
  C:664CH         LINE#         94
  C:664EH         LINE#         95
  C:6652H         LINE#         96
  C:6654H         LINE#         97
  C:6656H         LINE#         98
  -------         ENDPROC       KEY_INIT
  -------         ENDMOD        HAL_KEY

  -------         MODULE        COMMON
  C:0000H         SYMBOL        _ICE_DUMMY_
  D:0080H         PUBLIC        P0
  D:0090H         PUBLIC        P1
  C:5F1DH         SYMBOL        _isleap
  D:00A0H         PUBLIC        P2
  D:00B0H         PUBLIC        P3
BL51 BANKED LINKER/LOCATER V6.22                                                      06/26/2019  15:58:54  PAGE 40


  D:00C0H         PUBLIC        P4
  D:00C8H         PUBLIC        P5
  D:00E8H         PUBLIC        P6
  D:00F8H         PUBLIC        P7
  C:65E9H         SYMBOL        _get_yeardays
  D:00A8H         PUBLIC        IE
  C:57D1H         PUBLIC        _checkStringIsNotZero
  D:00B8H         PUBLIC        IP
  C:5C0AH         PUBLIC        _char2hex
  D:00D8H         PUBLIC        CCON
  C:4FB2H         PUBLIC        _hex2Str
  C:52D7H         PUBLIC        _str2Hex
  D:0098H         PUBLIC        SCON
  D:0088H         PUBLIC        TCON
  C:6508H         SYMBOL        _?ix1000
  C:3707H         PUBLIC        _returnWeekDay
  C:66B8H         PUBLIC        _exchangeBytes
  C:20C7H         PUBLIC        _returnNtp2Wt
  C:570DH         PUBLIC        _gizProtocolSum
  C:5926H         PUBLIC        _exchangeWord
  D:00D0H         PUBLIC        PSW
  -------         PROC          _GIZPROTOCOLSUM
  X:0290H         SYMBOL        buf
  X:0293H         SYMBOL        len
  -------         DO            
  X:0297H         SYMBOL        sum
  X:0298H         SYMBOL        i
  -------         ENDDO         
  C:570DH         LINE#         26
  C:571CH         LINE#         27
  C:571CH         LINE#         28
  C:5721H         LINE#         29
  C:5729H         LINE#         31
  C:574EH         LINE#         32
  C:574EH         LINE#         33
  C:5751H         LINE#         34
  C:5751H         LINE#         36
  C:578BH         LINE#         37
  C:578BH         LINE#         38
  C:57AEH         LINE#         39
  C:57CBH         LINE#         41
  C:57D0H         LINE#         42
  -------         ENDPROC       _GIZPROTOCOLSUM
  -------         PROC          _EXCHANGEBYTES
  X:0290H         SYMBOL        value
  C:66B8H         LINE#         48
  C:66C0H         LINE#         49
  C:66C0H         LINE#         62
  -------         ENDPROC       _EXCHANGEBYTES
  -------         PROC          _EXCHANGEWORD
  X:021CH         SYMBOL        value
  C:5926H         LINE#         68
  C:592CH         LINE#         69
  C:592CH         LINE#         70
  C:59C7H         LINE#         74
  -------         ENDPROC       _EXCHANGEWORD
  -------         PROC          _CHAR2HEX
BL51 BANKED LINKER/LOCATER V6.22                                                      06/26/2019  15:58:54  PAGE 41


  D:0007H         SYMBOL        A
  D:0005H         SYMBOL        B
  -------         DO            
  D:0006H         SYMBOL        a
  D:0004H         SYMBOL        b
  -------         ENDDO         
  C:5C0AH         LINE#         82
  C:5C0AH         LINE#         83
  C:5C0AH         LINE#         84
  C:5C0CH         LINE#         85
  C:5C1CH         LINE#         86
  C:5C1CH         LINE#         87
  C:5C20H         LINE#         88
  C:5C22H         LINE#         89
  C:5C32H         LINE#         90
  C:5C32H         LINE#         91
  C:5C36H         LINE#         92
  C:5C38H         LINE#         93
  C:5C48H         LINE#         94
  C:5C48H         LINE#         95
  C:5C4CH         LINE#         96
  C:5C4CH         LINE#         98
  C:5C5CH         LINE#         99
  C:5C5CH         LINE#         100
  C:5C60H         LINE#         101
  C:5C62H         LINE#         102
  C:5C72H         LINE#         103
  C:5C72H         LINE#         104
  C:5C76H         LINE#         105
  C:5C78H         LINE#         106
  C:5C88H         LINE#         107
  C:5C88H         LINE#         108
  C:5C8CH         LINE#         109
  C:5C8CH         LINE#         111
  C:5C92H         LINE#         112
  -------         ENDPROC       _CHAR2HEX
  -------         PROC          _CHECKSTRINGISNOTZERO
  X:0418H         SYMBOL        gizdata
  -------         DO            
  X:041BH         SYMBOL        i
  X:041FH         SYMBOL        dataLen
  -------         ENDDO         
  C:57D1H         LINE#         125
  C:57DCH         LINE#         126
  C:57DCH         LINE#         127
  C:57E4H         LINE#         128
  C:57EEH         LINE#         130
  C:57FDH         LINE#         132
  C:580BH         LINE#         133
  C:580BH         LINE#         134
  C:580EH         LINE#         135
  C:580EH         LINE#         137
  C:583AH         LINE#         138
  C:583AH         LINE#         139
  C:585AH         LINE#         140
  C:585AH         LINE#         141
  C:585DH         LINE#         142
BL51 BANKED LINKER/LOCATER V6.22                                                      06/26/2019  15:58:54  PAGE 42


  C:585DH         LINE#         143
  C:587EH         LINE#         145
  C:5880H         LINE#         146
  -------         ENDPROC       _CHECKSTRINGISNOTZERO
  -------         PROC          _RETURNWEEKDAY
  X:03A8H         SYMBOL        iYear
  X:03ACH         SYMBOL        iMonth
  X:03B0H         SYMBOL        iDay
  -------         DO            
  X:03B4H         SYMBOL        iWeek
  X:03B8H         SYMBOL        y
  X:03BCH         SYMBOL        c
  X:03C0H         SYMBOL        m
  X:03C4H         SYMBOL        d
  -------         ENDDO         
  C:3707H         LINE#         159
  C:370DH         LINE#         160
  C:370DH         LINE#         161
  C:3717H         LINE#         162
  C:373FH         LINE#         164
  C:376EH         LINE#         165
  C:376EH         LINE#         166
  C:3799H         LINE#         167
  C:37CCH         LINE#         168
  C:37E5H         LINE#         169
  C:37E5H         LINE#         170
  C:37E7H         LINE#         172
  C:37E7H         LINE#         173
  C:3804H         LINE#         174
  C:3829H         LINE#         175
  C:383DH         LINE#         176
  C:3851H         LINE#         177
  C:3851H         LINE#         179
  C:396AH         LINE#         180
  C:39B7H         LINE#         182
  C:39C5H         LINE#         183
  -------         ENDPROC       _RETURNWEEKDAY
  -------         PROC          _ISLEAP
  X:043AH         SYMBOL        year
  C:5F1DH         LINE#         185
  C:5F23H         LINE#         186
  C:5F23H         LINE#         187
  C:5F9BH         LINE#         188
  -------         ENDPROC       _ISLEAP
  -------         PROC          _GET_YEARDAYS
  D:0006H         SYMBOL        year
  C:65E9H         LINE#         190
  C:65E9H         LINE#         191
  C:65E9H         LINE#         192
  C:65FAH         LINE#         193
  C:65FDH         LINE#         194
  C:65FFH         LINE#         195
  -------         ENDPROC       _GET_YEARDAYS
  -------         PROC          _RETURNNTP2WT
  X:0310H         SYMBOL        ntp
  -------         DO            
  X:0314H         SYMBOL        tm
BL51 BANKED LINKER/LOCATER V6.22                                                      06/26/2019  15:58:54  PAGE 43


  X:031FH         SYMBOL        x
  X:0323H         SYMBOL        i
  X:0327H         SYMBOL        mons
  X:0357H         SYMBOL        utc
  -------         ENDDO         
  C:20C7H         LINE#         206
  C:20CDH         LINE#         207
  C:20CDH         LINE#         210
  C:20EAH         LINE#         211
  C:20FEH         LINE#         214
  C:211EH         LINE#         216
  C:2144H         LINE#         217
  C:2144H         LINE#         218
  C:215DH         LINE#         219
  C:2189H         LINE#         220
  C:2189H         LINE#         221
  C:21DAH         LINE#         222
  C:21FFH         LINE#         223
  C:2202H         LINE#         225
  C:2202H         LINE#         226
  C:2202H         LINE#         227
  C:2202H         LINE#         228
  C:2202H         LINE#         229
  C:2213H         LINE#         231
  C:2239H         LINE#         232
  C:2239H         LINE#         233
  C:224DH         LINE#         234
  C:2257H         LINE#         235
  C:229CH         LINE#         236
  C:229CH         LINE#         237
  C:2303H         LINE#         238
  C:2328H         LINE#         239
  C:232BH         LINE#         241
  C:232BH         LINE#         242
  C:232BH         LINE#         243
  C:232BH         LINE#         244
  C:232BH         LINE#         245
  C:2335H         LINE#         246
  C:2341H         LINE#         248
  C:2364H         LINE#         249
  C:2364H         LINE#         250
  C:2379H         LINE#         251
  C:2379H         LINE#         252
  C:239BH         LINE#         253
  C:23C0H         LINE#         254
  C:23C2H         LINE#         256
  C:23C2H         LINE#         257
  C:23C2H         LINE#         258
  C:23C2H         LINE#         259
  C:23C2H         LINE#         260
  C:23CDH         LINE#         262
  C:23EAH         LINE#         263
  C:2418H         LINE#         264
  C:2434H         LINE#         265
  C:2448H         LINE#         267
  C:244EH         LINE#         268
  -------         ENDPROC       _RETURNNTP2WT
BL51 BANKED LINKER/LOCATER V6.22                                                      06/26/2019  15:58:54  PAGE 44


  -------         PROC          _STR2HEX
  X:03DEH         SYMBOL        pbDest
  X:03E1H         SYMBOL        pbSrc
  X:03E4H         SYMBOL        nLen
  -------         DO            
  X:03E8H         SYMBOL        h1
  X:03E9H         SYMBOL        h2
  X:03EAH         SYMBOL        s1
  X:03EBH         SYMBOL        s2
  X:03ECH         SYMBOL        i
  -------         ENDDO         
  C:52D7H         LINE#         276
  C:52E2H         LINE#         277
  C:52E2H         LINE#         282
  C:5311H         LINE#         283
  C:5311H         LINE#         284
  C:5339H         LINE#         285
  C:5345H         LINE#         287
  C:5354H         LINE#         288
  C:535BH         LINE#         289
  C:535FH         LINE#         291
  C:536EH         LINE#         292
  C:5375H         LINE#         293
  C:5379H         LINE#         295
  C:53A3H         LINE#         296
  C:53CBH         LINE#         297
  -------         ENDPROC       _STR2HEX
  -------         PROC          _HEX2STR
  X:03F0H         SYMBOL        pbDest
  X:03F3H         SYMBOL        pbSrc
  X:03F6H         SYMBOL        nLen
  -------         DO            
  X:03FAH         SYMBOL        ddl
  X:03FBH         SYMBOL        ddh
  X:03FCH         SYMBOL        i
  -------         ENDDO         
  C:4FB2H         LINE#         305
  C:4FBDH         LINE#         306
  C:4FBDH         LINE#         310
  C:4FECH         LINE#         311
  C:5013H         LINE#         312
  C:501CH         LINE#         313
  C:5029H         LINE#         314
  C:5038H         LINE#         315
  C:506CH         LINE#         316
  C:507AH         LINE#         317
  C:50A2H         LINE#         319
  -------         ENDPROC       _HEX2STR
  -------         ENDMOD        COMMON

  -------         MODULE        DATAPOINTTOOLS
  C:0000H         SYMBOL        _ICE_DUMMY_
  D:0080H         PUBLIC        P0
  D:0090H         PUBLIC        P1
  D:00A0H         PUBLIC        P2
  D:00B0H         PUBLIC        P3
  D:00C0H         PUBLIC        P4
BL51 BANKED LINKER/LOCATER V6.22                                                      06/26/2019  15:58:54  PAGE 45


  D:00C8H         PUBLIC        P5
  D:00E8H         PUBLIC        P6
  D:00F8H         PUBLIC        P7
  C:4913H         PUBLIC        _gizVarlenCompressValue
  C:4E80H         PUBLIC        _gizByteOrderExchange
  D:00A8H         PUBLIC        IE
  D:00B8H         PUBLIC        IP
  C:3EE7H         PUBLIC        _gizVarlenDecompressionValue
  D:00D8H         PUBLIC        CCON
  C:642DH         PUBLIC        _gizX2YFloat
  C:6468H         PUBLIC        _gizY2XFloat
  C:6376H         PUBLIC        _gizX2Y
  C:63B4H         PUBLIC        _gizY2X
  D:0098H         PUBLIC        SCON
  D:0088H         PUBLIC        TCON
  C:59D3H         PUBLIC        _gizAcrossByteJudge
  C:4D2DH         PUBLIC        _gizStandardCompressValue
  C:4380H         PUBLIC        _gizStandardDecompressionValue
  D:00D0H         PUBLIC        PSW
  -------         PROC          L?0095
  -------         ENDPROC       L?0095
  -------         PROC          _GIZBYTEORDEREXCHANGE
  X:027CH         SYMBOL        buf
  X:027FH         SYMBOL        dataLen
  -------         DO            
  X:0283H         SYMBOL        i
  X:0287H         SYMBOL        preData
  X:0288H         SYMBOL        aftData
  -------         ENDDO         
  C:4E80H         LINE#         28
  C:4E8FH         LINE#         29
  C:4E8FH         LINE#         30
  C:4E99H         LINE#         31
  C:4E9EH         LINE#         32
  C:4EA0H         LINE#         34
  C:4EAEH         LINE#         35
  C:4EAEH         LINE#         36
  C:4EB1H         LINE#         37
  C:4EB1H         LINE#         39
  C:4EE9H         LINE#         40
  C:4EE9H         LINE#         41
  C:4F09H         LINE#         42
  C:4F3BH         LINE#         43
  C:4F51H         LINE#         44
  C:4F8DH         LINE#         45
  C:4FAFH         LINE#         46
  C:4FB1H         LINE#         47
  -------         ENDPROC       _GIZBYTEORDEREXCHANGE
  -------         PROC          _GIZY2X
  X:022DH         SYMBOL        ratio
  X:0231H         SYMBOL        addition
  X:0235H         SYMBOL        preValue
  -------         DO            
  D:0004H         SYMBOL        aftValue
  -------         ENDDO         
  C:63B4H         LINE#         59
  C:63BAH         LINE#         60
BL51 BANKED LINKER/LOCATER V6.22                                                      06/26/2019  15:58:54  PAGE 46


  C:63BAH         LINE#         61
  C:63BAH         LINE#         64
  C:63F0H         LINE#         66
  C:63F0H         LINE#         67
  -------         ENDPROC       _GIZY2X
  -------         PROC          _GIZX2Y
  X:0400H         SYMBOL        ratio
  X:0404H         SYMBOL        addition
  X:0408H         SYMBOL        preValue
  -------         DO            
  D:0004H         SYMBOL        aftValue
  -------         ENDDO         
  C:6376H         LINE#         78
  C:637CH         LINE#         79
  C:637CH         LINE#         80
  C:637CH         LINE#         83
  C:63B3H         LINE#         85
  C:63B3H         LINE#         86
  -------         ENDPROC       _GIZX2Y
  -------         PROC          _GIZY2XFLOAT
  X:022DH         SYMBOL        ratio
  X:0231H         SYMBOL        addition
  X:0235H         SYMBOL        preValue
  -------         DO            
  D:0004H         SYMBOL        aftValue
  -------         ENDDO         
  C:6468H         LINE#         97
  C:646EH         LINE#         98
  C:646EH         LINE#         99
  C:646EH         LINE#         102
  C:649FH         LINE#         104
  C:649FH         LINE#         105
  -------         ENDPROC       _GIZY2XFLOAT
  -------         PROC          _GIZX2YFLOAT
  X:040CH         SYMBOL        ratio
  X:0410H         SYMBOL        addition
  X:0414H         SYMBOL        preValue
  -------         DO            
  D:0004H         SYMBOL        aftValue
  -------         ENDDO         
  C:642DH         LINE#         116
  C:6433H         LINE#         117
  C:6433H         LINE#         118
  C:6433H         LINE#         121
  C:6467H         LINE#         123
  C:6467H         LINE#         124
  -------         ENDPROC       _GIZX2YFLOAT
  C:59C8H         SYMBOL        L?0094
  -------         PROC          L?0093
  -------         ENDPROC       L?0093
  C:59C8H         SYMBOL        L?0094
  -------         PROC          _GIZACROSSBYTEJUDGE
  X:027CH         SYMBOL        bitOffset
  X:0280H         SYMBOL        bitLen
  C:59D3H         LINE#         135
  C:59D9H         LINE#         136
  C:59D9H         LINE#         137
BL51 BANKED LINKER/LOCATER V6.22                                                      06/26/2019  15:58:54  PAGE 47


  C:5A0AH         LINE#         138
  C:5A0AH         LINE#         139
  C:5A24H         LINE#         140
  C:5A24H         LINE#         141
  C:5A27H         LINE#         142
  C:5A27H         LINE#         144
  C:5A27H         LINE#         145
  C:5A2AH         LINE#         146
  C:5A2AH         LINE#         147
  C:5A2AH         LINE#         149
  C:5A2AH         LINE#         150
  C:5A57H         LINE#         151
  C:5A57H         LINE#         152
  C:5A5AH         LINE#         153
  C:5A5AH         LINE#         155
  C:5A5AH         LINE#         156
  C:5A5CH         LINE#         157
  C:5A5CH         LINE#         158
  C:5A5CH         LINE#         159
  -------         ENDPROC       _GIZACROSSBYTEJUDGE
  -------         PROC          _GIZVARLENCOMPRESSVALUE
  X:03C8H         SYMBOL        bitOffset
  X:03CCH         SYMBOL        bitLen
  X:03D0H         SYMBOL        bufAddr
  X:03D3H         SYMBOL        srcData
  -------         DO            
  X:03D7H         SYMBOL        highBit
  X:03D8H         SYMBOL        lowBit
  X:03D9H         SYMBOL        ret
  X:03DAH         SYMBOL        byteOffset
  -------         ENDDO         
  C:4913H         LINE#         172
  C:4919H         LINE#         173
  C:4919H         LINE#         174
  C:491EH         LINE#         175
  C:4920H         LINE#         176
  C:4922H         LINE#         177
  C:492AH         LINE#         178
  C:4938H         LINE#         179
  C:4938H         LINE#         180
  C:493DH         LINE#         181
  C:493DH         LINE#         183
  C:495AH         LINE#         184
  C:4979H         LINE#         185
  C:497BH         LINE#         186
  C:497BH         LINE#         187
  C:49C4H         LINE#         188
  C:49C7H         LINE#         189
  C:49D2H         LINE#         190
  C:49D2H         LINE#         192
  C:49FCH         LINE#         193
  C:4A0CH         LINE#         194
  C:4A37H         LINE#         195
  C:4A76H         LINE#         196
  C:4A76H         LINE#         198
  C:4A7BH         LINE#         199
  -------         ENDPROC       _GIZVARLENCOMPRESSVALUE
BL51 BANKED LINKER/LOCATER V6.22                                                      06/26/2019  15:58:54  PAGE 48


  -------         PROC          _GIZVARLENDECOMPRESSIONVALUE
  X:02C4H         SYMBOL        bitOffset
  X:02C8H         SYMBOL        bitLen
  X:02CCH         SYMBOL        arrayAddr
  X:02CFH         SYMBOL        arrayLen
  -------         DO            
  X:02D3H         SYMBOL        destValue
  X:02D7H         SYMBOL        ret
  X:02D8H         SYMBOL        byteOffset
  X:02DCH         SYMBOL        highBit
  X:02DDH         SYMBOL        lowBit
  X:02DEH         SYMBOL        destBufTemp
  -------         ENDDO         
  C:3EE7H         LINE#         212
  C:3EEDH         LINE#         213
  C:3EEDH         LINE#         214
  C:3EF7H         LINE#         215
  C:3EFCH         LINE#         216
  C:3F04H         LINE#         217
  C:3F0BH         LINE#         221
  C:3F30H         LINE#         222
  C:3F30H         LINE#         223
  C:3F32H         LINE#         224
  C:3F32H         LINE#         226
  C:3F4FH         LINE#         227
  C:3F6DH         LINE#         228
  C:3F87H         LINE#         229
  C:3F87H         LINE#         230
  C:3F94H         LINE#         231
  C:3F94H         LINE#         232
  C:3F9BH         LINE#         233
  C:3F9BH         LINE#         234
  C:3F9BH         LINE#         235
  C:3FBAH         LINE#         236
  C:3FBFH         LINE#         237
  C:3FBFH         LINE#         238
  C:4043H         LINE#         239
  C:4046H         LINE#         240
  C:4051H         LINE#         241
  C:4051H         LINE#         242
  C:4097H         LINE#         243
  C:40B0H         LINE#         244
  C:410CH         LINE#         245
  C:412EH         LINE#         246
  C:412EH         LINE#         247
  C:413CH         LINE#         248
  -------         ENDPROC       _GIZVARLENDECOMPRESSIONVALUE
  -------         PROC          _GIZSTANDARDDECOMPRESSIONVALUE
  X:0230H         SYMBOL        byteOffset
  X:0234H         SYMBOL        bitOffset
  X:0238H         SYMBOL        bitLen
  X:023CH         SYMBOL        arrayAddr
  X:023FH         SYMBOL        arrayLen
  -------         DO            
  X:0243H         SYMBOL        ret
  X:0244H         SYMBOL        highBit
  X:0245H         SYMBOL        lowBit
BL51 BANKED LINKER/LOCATER V6.22                                                      06/26/2019  15:58:54  PAGE 49


  X:0246H         SYMBOL        destBufTemp
  X:0278H         SYMBOL        destValue
  -------         ENDDO         
  C:4380H         LINE#         261
  C:4386H         LINE#         262
  C:4386H         LINE#         263
  C:438BH         LINE#         264
  C:438FH         LINE#         266
  C:4399H         LINE#         268
  C:43BEH         LINE#         269
  C:43BEH         LINE#         270
  C:43C0H         LINE#         271
  C:43C0H         LINE#         273
  C:43DEH         LINE#         274
  C:43F8H         LINE#         275
  C:43F8H         LINE#         276
  C:4405H         LINE#         277
  C:4405H         LINE#         278
  C:440CH         LINE#         279
  C:440CH         LINE#         280
  C:440CH         LINE#         281
  C:442BH         LINE#         282
  C:4430H         LINE#         283
  C:4430H         LINE#         284
  C:44B4H         LINE#         285
  C:44B7H         LINE#         286
  C:44C2H         LINE#         287
  C:44C2H         LINE#         289
  C:4508H         LINE#         290
  C:4521H         LINE#         291
  C:457DH         LINE#         292
  C:459FH         LINE#         293
  C:459FH         LINE#         294
  C:45ADH         LINE#         295
  -------         ENDPROC       _GIZSTANDARDDECOMPRESSIONVALUE
  -------         PROC          _GIZSTANDARDCOMPRESSVALUE
  X:022DH         SYMBOL        byteOffset
  X:0231H         SYMBOL        bitOffset
  X:0235H         SYMBOL        bitLen
  X:0239H         SYMBOL        bufAddr
  X:023CH         SYMBOL        srcData
  -------         DO            
  X:0240H         SYMBOL        highBit
  X:0241H         SYMBOL        lowBit
  X:0242H         SYMBOL        ret
  -------         ENDDO         
  C:4D2DH         LINE#         308
  C:4D33H         LINE#         309
  C:4D33H         LINE#         310
  C:4D38H         LINE#         311
  C:4D3AH         LINE#         312
  C:4D3CH         LINE#         314
  C:4D4AH         LINE#         315
  C:4D4AH         LINE#         316
  C:4D4FH         LINE#         317
  C:4D4FH         LINE#         319
  C:4D6EH         LINE#         320
BL51 BANKED LINKER/LOCATER V6.22                                                      06/26/2019  15:58:54  PAGE 50


  C:4D70H         LINE#         321
  C:4D70H         LINE#         322
  C:4DBBH         LINE#         323
  C:4DBEH         LINE#         324
  C:4DC9H         LINE#         325
  C:4DC9H         LINE#         327
  C:4DF3H         LINE#         328
  C:4E03H         LINE#         329
  C:4E2EH         LINE#         330
  C:4E6DH         LINE#         331
  C:4E6DH         LINE#         333
  C:4E72H         LINE#         334
  -------         ENDPROC       _GIZSTANDARDCOMPRESSVALUE
  -------         ENDMOD        DATAPOINTTOOLS

  -------         MODULE        RINGBUFFER
  C:0000H         SYMBOL        _ICE_DUMMY_
  D:0080H         PUBLIC        P0
  D:0090H         PUBLIC        P1
  D:00A0H         PUBLIC        P2
  D:00B0H         PUBLIC        P3
  D:00C0H         PUBLIC        P4
  D:00C8H         PUBLIC        P5
  D:00E8H         PUBLIC        P6
  D:00F8H         PUBLIC        P7
  C:6341H         PUBLIC        _rbCapacity
  D:00A8H         PUBLIC        IE
  D:00B8H         PUBLIC        IP
  D:00D8H         PUBLIC        CCON
  C:5C93H         PUBLIC        _rbDelete
  C:6018H         PUBLIC        _rbCreate
  D:0098H         PUBLIC        SCON
  D:0088H         PUBLIC        TCON
  C:2791H         PUBLIC        _rbRead
  C:340AH         PUBLIC        _rbWrite
  C:4BE9H         PUBLIC        _rbCanRead
  C:6269H         PUBLIC        _rbCanWrite
  D:00D0H         PUBLIC        PSW
  -------         PROC          _RBCREATE
  X:01CEH         SYMBOL        rb
  C:6018H         LINE#         19
  C:6023H         LINE#         20
  C:6023H         LINE#         21
  C:6031H         LINE#         22
  C:6031H         LINE#         23
  C:6034H         LINE#         24
  C:6034H         LINE#         26
  C:605CH         LINE#         27
  C:6084H         LINE#         28
  C:6086H         LINE#         29
  -------         ENDPROC       _RBCREATE
  -------         PROC          _RBDELETE
  X:0441H         SYMBOL        rb
  C:5C93H         LINE#         31
  C:5C9EH         LINE#         32
  C:5C9EH         LINE#         33
  C:5CACH         LINE#         34
BL51 BANKED LINKER/LOCATER V6.22                                                      06/26/2019  15:58:54  PAGE 51


  C:5CACH         LINE#         35
  C:5CAFH         LINE#         36
  C:5CAFH         LINE#         38
  C:5CCCH         LINE#         39
  C:5CE9H         LINE#         40
  C:5D06H         LINE#         41
  C:5D17H         LINE#         42
  C:5D19H         LINE#         43
  -------         ENDPROC       _RBDELETE
  C:6339H         SYMBOL        L?0053
  -------         PROC          L?0052
  -------         ENDPROC       L?0052
  C:6339H         SYMBOL        L?0053
  -------         PROC          _RBCAPACITY
  X:0241H         SYMBOL        rb
  C:6341H         LINE#         45
  C:634CH         LINE#         46
  C:634CH         LINE#         47
  C:635AH         LINE#         48
  C:635AH         LINE#         49
  C:6361H         LINE#         50
  C:6361H         LINE#         52
  C:6375H         LINE#         53
  -------         ENDPROC       _RBCAPACITY
  C:4BE1H         SYMBOL        L?0055
  -------         PROC          L?0054
  -------         ENDPROC       L?0054
  C:4BE1H         SYMBOL        L?0055
  -------         PROC          _RBCANREAD
  X:023EH         SYMBOL        rb
  C:4BE9H         LINE#         55
  C:4BF4H         LINE#         56
  C:4BF4H         LINE#         57
  C:4C02H         LINE#         58
  C:4C02H         LINE#         59
  C:4C06H         LINE#         60
  C:4C06H         LINE#         62
  C:4C41H         LINE#         63
  C:4C41H         LINE#         64
  C:4C46H         LINE#         65
  C:4C46H         LINE#         67
  C:4C88H         LINE#         68
  C:4C88H         LINE#         69
  C:4CBFH         LINE#         70
  C:4CBFH         LINE#         72
  C:4D2CH         LINE#         73
  -------         ENDPROC       _RBCANREAD
  -------         PROC          _RBCANWRITE
  X:01A9H         SYMBOL        rb
  C:6269H         LINE#         75
  C:6274H         LINE#         76
  C:6274H         LINE#         77
  C:6282H         LINE#         78
  C:6282H         LINE#         79
  C:6289H         LINE#         80
  C:6289H         LINE#         82
  C:62B0H         LINE#         83
BL51 BANKED LINKER/LOCATER V6.22                                                      06/26/2019  15:58:54  PAGE 52


  -------         ENDPROC       _RBCANWRITE
  -------         PROC          _RBREAD
  X:0232H         SYMBOL        rb
  X:0235H         SYMBOL        gizdata
  X:0238H         SYMBOL        count
  -------         DO            
  X:023AH         SYMBOL        copySz
  -------         ENDDO         
  C:2791H         LINE#         85
  C:279CH         LINE#         86
  C:279CH         LINE#         87
  C:27A6H         LINE#         89
  C:27B4H         LINE#         90
  C:27B4H         LINE#         91
  C:27B6H         LINE#         92
  C:27B6H         LINE#         94
  C:27C4H         LINE#         95
  C:27C4H         LINE#         96
  C:27CBH         LINE#         97
  C:27CBH         LINE#         99
  C:2805H         LINE#         100
  C:2805H         LINE#         101
  C:2837H         LINE#         102
  C:286CH         LINE#         103
  C:288BH         LINE#         104
  C:288EH         LINE#         105
  C:288EH         LINE#         107
  C:288EH         LINE#         108
  C:290CH         LINE#         109
  C:290CH         LINE#         110
  C:291BH         LINE#         111
  C:2950H         LINE#         112
  C:296FH         LINE#         113
  C:2972H         LINE#         114
  C:2972H         LINE#         116
  C:2972H         LINE#         117
  C:29E5H         LINE#         118
  C:2A1AH         LINE#         119
  C:2A42H         LINE#         120
  C:2AB7H         LINE#         121
  C:2AC5H         LINE#         122
  C:2AC5H         LINE#         123
  C:2AC5H         LINE#         124
  -------         ENDPROC       _RBREAD
  -------         PROC          _RBWRITE
  X:019DH         SYMBOL        rb
  X:01A0H         SYMBOL        gizdata
  X:01A3H         SYMBOL        count
  -------         DO            
  X:01A5H         SYMBOL        tailAvailSz
  -------         ENDDO         
  C:340AH         LINE#         126
  C:3415H         LINE#         127
  C:3415H         LINE#         128
  C:341FH         LINE#         130
  C:3439H         LINE#         131
  C:3439H         LINE#         132
BL51 BANKED LINKER/LOCATER V6.22                                                      06/26/2019  15:58:54  PAGE 53


  C:343EH         LINE#         133
  C:343EH         LINE#         135
  C:3465H         LINE#         136
  C:3465H         LINE#         137
  C:346DH         LINE#         138
  C:346DH         LINE#         140
  C:34A7H         LINE#         141
  C:34A7H         LINE#         142
  C:351DH         LINE#         143
  C:353DH         LINE#         144
  C:353DH         LINE#         145
  C:356AH         LINE#         146
  C:3587H         LINE#         147
  C:35D1H         LINE#         148
  C:35D1H         LINE#         149
  C:35F9H         LINE#         150
  C:35F9H         LINE#         151
  C:3604H         LINE#         152
  C:3604H         LINE#         154
  C:3604H         LINE#         155
  C:3633H         LINE#         156
  C:365BH         LINE#         158
  C:36B9H         LINE#         159
  C:36B9H         LINE#         160
  C:36B9H         LINE#         162
  C:36B9H         LINE#         163
  C:36E6H         LINE#         164
  C:3703H         LINE#         165
  C:3706H         LINE#         166
  C:3706H         LINE#         167
  -------         ENDPROC       _RBWRITE
  -------         ENDMOD        RINGBUFFER

  -------         MODULE        DELAY
  C:0000H         SYMBOL        _ICE_DUMMY_
  C:0026H         PUBLIC        _User_Delay_Ms
  C:6600H         PUBLIC        _Delay_Us
  -------         PROC          _USER_DELAY_MS
  D:0006H         SYMBOL        Ms
  -------         DO            
  D:0004H         SYMBOL        k
  D:0001H         SYMBOL        i
  D:0003H         SYMBOL        j
  -------         ENDDO         
  C:0026H         LINE#         33
  C:0026H         LINE#         36
  C:0030H         LINE#         37
  C:0030H         LINE#         38
  C:0031H         LINE#         39
  C:0033H         LINE#         40
  C:0035H         LINE#         42
  C:0035H         LINE#         43
  C:0037H         LINE#         44
  C:0039H         LINE#         45
  C:0040H         LINE#         46
  -------         ENDPROC       _USER_DELAY_MS
  -------         PROC          _DELAY_US
BL51 BANKED LINKER/LOCATER V6.22                                                      06/26/2019  15:58:54  PAGE 54


  D:0006H         SYMBOL        Us
  -------         DO            
  D:0004H         SYMBOL        k
  D:0003H         SYMBOL        i
  -------         ENDDO         
  C:6600H         LINE#         56
  C:6600H         LINE#         59
  C:660AH         LINE#         60
  C:660AH         LINE#         61
  C:660CH         LINE#         62
  C:660EH         LINE#         63
  C:6615H         LINE#         64
  -------         ENDPROC       _DELAY_US
  -------         ENDMOD        DELAY

  -------         MODULE        ?C?FPADD
  C:004DH         PUBLIC        ?C?FPADD
  C:0049H         PUBLIC        ?C?FPSUB
  -------         ENDMOD        ?C?FPADD

  -------         MODULE        ?C?FPMUL
  C:013EH         PUBLIC        ?C?FPMUL
  -------         ENDMOD        ?C?FPMUL

  -------         MODULE        ?C?FPDIV
  C:0247H         PUBLIC        ?C?FPDIV
  -------         ENDMOD        ?C?FPDIV

  -------         MODULE        ?C?FPCMP
  C:02E6H         PUBLIC        ?C?FPCMP
  C:02E4H         PUBLIC        ?C?FPCMP3
  -------         ENDMOD        ?C?FPCMP

  -------         MODULE        ?C?FCAST
  C:035BH         PUBLIC        ?C?FCASTC
  C:0356H         PUBLIC        ?C?FCASTI
  C:0351H         PUBLIC        ?C?FCASTL
  -------         ENDMOD        ?C?FCAST

  -------         MODULE        ?C?CASTF
  C:038FH         PUBLIC        ?C?CASTF
  -------         ENDMOD        ?C?CASTF

  -------         MODULE        PRINTF
  X:0293H         PUBLIC        ?_PRINTF?BYTE
  X:0293H         PUBLIC        ?_SPRINTF?BYTE
  C:191BH         PUBLIC        _PRINTF
  C:1915H         PUBLIC        _SPRINTF
  -------         ENDMOD        PRINTF

  -------         MODULE        ?C?FPROUND
  C:0410H         PUBLIC        ?C?FPROUND
  -------         ENDMOD        ?C?FPROUND

  -------         MODULE        ?C?FPCONVERT
  C:044DH         PUBLIC        ?C?FPCONVERT
  -------         ENDMOD        ?C?FPCONVERT
BL51 BANKED LINKER/LOCATER V6.22                                                      06/26/2019  15:58:54  PAGE 55



  -------         MODULE        ?C?FTNPWR
  C:0582H         PUBLIC        ?C?FTNPWR
  -------         ENDMOD        ?C?FTNPWR

  -------         MODULE        ?C?COPY
  C:0692H         PUBLIC        ?C?COPY
  -------         ENDMOD        ?C?COPY

  -------         MODULE        ?C?CLDPTR
  C:06B8H         PUBLIC        ?C?CLDPTR
  -------         ENDMOD        ?C?CLDPTR

  -------         MODULE        ?C?CLDOPTR
  C:06D1H         PUBLIC        ?C?CLDOPTR
  -------         ENDMOD        ?C?CLDOPTR

  -------         MODULE        ?C?CILDPTR
  C:06FEH         PUBLIC        ?C?CILDPTR
  -------         ENDMOD        ?C?CILDPTR

  -------         MODULE        ?C?CSTPTR
  C:0720H         PUBLIC        ?C?CSTPTR
  -------         ENDMOD        ?C?CSTPTR

  -------         MODULE        ?C?CSTOPTR
  C:0732H         PUBLIC        ?C?CSTOPTR
  -------         ENDMOD        ?C?CSTOPTR

  -------         MODULE        ?C?IILDX
  C:0754H         PUBLIC        ?C?IILDX
  -------         ENDMOD        ?C?IILDX

  -------         MODULE        ?C?ILDIX
  C:076AH         PUBLIC        ?C?ILDIX
  -------         ENDMOD        ?C?ILDIX

  -------         MODULE        ?C?ILDPTR
  C:0780H         PUBLIC        ?C?ILDPTR
  -------         ENDMOD        ?C?ILDPTR

  -------         MODULE        ?C?ILDOPTR
  C:07ABH         PUBLIC        ?C?ILDOPTR
  -------         ENDMOD        ?C?ILDOPTR

  -------         MODULE        ?C?IILDOPTR
  C:07E3H         PUBLIC        ?C?IILDOPTR
  -------         ENDMOD        ?C?IILDOPTR

  -------         MODULE        ?C?ISTPTR
  C:0830H         PUBLIC        ?C?ISTPTR
  -------         ENDMOD        ?C?ISTPTR

  -------         MODULE        ?C?ISTOPTR
  C:084FH         PUBLIC        ?C?ISTOPTR
  -------         ENDMOD        ?C?ISTOPTR

BL51 BANKED LINKER/LOCATER V6.22                                                      06/26/2019  15:58:54  PAGE 56


  -------         MODULE        ?C?LMUL
  C:087CH         PUBLIC        ?C?LMUL
  -------         ENDMOD        ?C?LMUL

  -------         MODULE        ?C?ULDIV
  C:0907H         PUBLIC        ?C?ULDIV
  -------         ENDMOD        ?C?ULDIV

  -------         MODULE        ?C?SLDIV
  C:62B1H         PUBLIC        ?C?SLDIV
  -------         ENDMOD        ?C?SLDIV

  -------         MODULE        ?C?LNEG
  C:0999H         PUBLIC        ?C?LNEG
  -------         ENDMOD        ?C?LNEG

  -------         MODULE        ?C?SLCMP
  C:09A7H         PUBLIC        ?C?SLCMP
  -------         ENDMOD        ?C?SLCMP

  -------         MODULE        ?C?ULCMP
  C:09BDH         PUBLIC        ?C?ULCMP
  -------         ENDMOD        ?C?ULCMP

  -------         MODULE        ?C?ULSHR
  C:09CEH         PUBLIC        ?C?ULSHR
  -------         ENDMOD        ?C?ULSHR

  -------         MODULE        ?C?LSHL
  C:09E1H         PUBLIC        ?C?LSHL
  -------         ENDMOD        ?C?LSHL

  -------         MODULE        ?C?LLDOPTR
  C:09F4H         PUBLIC        ?C?LLDOPTR
  -------         ENDMOD        ?C?LLDOPTR

  -------         MODULE        ?C?LLDOPTR0
  C:0A24H         PUBLIC        ?C?LLDOPTR0
  -------         ENDMOD        ?C?LLDOPTR0

  -------         MODULE        ?C?LLDIXDATA
  C:0A5DH         PUBLIC        ?C?LLDIXDATA
  C:0A54H         PUBLIC        ?C?LLDIXDATA1
  C:0A56H         PUBLIC        ?C?LLDIXDATA8
  -------         ENDMOD        ?C?LLDIXDATA

  -------         MODULE        ?C?LSTXDATA
  C:0A89H         PUBLIC        ?C?LSTXDATA
  -------         ENDMOD        ?C?LSTXDATA

  -------         MODULE        ?C?LSTKXDATA
  C:0A95H         PUBLIC        ?C?LSTKXDATA
  -------         ENDMOD        ?C?LSTKXDATA

  -------         MODULE        ?C?LSTKPTR
  C:0AC6H         PUBLIC        ?C?LSTKPTR
  -------         ENDMOD        ?C?LSTKPTR
BL51 BANKED LINKER/LOCATER V6.22                                                      06/26/2019  15:58:54  PAGE 57



  -------         MODULE        ?C?OFFXADD
  C:0AE0H         PUBLIC        ?C?OFFXADD
  -------         ENDMOD        ?C?OFFXADD

  -------         MODULE        ?C?PLDIXDATA
  C:0AECH         PUBLIC        ?C?PLDIXDATA
  -------         ENDMOD        ?C?PLDIXDATA

  -------         MODULE        ?C?PSTXDATA
  C:0B03H         PUBLIC        ?C?PSTXDATA
  -------         ENDMOD        ?C?PSTXDATA

  -------         MODULE        ?C?PLDOPTR
  C:0B0CH         PUBLIC        ?C?PLDOPTR
  -------         ENDMOD        ?C?PLDOPTR

  -------         MODULE        ?C?PSTOPTR
  C:0B3CH         PUBLIC        ?C?PSTOPTR
  -------         ENDMOD        ?C?PSTOPTR

  -------         MODULE        ?C?CCASE
  C:0B95H         PUBLIC        ?C?CCASE
  -------         ENDMOD        ?C?CCASE

  -------         MODULE        TOUPPER
  C:6616H         PUBLIC        _toupper
  -------         ENDMOD        TOUPPER

  -------         MODULE        STRLEN
  C:000EH         PUBLIC        _STRLEN
  -------         ENDMOD        STRLEN

  -------         MODULE        ?C?MEMSET
  C:0BBBH         PUBLIC        ?C?MEMSET
  -------         ENDMOD        ?C?MEMSET

  -------         MODULE        ?C?LLDIDATA
  C:0BE7H         PUBLIC        ?C?LLDIDATA
  -------         ENDMOD        ?C?LLDIDATA

  -------         MODULE        ?C?LLDXDATA
  C:0BF3H         PUBLIC        ?C?LLDXDATA
  -------         ENDMOD        ?C?LLDXDATA

  -------         MODULE        ?C?LLDPDATA
  C:0BFFH         PUBLIC        ?C?LLDPDATA
  -------         ENDMOD        ?C?LLDPDATA

  -------         MODULE        ?C?LLDCODE
  C:0C0BH         PUBLIC        ?C?LLDCODE
  -------         ENDMOD        ?C?LLDCODE

  -------         MODULE        ?C?LLDIDATA0
  C:0C1BH         PUBLIC        ?C?LLDIDATA0
  -------         ENDMOD        ?C?LLDIDATA0

BL51 BANKED LINKER/LOCATER V6.22                                                      06/26/2019  15:58:54  PAGE 58


  -------         MODULE        ?C?LLDXDATA0
  C:0C28H         PUBLIC        ?C?LLDXDATA0
  -------         ENDMOD        ?C?LLDXDATA0

  -------         MODULE        ?C?LLDPDATA0
  C:0C34H         PUBLIC        ?C?LLDPDATA0
  -------         ENDMOD        ?C?LLDPDATA0

  -------         MODULE        ?C?LLDCODE0
  C:0C41H         PUBLIC        ?C?LLDCODE0
  -------         ENDMOD        ?C?LLDCODE0

  -------         MODULE        ?C?LSTKIDATA
  C:0C51H         PUBLIC        ?C?LSTKIDATA
  -------         ENDMOD        ?C?LSTKIDATA

  -------         MODULE        ?C?LSTKPDATA
  C:0C6AH         PUBLIC        ?C?LSTKPDATA
  -------         ENDMOD        ?C?LSTKPDATA

  -------         MODULE        ?C?PLDIDATA
  C:0C83H         PUBLIC        ?C?PLDIDATA
  -------         ENDMOD        ?C?PLDIDATA

  -------         MODULE        ?C?PSTIDATA
  C:0C8CH         PUBLIC        ?C?PSTIDATA
  -------         ENDMOD        ?C?PSTIDATA

  -------         MODULE        ?C?PLDXDATA
  C:0C95H         PUBLIC        ?C?PLDXDATA
  -------         ENDMOD        ?C?PLDXDATA

  -------         MODULE        ?C?PLDPDATA
  C:0C9EH         PUBLIC        ?C?PLDPDATA
  -------         ENDMOD        ?C?PLDPDATA

  -------         MODULE        ?C?PSTPDATA
  C:0CA7H         PUBLIC        ?C?PSTPDATA
  -------         ENDMOD        ?C?PSTPDATA

  -------         MODULE        ?C?PLDCODE
  C:0CB0H         PUBLIC        ?C?PLDCODE
  -------         ENDMOD        ?C?PLDCODE

*** WARNING L16: UNCALLED SEGMENT, IGNORED FOR OVERLAY PROCESS
    SEGMENT: ?PR?_DELAY_MS?MAIN

*** WARNING L16: UNCALLED SEGMENT, IGNORED FOR OVERLAY PROCESS
    SEGMENT: ?PR?GIZWITSGETNTP?GIZWITS_PROTOCOL

*** WARNING L16: UNCALLED SEGMENT, IGNORED FOR OVERLAY PROCESS
    SEGMENT: ?PR?GIZWITSGETMODULEINFO?GIZWITS_PROTOCOL

*** WARNING L16: UNCALLED SEGMENT, IGNORED FOR OVERLAY PROCESS
    SEGMENT: ?PR?_GIZWITSPASSTHROUGHDATA?GIZWITS_PROTOCOL

*** WARNING L16: UNCALLED SEGMENT, IGNORED FOR OVERLAY PROCESS
BL51 BANKED LINKER/LOCATER V6.22                                                      06/26/2019  15:58:54  PAGE 59


    SEGMENT: ?PR?_PRINTSTRING1?HAL_UART

*** WARNING L16: UNCALLED SEGMENT, IGNORED FOR OVERLAY PROCESS
    SEGMENT: ?PR?_PRINTSTRING2?HAL_UART

*** WARNING L16: UNCALLED SEGMENT, IGNORED FOR OVERLAY PROCESS
    SEGMENT: ?PR?KEY_INIT?HAL_KEY

*** WARNING L16: UNCALLED SEGMENT, IGNORED FOR OVERLAY PROCESS
    SEGMENT: ?PR?_CHAR2HEX?COMMON

*** WARNING L16: UNCALLED SEGMENT, IGNORED FOR OVERLAY PROCESS
    SEGMENT: ?PR?_CHECKSTRINGISNOTZERO?COMMON

*** WARNING L16: UNCALLED SEGMENT, IGNORED FOR OVERLAY PROCESS
    SEGMENT: ?PR?_RETURNWEEKDAY?COMMON

*** WARNING L16: UNCALLED SEGMENT, IGNORED FOR OVERLAY PROCESS
    SEGMENT: ?PR?_RETURNNTP2WT?COMMON

*** WARNING L16: UNCALLED SEGMENT, IGNORED FOR OVERLAY PROCESS
    SEGMENT: ?PR?_STR2HEX?COMMON

*** WARNING L16: UNCALLED SEGMENT, IGNORED FOR OVERLAY PROCESS
    SEGMENT: ?PR?_HEX2STR?COMMON

*** WARNING L16: UNCALLED SEGMENT, IGNORED FOR OVERLAY PROCESS
    SEGMENT: ?PR?_GIZX2Y?DATAPOINTTOOLS

*** WARNING L16: UNCALLED SEGMENT, IGNORED FOR OVERLAY PROCESS
    SEGMENT: ?PR?_GIZX2YFLOAT?DATAPOINTTOOLS

*** WARNING L16: UNCALLED SEGMENT, IGNORED FOR OVERLAY PROCESS
    SEGMENT: ?PR?_GIZVARLENCOMPRESSVALUE?DATAPOINTTOOLS

*** WARNING L16: UNCALLED SEGMENT, IGNORED FOR OVERLAY PROCESS
    SEGMENT: ?PR?_GIZVARLENDECOMPRESSIONVALUE?DATAPOINTTOOLS

*** WARNING L16: UNCALLED SEGMENT, IGNORED FOR OVERLAY PROCESS
    SEGMENT: ?PR?_RBDELETE?RINGBUFFER

*** WARNING L16: UNCALLED SEGMENT, IGNORED FOR OVERLAY PROCESS
    SEGMENT: ?PR?_DELAY_US?DELAY

*** WARNING L15: MULTIPLE CALL TO SEGMENT
    SEGMENT: ?PR?PRINTF?PRINTF
    CALLER1: ?PR?UART2_RCV?HAL_UART
    CALLER2: ?C_C51STARTUP

*** WARNING L15: MULTIPLE CALL TO SEGMENT
    SEGMENT: ?PR?_PUTCHAR?MAIN
    CALLER1: ?PR?UART2_RCV?HAL_UART
    CALLER2: ?C_C51STARTUP

*** WARNING L15: MULTIPLE CALL TO SEGMENT
    SEGMENT: ?PR?_RBCANREAD?RINGBUFFER
    CALLER1: ?PR?UART2_RCV?HAL_UART
BL51 BANKED LINKER/LOCATER V6.22                                                      06/26/2019  15:58:54  PAGE 60


    CALLER2: ?C_C51STARTUP

*** WARNING L15: MULTIPLE CALL TO SEGMENT
    SEGMENT: ?PR?_RBCAPACITY?RINGBUFFER
    CALLER1: ?PR?UART2_RCV?HAL_UART
    CALLER2: ?C_C51STARTUP

Program Size: data=21.5 xdata=1092 code=26317
LINK/LOCATE RUN COMPLETE.  23 WARNING(S),  0 ERROR(S)
