:1064D7004403A40000000042038800004203860032
:0164E70000B4
:0E6675009002C3EFF012669B9002C3E0FF227A
:106538001266C11265D21265B812668312665712C6
:1065480062F512621C1263F17B017A03798A121DCB
:036558003380EF9E
:0766C100D281D282D28322B4
:0E668300438902758A40758CA2D2A9D28C225E
:03000B00025AF1A5
:105AF100C0E0C0F0C083C082C0D075D000C000C07B
:105B010001C002C003C004C005C006C007900389DC
:105B1100E004F07006900388E004F0900388E070E0
:105B210004A3E064057009900388F0A3F012657B7B
:105B3100900387E004F07006900386E004F0C390C0
:105B41000387E094E8900386E094034015E4F0A312
:105B5100F030140E900438E004F0308005E0900439
:105B610039F0D007D006D005D004D003D002D0013F
:0D5B7100D000D0D0D082D083D0F0D0E03270
:10655B00E4FDFCC3ED9FEC9E5015E4FBFA0BBB0076
:0F656B00010AEB647B4A70F50DBD00010C80E462
:01657A0022FE
:105648004576743A204556454E545F506F776572DB
:105658005F6F6E202564200A004576743A2045560F
:10566800454E545F506F7765725F6F66662025649C
:10567800200A004576743A204556454E545F5265D7
:10568800736574202564200A005253534920256409
:105698000A005452414E53504152454E545F4441C2
:1056A8005441200A00574946495F4E5450203A2039
:1056B8005B25642D25642D256420253032643A2528
:1056C8003032643A253032645D5B25645D200A001F
:1056D8004D4F44554C4520494E464F202E2E2E0AFC
:1056E80000574946204D4F44554C45202E2E2E0A32
:1056F800006D6F64756C6554797065203A205B2580
:05570800645D200A00B1
:0B3C6C00900216EBF0A3EAF0A3E9F0D1
:103C7700E4900220F0900219E0F9A3E0FAA3E090A3
:103C87000221C9F0A3EAF0A3E9F0900219E0F9A331
:103C9700A3E0900224C9F0A3EAF0A3E9F090021987
:103CA700E0F9A3A3E0900227C9F0A3EAF0A3E9F0A3
:103CB700900219E0F9A3A3E090022AC9F0A3EAF061
:103CC700A3E9F0900216E0FBA3E0FAA3E04A4B60F9
:103CD7000CA3E0FBA3E0FAA3E04A4B70037FFF22AB
:103CE700E4900220F0900216E0FBA3E0FAA3E0F9CB
:103CF7001206B8FF900220E0FEC39F4003023EE495
:103D0700E92401F9E43AFAEE7E0029F9EE3AFA12CB
:103D170006B824F3B407004003023EDB903D31753B
:103D2700F003A4C58325F0C58373023E2C023E50E1
:103D3700023EAE023E47023D46023D90023DDC9008
:103D47000221E0FBA3E0FAA3E0F9120780FFAEF03F
:103D570090038AEEF0A3EFF07BFF7A567948900242
:103D670096EEF0A3EFF012191B90038AE07004A3FC
:103D7700E064016003023EDBC2817F207E03120004
:103D870026D281900440023E26900221E0FBA3E068
:103D9700FAA3E0F99000021207ABFFAEF090038C94
:103DA700EEF0A3EFF07BFF7A567961900296EEF082
:103DB700A3EFF012191B90038CE07004A3E06401D9
:103DC7006003023EDBC2827F207E03120026D2827E
:103DD70090043F804A900221E0FBA3E0FAA3E0F9B8
:103DE7009000041207ABFFAEF090038EEEF0A3EF46
:103DF700F07BFF7A56797B900296EEF0A3EFF012F4
:103E0700191B90038EE07004A3E064016003023E77
:103E1700DBC2837F207E03120026D28390043E7488
:103E270001F0023EDB900224E0FBA3E0FAA3E0F9F5
:103E37001206B8900296F07BFF7A567991023ED827
:103E47007BFF7A56799A023ED8900227E0FBA3E0DF
:103E5700FAA3E0F9120780FF900296E5F0F0A3EFCE
:103E6700F09000021206D1900298F090000312061B
:103E7700D1900299F09000041206D190029AF09026
:103E870000051206D190029BF09000061206D19011
:103E9700029CF09000071209F490029D120A897B98
:103EA700FF7A5679AD802A7BFF7A5679D812191B8B
:103EB7007BFF7A5679E912191B90022AE0FBA3E0EF
:103EC700FAA3E0F91206B8900296F07BFF7A5679CA
:0F3ED700F912191B900220E004F0023CEC7F006E
:013EE60022B9
:1063F100900440E0B40106D281E4F08007E4900308
:106401008AF0A3F090043FE0B40106D282E4F08068
:1064110007E490038CF0A3F090043EE0B40105D2B0
:0C64210083E4F022E490038EF0A3F0224C
:0F6657007E007F1A7D007B017A03798A020BBBDC
:10657B009003A4E0FCA3E0FDA3E0FEA3E02401FF55
:0F658B00E43EFEE43DFDE43CFC9003A4020A89DB
:0F6666009003A4E0FCA3E0FDA3E0FEA3E0FF226D
:0766C80053C7BF43C72022A6
:0F53CC00900290EBF0A3EAF0A3E9F0A3120A8994
:1053DB00900297120A9500000000900290E0FBA348
:1053EB00E0FAA3E04A4B700774FFFFFEFDFC22902E
:1053FB000297120A9500000000900293E0FCA3E0D4
:10540B00FDA3E0FEA3E0FFA3E0F8A3E0F9A3E0FA1D
:10541B00A3E0FBC31209BD40030254A7900297A35C
:10542B00A3E0FEA3E0FF900290E0FBA3E0FAA3E071
:10543B00F98F828E831206D1FF126691E47F02FEF2
:10544B00FDFC900297E0F8A3E0F9A3E0FAA3E0FBE0
:10545B00C31209BD4024900297A3A3E0FEA3E0FF73
:10546B00900290E0FBA3E0FAA3E0F98F828E831207
:10547B0006D1B4FF057F55126691900297E0FCA30D
:10548B00E0FDA3E0FEA3E02401FFE43EFEE43DFDCE
:10549B00E43CFC900297120A89025404900293E0B8
:0A54AB00FCA3E0FDA3E0FEA3E0FF78
:0154B50022D4
:100CBC004552523A2067697A5075744461746120C8
:100CCC0062756620697320656D707479200A004521
:100CDC0052523A204661696C656420746F207262CE
:100CEC005772697465200A004552523A2067697A36
:100CFC0050726F746F636F6C48656164496E697490
:100D0C00206865616420697320656D707479200AB0
:100D1C00004552523A206461746120697320656DFC
:100D2C00707479200A0067697A44617461506F6944
:100D3C006E74324576656E74204572726F72202C1B
:100D4C0020496C6C6567616C20506172616D0A00A2
:100D5C0067697A427974654F726465724578636825
:100D6C00616E6765204572726F720A0067697A431B
:100D7C006865636B5265706F7274204572726F7226
:100D8C00202C20496C6C6567616C20506172616D20
:100D9C000A0076616C7565506F7765725F6F6E20B7
:100DAC004368616E6765640A0076616C7565506FA7
:100DBC007765725F6F6666204368616E6765640A6B
:100DCC000076616C75655265736574204368616E5D
:100DDC006765640A0076616C75654350555F4441E4
:100DEC005441204368616E6765640A0076616C75D6
:100DFC00654D656D6F72795F444154412043686164
:100E0C006E6765640A0076616C7565435055325F98
:100E1C0044415441204368616E6765640A00766101
:100E2C006C7565435055335F4441544120436861B0
:100E3C006E6765640A0076616C7565435055345F66
:100E4C0044415441204368616E6765640A006769D8
:100E5C007A44617461506F696E7473325265706F4D
:100E6C00727444617461204572726F72202C204937
:100E7C006C6C6567616C20506172616D0A0067690A
:100E8C007A50726F746F636F6C49737375656450CD
:100E9C00726F63657373204572726F72202C2049D8
:100EAC006C6C6567616C20506172616D0A005B450A
:100EBC0052525D202064617461204973204E756C20
:100ECC006C200A006C656E203D202564202C20735C
:100EDC004469644C656E203D202564202C6461744B
:100EEC00615F6C656E203D2025640A00756172742B
:100EFC00207772697465206572726F722025642088
:100F0C000A0067697A5265706F727444617461206B
:100F1C004572726F72202C20496C6C6567616C2075
:100F2C00506172616D0A004552523A2075617274BB
:100F3C00207772697465206572726F722025642047
:100F4C000A006368616E6765642C207265706F724D
:100F5C007420646174610A00496E666F3A20363001
:100F6C003053207265706F727420646174610A0072
:100F7C0067697A50726F746F636F6C4765744F6EEC
:100F8C00655061636B6574204572726F72202C2002
:100F9C00496C6C6567616C20506172616D0A005719
:100FAC0061726E696E673A2074696D656F75742C29
:100FBC0020726573656E642064617461200A00455B
:100FCC0052523A20726573656E64206461746120BC
:100FDC006572726F720A004552523A2067697A50F4
:100FEC00726F746F636F6C436F6D6D6F6E41636B7B
:100FFC00206461746120697320656D707479200AB6
:10100C00005761726E696E673A67697A50726F74D5
:10101C006F636F6C526573656E64446174612025F7
:10102C00642025642025640A0067697A50726F7405
:10103C006F636F6C476574446576696365496E666A
:10104C006F204572726F72202C20496C6C65676141
:10105C006C20506172616D0A0030303030303030AD
:10106C0034003030303030303032003033303130CA
:10107C00313031003033303130313030006239357D
:10108C003437373034333537663436633738646643
:10109C00623365323030633737666366310037341C
:1010AC00636331616537323538663462643539666D
:1010BC0062363232646364363562613631610067A0
:1010CC00697A50726F746F636F6C4572726F724392
:1010DC006D64204572726F72202C20496C6C6567B0
:1010EC00616C20506172616D0A004552523A204E7B
:1010FC00545020697320656D707479200A006769FB
:10110C007A50726F746F636F6C4D6F64756C65534E
:10111C007461747573204572726F72202C20496C47
:10112C006C6567616C20506172616D0A004F6E4294
:10113C006F617264696E673A20536F667441502018
:10114C006F7220576562206D6F64650A004F6E42A6
:10115C006F617264696E673A204169724C696E6B9B
:10116C00206D6F64650A004F6E426F617264696E28
:10117C00673A2053746174696F6E206D6F64650AF1
:10118C000057694669207374617475733A20696EEF
:10119C002062696E64696E67206D6F64650A005722
:1011AC00694669207374617475733A206F75742085
:1011BC0062696E64696E67206D6F64650A005769B9
:1011CC004669207374617475733A20636F6E6E6533
:1011DC006374656420726F757465720A0057694692
:1011EC0069207374617475733A20646973636F6EEC
:1011FC006E656374656420726F757465720A00574E
:10120C00694669207374617475733A20636F6E6EEE
:10121C006563746564206D326D0A005769466920F8
:10122C007374617475733A20646973636F6E6E6561
:10123C0063746564206D326D0A00576946692073CA
:10124C0074617475733A2061707020636F6E6E6593
:10125C0063740A0057694669207374617475733A34
:10126C00206E6F2061707020636F6E6E6563740A00
:10127C000057694669207374617475733A20696EFE
:10128C002074657374206D6F64650A005769466934
:10129C00207374617475733A206F75742074657360
:1012AC0074206D6F64650A00525353492069732092
:1012BC002564200A0072624372656174652053755F
:1012CC006363657373200A007262437265617465AF
:1012DC00204661696C64200A004552523A204366EC
:1012EC00674D6F6465206572726F72210A004552FA
:1012FC00525B4E54505D3A2075617274207772695E
:10130C007465206572726F72202564200A004E5439
:10131C005020697320656D707479200A0047697AD2
:10132C007769747348616E646C65204572726F7274
:10133C00202C20496C6C6567616C20506172616D6A
:10134C000A00476574204F6E65205061636B6574AD
:10135C00210A00666C6167202578202578200A0018
:10136C0041636B44617461203A200A007265706FAE
:10137C0072743A4D4355207265626F6F74210A0086
:10138C0041636B2050524F44554354494F4E5F4D6F
:10139C004F44452073756363657373200A00416382
:1013AC006B204745545F55545420737563636573C4
:1013BC0073200A0041636B204745545F4D6F647581
:1013CC006C652073756363657373200A0045525214
:1013DC003A20636D6420636F6465206572726F726E
:1013EC00210A004552523A20636865636B2073757D
:1013FC006D206572726F72210A005B4552525D203E
:10140C0067697A77697473506173737468726F75F6
:0F141C00676844617461204572726F72200A0024
:1064E80044000000000000440004000000004100D7
:0F64F8000800420009000041000B0041000C00A9
:0F588100900192EBF0A3EAF0A3E9F0A3120A89D9
:10589000900199120A9500000000900192E0FBA38C
:1058A000E0FAA3E04A4B70087BFF7A0C79BC805D7C
:1058B000900192E0F9A3E0FAA3E09001A0C9F0A35F
:1058C000EAF0A3E9F0900195A3A3E0FFA3E0900123
:1058D000A3CFF0A3EFF07B017A00790F12340A9086
:1058E0000199120A89900199E0FCA3E0FDA3E0FE72
:1058F000A3E0FF900195E0F8A3E0F9A3E0FAA3E0AC
:10590000FBC31209BD60107BFF7A0C79DB12191BF7
:1059100074FFFFFEFDFC22900199E0FCA3E0FDA3D3
:05592000E0FEA3E0FF22
:01592500225F
:0660F1007B017A0179DD5C
:1060F700900290EBF0A3EAF0A3E9F0900290E0FBA6
:10610700A3E0FAA3E04A4B700C7BFF7A0C79F412F8
:10611700191B7FFF227E007F087D00900290E0FB25
:10612700A3E0FAA3E0F9120BBB900290E0FBA3E017
:10613700FAA3E0F974FF120720900290E0FBA3E0B6
:0F614700FAA3E0F990000174FF1207327F0022E3
:065E1F007E007D007C0006
:105E2500900239EBF0A3EAF0A3E9F0A3120A8990F6
:105E35000239E0FBA3E0FAA3E04A4B700C7BFF7A42
:105E45000D791D12191B7FFF227E007F237D007BAC
:105E5500017A00795D120BBB90023CA3A3E0FEA37F
:105E6500E0FF785F7C007D01900239E0FBA3E0FA5A
:105E7500A3E0F912069290023CA3A3E0FFA3E090F1
:105E8500007ACFF0A3EFF090005E7401F012666621
:095E950090007C120A897F0022B2
:10413D00900227EBF0A3EAF0A3E9F0900227E0FB51
:10414D00A3E0FAA3E04A4B6018A3E0FBA3E0FAA3B7
:10415D00E04A4B600CA3E0FBA3E0FAA3E04A4B70EE
:10416D000C7BFF7A0D793212191B7FFF22900227EB
:10417D00E0FBA3E0FAA3E0F91206B820E003024247
:10418D002190022AE0FBA3E0FAA3E02401F9E43A2E
:10419D00FAC002C00190022AA3E0FAA3E0F91206C8
:1041AD00B87E00D001D00229F9EE3AFA7411120747
:1041BD002090022AE0FBA3E0FAA3E0F974011206B5
:1041CD00FE900234120A9500000000900238120A87
:1041DD009500000001900227E0FBA3E0FAA3E02484
:1041ED0001F9E43AFA90023CEBF0A3EAF0A3E9F00E
:1041FD00A3120A95000000017F007E007D007C0067
:10420D0012438090022DE0FBA3E0FAA3E0F9EE8FBC
:10421D00F0120830900227E0FBA3E0FAA3E0F912B8
:10422D0006B8FFC31320E0030242CE90022AE0FB42
:10423D00A3E0FAA3E02401F9E43AFAC002C0019028
:10424D00022AA3E0FAA3E0F91206B87E00D001D04D
:10425D000229F9EE3AFA741212072090022AE0FBB5
:10426D00A3E0FAA3E0F974011206FE900234120ADB
:10427D009500000001900238120A9500000001908F
:10428D000227E0FBA3E0FAA3E02401F9E43AFA9057
:10429D00023CEBF0A3EAF0A3E9F0A3120A950000AB
:1042AD0000017F007E007D007C0012438090022D76
:1042BD00E0FBA3E0FAA3E0F9900002EE8FF0120804
:1042CD004F900227E0FBA3E0FAA3E0F91206B8FF36
:1042DD001313543F20E00302437D90022AE0FBA319
:1042ED00E0FAA3E02401F9E43AFAC002C001900219
:1042FD002AA3E0FAA3E0F91206B87E00D001D0029D
:10430D0029F9EE3AFA741312072090022AE0FBA362
:10431D00E0FAA3E0F974011206FE900234120A9538
:10432D0000000002900238120A9500000001900270
:10433D0027E0FBA3E0FAA3E02401F9E43AFA9002A6
:10434D003CEBF0A3EAF0A3E9F0A3120A95000000FC
:10435D00017F007E007D007C0012438090022DE0E5
:10436D00FBA3E0FAA3E0F9900004EE8FF012084FE2
:03437D007F00229C
:0B2AC60090021DEBF0A3EAF0A3E9F082
:102AD100E4900223F0A3120A950000000090021D69
:102AE100E0FBA3E0FAA3E04A4B600CA3E0FBA3E008
:102AF100FAA3E04A4B700C7BFF7A0D797812191B0F
:102B01007FFF22126666900224120A8990021DE05C
:102B1100FBA3E0FAA3E0F9120780FFAEF0900220D8
:102B2100E0FBA3E0FAA3E0F91207806F7003E5F080
:102B31006E600F7BFF7A0D799E12191B9002237430
:102B410001F090021DE0FBA3E0FAA3E0F99000027E
:102B51001207ABFFAEF0900220E0FBA3E0FAA3E086
:102B6100F99000021207AB6F7003E5F06E600F7B06
:102B7100FF7A0D79B512191B9002237401F09002AE
:102B81001DE0FBA3E0FAA3E0F99000041207ABFFFC
:102B9100AEF0900220E0FBA3E0FAA3E0F99000047C
:102BA1001207AB6F7003E5F06E600F7BFF7A0D7952
:102BB100CD12191B9002237401F090021DE0FBA3BA
:102BC100E0FAA3E0F99000061209F4900220E0FB7C
:102BD100A3E0FAA3E0F9900006120A24C31209BD8A
:102BE1006043900000E0F8A3E0F9A3E0FAA3E0FB62
:102BF100900224E0FCA3E0FDA3E0FEA3E0C39BFF61
:102C0100EE9AFEED99FDEC98FCE47B707A17F9F8E9
:102C1100D31209BD500F7BFF7A0D79E112191B9078
:102C210002237401F090021DE0FBA3E0FAA3E0F996
:102C310090000A1209F4900220E0FBA3E0FAA3E05D
:102C4100F990000A120A241202E46043900000E0A5
:102C5100F8A3E0F9A3E0FAA3E0FB900224E0FCA3CF
:102C6100E0FDA3E0FEA3E0C39BFFEE9AFEED99FD1C
:102C7100EC98FCE47B707A17F9F8D31209BD500F78
:102C81007BFF7A0D79F812191B9002237401F090E1
:102C9100021DE0FBA3E0FAA3E0F990000E1209F493
:102CA100900220E0FBA3E0FAA3E0F990000E120AE3
:102CB10024C31209BD6043900000E0F8A3E0F9A32A
:102CC100E0FAA3E0FB900224E0FCA3E0FDA3E0FE18
:102CD100A3E0C39BFFEE9AFEED99FDEC98FCE47B2B
:102CE100707A17F9F8D31209BD500F7BFF7A0E796C
:102CF1001212191B9002237401F090021DE0FBA334
:102D0100E0FAA3E0F99000121209F4900220E0FB2E
:102D1100A3E0FAA3E0F9900012120A24C31209BD3C
:102D21006043900000E0F8A3E0F9A3E0FAA3E0FB20
:102D3100900224E0FCA3E0FDA3E0FEA3E0C39BFF1F
:102D4100EE9AFEED99FDEC98FCE47B707A17F9F8A8
:102D5100D31209BD500F7BFF7A0E792A12191B90ED
:102D610002237401F090021DE0FBA3E0FAA3E0F955
:102D71009000161209F4900220E0FBA3E0FAA3E010
:102D8100F9900016120A24C31209BD604390000095
:102D9100E0F8A3E0F9A3E0FAA3E0FB900224E0FC51
:102DA100A3E0FDA3E0FEA3E0C39BFFEE9AFEED9935
:102DB100FDEC98FCE47B707A17F9F8D31209BD5049
:102DC1000F7BFF7A0E794212191B9002237401F0D6
:102DD100900223E0B40109126666900000120A898C
:052DE100900223E0FF59
:012DE60022CA
:1039C60090022A7401F0A37400F0A374D4F090025C
:0939D60016E0FBA3E0FAA3E0F9FE
:1039DF00900227EBF0A3EAF0A3E9F0900227E0FBB7
:1039EF00A3E0FAA3E04A4B600CA3E0FBA3E0FAA329
:1039FF00E04A4B700C7BFF7A0E795A12191B7FFF2E
:103A0F00227E007F017D0090022AE0FBA3E0FAA353
:103A1F00E0F9120BBB900231120A950000000090E2
:103A2F000235120A950000000190022AE0F9A3E086
:103A3F00FAA3E0900239C9F0A3EAF0A3E9F09002EB
:103A4F0027E0FBA3E0FAA3E0F9120780FFAEF0EE48
:103A5F003395E0FDFC90023C120A897F007E007DC9
:103A6F00007C00124D2D900231120A9500000001CA
:103A7F00900235120A950000000190022AE0F9A386
:103A8F00E0FAA3E0900239C9F0A3EAF0A3E9F090BD
:103A9F000227E0FBA3E0FAA3E0F99000021207ABC4
:103AAF00FFAEF0EE3395E0FDFC90023C120A897FE9
:103ABF00007E007D007C00124D2D900231120A9580
:103ACF0000000002900235120A95000000019002DA
:103ADF002AE0F9A3E0FAA3E0900239C9F0A3EAF0D3
:103AEF00A3E9F0900227E0FBA3E0FAA3E0F990002E
:103AFF00041207ABFFAEF0EE3395E0FDFC90023CF5
:103B0F00120A897F007E007D007C00124D2D9002ED
:103B1F002AE0FBA3E0FAA3E0F97F017E007D007CA1
:103B2F0000124E80900231120A95000000009002A0
:103B3F0027E0FBA3E0FAA3E0F99000061209F49046
:103B4F000235120A897F017E007D007C001263B46A
:103B5F0090022AE0FBA3E0FAA3E0F9900001EF1234
:103B6F000732900231120A9500000000900227E000
:103B7F00FBA3E0FAA3E0F990000A1209F4900235D2
:103B8F00120A897FCD7ECC7DCC7C3D126468900279
:103B9F002AE0FBA3E0FAA3E0F9900002EF1207324C
:103BAF00900231120A9500000001900227E0FBA35A
:103BBF00E0FAA3E0F990000E1209F4900235120A10
:103BCF00897F017E007D007C001263B490022AE0A1
:103BDF00FBA3E0FAA3E0F9900003EF120732900283
:103BEF0031120A9500000001900227E0FBA3E0FAD2
:103BFF00A3E0F99000121209F4900235120A897F9E
:103C0F00017E007D007C001263B490022AE0FBA3CA
:103C1F00E0FAA3E0F9900004EF120732900231129C
:103C2F000A9500000001900227E0FBA3E0FAA3E051
:103C3F00F99000161209F4900235120A897F017E5D
:103C4F00007D007C001263B490022AE0FBA3E0FA2F
:0D3C5F00A3E0F9900005EF1207327F00226C
:0B477400900216EBF0A3EAF0A3E9F0BE
:10477F00A3E0FBA3E0FAA3E0F91206B8900226F03B
:10478F00900219A3A3E04A4B601A900220E0FBA30A
:10479F00E0FAA3E04A4B600CA3E0FBA3E0FAA3E02E
:1047AF004A4B700C7BFF7A0E798A12191B7FFF22FE
:1047BF00900216E0FBA3E0FAA3E04A4B6003024924
:1047CF0010FE7F15FD7B017A007980120BBB9002E2
:1047DF0026E024FE604824FD700302489024046004
:1047EF0003024910900219E0FBA3E0FAA3E02401B1
:1047FF00F9E43AFA90022A7401F0A37400F0A3745A
:10480F0080F0A37401F0A37400F0A374DAF01241E6
:10481F003D90001A7401F0900220140248FB9002A0
:10482F002A7401F0A37400F0A374D4F07B017A0012
:10483F0079F41239DFEF7046900220E0FBA3E0FA23
:10484F00A3E02401F9E43AA801FCAD037B017A004F
:10485F0079D47E007F06120692900220E0FBA3E03F
:10486F00FAA3E0F97403120720900223E0FBA3E000
:10487F00FAA3E0F9120AC6000000070249107FFFF1
:10488F002290021CA3A3E0FEA3E024FFFFEE34FF5F
:10489F00FE900219E0FBA3E0FAA3E02401F9E43A49
:1048AF00FA78367C007D0112069290021CE0FCA380
:1048BF00E0FDA3E0FEA3E024FFFFEE34FFFEED34A6
:1048CF00FFFDEC34FFFC900051120A89900080E04C
:1048DF002481F582E43400F5837410F0900080E0B9
:1048EF0004F090001A7403F0900220E4F0A3F0A3F8
:1048FF00F0A3E0FBA3E0FAA3E0F9120AC600000060
:03490F00007F0026
:014912002282
:0B30FB00900216EBF0A3EAF0A3E9F04E
:10310600900221120A950000000090025B120A95B7
:1031160000000000E490025FF0A3F0A3F0A304F027
:10312600A37402F0A37425F0900219E0FBA3E0FA61
:10313600A3E04A4B700E7BFF7A0E79BA12191B7404
:10314600FF023405900220E0B4012C900216E0FB49
:10315600A3E0FAA3E0F99000081206D190025FF00E
:10316600FB90021CA3A3E0FEA3E0FFEB2406FDE414
:1031760033CD2FFFED800D90021CA3A3E0FEA3E04C
:103186002405FFE43E900260F0A3EFF07BFF7A0E89
:1031960079D090021CE0FCA3E0FDA3E0FEA3E0FFD3
:1031A600900296120A8990025FE090029AF09002CD
:1031B60060E0FFA3E090029BCFF0A3EFF012191B93
:1031C600900262E0FBA3E475F00112076AA9F0FA27
:1031D60074FF120720900262E0FBA3E475F001126F
:1031E600076AA9F0FA74FF120720900260E0FF90C8
:1031F6000262E0FBA3E475F00112076AA9F0FAEF98
:10320600120720900260A3E0FFA3E0FBA3E475F0A1
:103216000112076AA9F0FAEF120720900216E0FBE6
:10322600A3E0FAA3E0F99000041206D104FF90028D
:1032360062E0FBA3E475F00112076AA9F0FAEF1247
:103246000720900216E0FBA3E0FAA3E0F990000540
:103256001206D1FF900262E0FBA3E475F0011207AB
:103266006AA9F0FAEF120720900262E0FBA3E47568
:10327600F00112076AA9F0FAE4120720900220E092
:10328600FF900262E0FBA3E475F00112076AA9F061
:10329600FAEF12072090025B120A950000000890D0
:1032A6000220E06401600302334D90025FE0FF906C
:1032B6000262E0FBA3E475F00112076AA9F0FAEFD7
:1032C60012072090025BE0FCA3E0FDA3E0FEA3E072
:1032D6002401FFE43EFEE43DFDE43CFC90025B126B
:1032E6000A8990025FE0FF7E00900216E0FBA3E0F1
:1032F600FAA3E02409F9E43AFAC00190025BA3A319
:10330600A3E02425F9E43402A801FC7D01D00112D2
:10331600069290025BE0F8A3E0F9A3E0FAA3E0FBD3
:10332600A3E0FFE4FCFDFEEB2FFFEE3AFEED39FDD8
:10333600EC38FC90025B120A8990025FE0FF900273
:1033460063E48FF0120754E4FFFEFDFC90021CE0DC
:10335600F8A3E0F9A3E0FAA3E0FBC31209BD602AD3
:1033660090021CA3A3E0FEA3E0FF90025BA3A3A32D
:10337600E02425F9E43402A801FC7D01900219E05D
:10338600FBA3E0FAA3E0F91206927B017A02792503
:10339600900261E02404FF900260E03400FEE4FC49
:1033A600FD12570D900260E0FCA3E0FD2428F58293
:1033B600E43402F583EFF07B017A027925ED2404EB
:1033C600FFE43CFEE4FCFD1253CC900221120A8974
:1033D600900221E0FCA3E0FDA3E0FEA3E0FFEC33B6
:1033E600501C7BFF7A0E79F8900221A3A3A3E090EC
:1033F6000296120A8912191B74FF7FFE8002E4FFEF
:03340600FEFDFCCC
:0134090022A0
:0E51DC0090021DEFF0A3EBF0A3EAF0A3E9F0C0
:1051EA00900225120A950000000090021EE0FBA31F
:1051FA00E0FAA3E04A4B700F7BFF7A0F790E12197F
:10520A001B74FFFF0252B97B017A0279291260F7F7
:10521A0090022D7405F0900055120A5490022EEF58
:10522A00F090021DE0900231F07F0C7E001266B809
:10523A0090022BEEF0A3EFF0900221A3A3E0FEA3CD
:10524A00E0FF78327C027D0190021EE0FBA3E0FAC7
:10525A00A3E0F91206927B017A0279297F107E0077
:10526A007D007C0012570D900238EFF07B017A0224
:10527A0079297F107E007D007C001253CC90022594
:10528A00120A89900225E0FCA3E0FDA3E0FEA3E058
:10529A00FFEC33501E7BFF7A0F7933900225A3A3CC
:1052AA00A3E0900296120A8912191B74FF7FFEFE70
:1052BA00FDFC227B017A0279297F10125E1F90027F
:0C52CA0025E0FCA3E0FDA3E0FEA3E0FF54
:0152D60022B5
:0B50CC00900216EBF0A3EAF0A3E9F05D
:1050D700126666900219120A899002207401F0A3E1
:1050E7007400F0A374F4F0900216E0FBA3E0FAA3B7
:1050F700E0F9122AC6EF6401703C7BFF7A0F794E04
:1051070012191B1239C6EF70157B017A0079D490FA
:105117000221120A95000000067F041251DC78F480
:105127007C007D01900216E0FBA3E0FAA3E0F97E84
:10513700007F1A1206927BC07A27790978009002BD
:1051470019E0FCA3E0FDA3E0FEA3E0FF120907AC12
:1051570000AD01AE02AF03E4FBFAF9F8C31209BDD3
:105167007072900219E0FCA3E0FDA3E0FEA3E0FF4C
:10517700900004E0F8A3E0F9A3E0FAA3E0FBC31270
:1051870009BD60507BFF7A0F796412191B1239C66B
:10519700EF70157B017A0079D4900221120A9500ED
:1051A7000000067F041251DC78F47C007D01900238
:1051B70016E0FBA3E0FAA3E0F97E007F1A1206923D
:1051C700900219E0FCA3E0FDA3E0FEA3E0FF90003E
:0451D70004120A892B
:0151DB0022B1
:0B2DE700900216EBF0A3EAF0A3E9F065
:102DF20090021F120A9500000000E4900223F0A343
:102E0200120A9500000000E4900229F0A3F0A3F05A
:102E1200900219E0F9A3E0FAA3E090022CC9F0A312
:102E2200EAF0A3E9F0A3E4F0A3F0A3F0900216E025
:102E3200FBA3E0FAA3E04A4B6018A3E0FBA3E0FA8D
:102E4200A3E04A4B600CA3E0FBA3E0FAA3E04A4BE9
:102E5200700C7BFF7A0F797C12191B7FFF22900284
:102E620016E0FBA3E0FAA3E0F9124BE9900229EF86
:102E7200F070037FFF22900224120A9500000000E6
:102E8200900229E0FFE4FCFDFE900224E0F8A3E0BA
:102E9200F9A3E0FAA3E0FBC31209A74003023046FC
:102EA2009002357401F0A37402F0A37428F0A3E435
:102EB200F0A304F0900216E0FBA3E0FAA3E0F912FB
:102EC200279190021F120A8990021FE0FCA3E0FDE5
:102ED200A3E0FEA3E0FFEC4D4E4F700302301E90C4
:102EE200000BE0F46003022F82900228E0F46003FA
:102EF200022F82900008E0703490022CE0FBA3E0E5
:102F0200FAA3E0F974FF12072090022CE0FBA3E081
:102F1200FAA3E0F990000174FF120732900009E46D
:102F2200F0A37402F090000814F00230129000092D
:102F3200E0FEA3E0FFD39404EE94005003023012AB
:102F420090022AE0FCA3E0FDEF6D7002EE6C7003CC
:102F5200023012A3E0FBA3E0FAA3E0F974FF120728
:102F62002090022CE0FBA3E0FAA3E0F990000174A8
:102F7200FF120732900009E4F0A37402F00230124B
:102F820090000BE0B4FF0B900228E064557003023E
:102F92003012900008E064017076900228E0FF9001
:102FA200022CE0FBA3E0FAA3E0F9900009E0FCA305
:102FB200E0F5828C83EF12073290000AE004F07091
:102FC20006900009E004F0D390000AE09404900017
:102FD20009E09400403A90022CE0FBA3E0FAA3E05F
:102FE200F9A3EBF0A3EAF0A3E9F09000021207AB19
:102FF200FFAEF01266B8EF2404FFE43EFE90022A10
:10300200F0A3EFF0900009E06E7003A3E06F60346C
:10301200900228E090000BF0A3E004F0900224E07C
:10302200FCA3E0FDA3E0FEA3E0FFE4FAF9F8EF243D
:1030320001FFEA3EFEE93DFDE83CFC900224120A53
:1030420089022E82900009E0FEA3E0FFD39404EEF1
:10305200940050030230F890022AE0FCA3E0FDEF56
:103062006D7002EE6C60030230F8A3E0FBA3E0FA9D
:10307200A3E0F9900009A3E4FCFD12570D9002238E
:10308200EFF090022CE0FBA3E0FAA3E0F990000A33
:10309200E024FFFD900009E034FF8D82F5831206E3
:1030A200D16F704F90022AE0FEA3E0FF900219E078
:1030B200FBA3E0FAA3E0F8AC02AD0390022CE0FB24
:1030C200A3E0FAA3E012069290022AE0F9A3E0FF3D
:1030D20090021CE0FBA3E0FAA3E0C98FF0120830D3
:1030E200E4900008F0A3F0A3F090000CF090000B25
:0830F200F0FF227FFE227F01A6
:0130FA0022B3
:10615600900216120A950000000090005EE060545E
:106166007BFF7A0F79AB12191B7B017A00795F905E
:10617600007AE0FEA3E0FFE4FCFD1253CC90021689
:10618600120A8990007AE0FEA3E0FFE4FCFD90028B
:1061960016E0F8A3E0F9A3E0FAA3E0FBC31209A70F
:1061A60060097BFF7A0F79CB12191B126666900085
:0461B6007C120A89C4
:0161BA0022C2
:0B5E9E0090020EE0FBA3E0FAA3E0F985
:0B5EA900900216EBF0A3EAF0A3E9F072
:105EB400A37401F0A37400F0A3745FF0900216E0E1
:105EC400FBA3E0FAA3E04A4B700C7BFF7A0D791D2B
:105ED40012191B7FFF22900219E0FBA3E0FAA3E052
:105EE400F99000041206D12401FFE433FE90021657
:105EF400E0FBA3E0FAA3E0F99000041206D17C00D1
:105F0400B50713ECB5060F7E007F237D007B017A75
:085F140000795D120BBB7F0058
:015F1C002262
:0B55820090020EE0FBA3E0FAA3E0F9AA
:0B558D00900216EBF0A3EAF0A3E9F097
:10559800A3120A9500000000900216E0FBA3E0FAAF
:1055A800A3E04A4B70107BFF7A0F79E312191B7442
:1055B800FFFFFEFDFC22781D7C027D01900216E0B3
:1055C800FBA3E0FAA3E0F97E007F0812069290029E
:1055D80021E004F07F057E001266B890021FEEF00D
:1055E800A3EFF07B017A02791D7F097E007D007CA4
:1055F8000012570D900225EFF07B017A02791D7F8A
:10560800097E007D007C001253CC900219120A8991
:10561800900219E0FCA3E0FDA3E0FEA3E0FFEC3359
:10562800500F7BFF7A0F7933900296120A8912196C
:0F5638001B900219E0FCA3E0FDA3E0FEA3E0FF3E
:015647002240
:105D1A0090005EE06401707C90005DE0FF7402D345
:105D2A009F406212666690007CE0F8A3E0F9A3E067
:105D3A00FAA3E0FBC3EF9BFFEE9AFEED99FDEC9808
:105D4A00FCE47BC8FAF9F8C31209BD50471266662B
:105D5A00900296120A897BFF7A10790D90007CE0F6
:105D6A00FCA3E0FDA3E0FEA3E0FF90029A120A89D9
:105D7A0090005DE090029EF012191B12615690008D
:105D8A005DE004F0227E007F237D007B017A0079AA
:055D9A005D120BBB22AD
:0B4A7C00900216EBF0A3EAF0A3E9F0B3
:104A8700A3120A9500000000900216E0FBA3E0FACB
:104A9700A3E04A4B70107BFF7A10793512191B740B
:104AA700FFFFFEFDFC227B017A02791D1260F79061
:104AB70002217402F0900216E0FBA3E0FAA3E0F9EA
:104AC7009000051206D1900222F078257C027D0124
:104AD7007BFF7A1079657E007F08120692782D7C1D
:104AE700027D017BFF7A10796E7E007F08120692A5
:104AF700783D7C027D017BFF7A1079777E007F0805
:104B070012069278357C027D017BFF7A1079807ED0
:104B1700007F081206927BFF7A10798912000E78BF
:104B2700457C027D017BFF7A1079891206927BFF13
:104B37007A1079AA12000E786F7C027D017BFF7ACA
:104B47001079AA1206927E007F087D007B017A0207
:104B57007967120BBB90026EE0F04402F0E4FFFEAF
:104B67001266B8900265EEF0A3EFF07F6F7E001239
:104B770066B890021FEEF0A3EFF07B017A02791D71
:104B87007F737E007D007C0012570D90028FEFF03F
:104B97007B017A02791D7F737E007D007C001253B2
:104BA700CC900219120A89900219E0FCA3E0FDA338
:104BB700E0FEA3E0FFEC33500F7BFF7A0F793390D1
:104BC7000296120A8912191B900219E0FCA3E0FD54
:064BD700A3E0FEA3E0FFD5
:014BDD0022B5
:0E54B600900216EBF0A3EAF0A3E9F0A3EDF0EC
:1054C400A3120A9500000000900216E0FBA3E0FA84
:1054D400A3E04A4B70107BFF7A1079CB12191B742E
:1054E400FFFFFEFDFC227B017A02791E1260F79019
:1054F40002227412F0900216E0FBA3E0FAA3E0F992
:105504009000051206D1900223F07F067E001266F9
:10551400B8900220EEF0A3EFF0900219E09002267A
:10552400F07B017A02791E7F0A7E007D007C0012E6
:10553400570D900227EFF07B017A02791E7F0A7ED5
:10554400007D007C001253CC90021A120A8990024A
:105554001AE0FCA3E0FDA3E0FEA3E0FFEC33500F50
:105564007BFF7A0F7933900296120A8912191B90E5
:0D557400021AE0FCA3E0FDA3E0FEA3E0FFAF
:015581002207
:0B5A5D00900216EBF0A3EAF0A3E9F0C2
:105A6800A3EBF0A3EAF0A3E9F0900216E0FBA3E0B1
:105A7800FAA3E04A4B700C7BFF7A1079F612191BD7
:105A88007FFF22900219E0FBA3E0FAA3E02408F9C3
:105A9800E43AFA780F7C017D017E007F0B120692B2
:105AA80090010FE0FEA3E0FF1266B890010FEEF040
:105AB800A3EFF0900116E0FCA3E0FDA3E0FEA3E055
:105AC800FF125926900116120A899000AAE024AB09
:105AD800F582E43400F583740EF09000AAE004F037
:085AE80090001A7404F07F0025
:015AF0002293
:1064A000126666900216120A89126666900216E05B
:1064B000F8A3E0F9A3E0FAA3E0FBC3EF9BFFEE9A99
:1064C000FEED99FDEC98FCE47B587A02F9F8C312D2
:0764D00009BD50D50266C8AA
:0B142B00900216EBF0A3EAF0A3E9F03A
:10143600900216E0FBA3E0FAA3E04A4B700C7BFF98
:101446007A11790A12191B7FFF22900216E0FBA37C
:10145600E0FAA3E0F99000081207ABFFAEF01266BF
:10146600B8900216E0FBA3E0FAA3E0F9900008EEBC
:101476008FF012084F9000081207ABAEF07802CE3C
:10148600C313CE13D8F9FDAC067A005401FB9000C5
:101496000DE0FEA3E07802CEC313CE13D8F95401B3
:1014A6006B7001EA700302158DED30E06E90021646
:1014B600E0FBA3E0FAA3E0F99000081207AB30E0E6
:1014C6001E900095E02496F582E43400F583E4F05E
:1014D600900095E004F07BFF7A11793912191B9080
:1014E6000216E0FBA3E0FAA3E0F99000081207ABAE
:1014F600FFE5F0C313EF1320E00302158D9000956E
:10150600E02496F582E43400F5837401F0900095AA
:10151600E004F07BFF7A1179598069900216E0FBAE
:10152600A3E0FAA3E0F99000081207AB30E01E90A2
:101536000095E02496F582E43400F583E4F090000B
:1015460095E004F07BFF7A11793912191B90021687
:10155600E0FBA3E0FAA3E0F99000081207ABFFE571
:10156600F0C313EF1330E01F900095E02496F58248
:10157600E43400F5837402F0900095E004F07BFFFC
:101586007A11797312191B900216E0FBA3E0FAA3F5
:10159600E0F99000081207ABFDACF0AE047803CE7C
:1015A600C313CE13D8F97A005401FB90000DE0FE68
:1015B600A3E07803CEC313CE13D8F954016B7001A0
:1015C600EA6064ED5408FF90000DE0FAA3E054F7DA
:1015D600FBEAFEEB4FFF90000DEEF0A3EFF0EDAE51
:1015E600047803CEC313CE13D8F990009530E01BD0
:1015F600E02496F582E43400F5837403F0900095B8
:10160600E004F07BFF7A11798D8019E02496F5824B
:10161600E43400F5837404F0900095E004F07BFF59
:101626007A1179AB12191B900216E0FBA3E0FAA31C
:10163600E0F99000081207ABFDACF0ECC4F854F0EA
:10164600C8EDC4540F485401FB90000DE0C4F85493
:10165600F0C8A3E0C4540F4854016B7001E4606302
:10166600ED5410FF90000DE0FAA3E054EFFBEAFE04
:10167600EB4FFF90000DEEF0A3EFF0ECC4F854F042
:10168600C8EDC4540F4890009530E01BE02496F551
:1016960082E43400F5837405F0900095E004F07B55
:1016A600FF7A1179CA8019E02496F582E43400F5B0
:1016B600837406F0900095E004F07BFF7A1179E9D7
:1016C60012191B900216E0FBA3E0FAA3E0F99000C2
:1016D600081207ABFDACF0AE047805CEC313CE13EB
:1016E600D8F97A005401FB90000DE0FEA3E07805DE
:1016F600CEC313CE13D8F954016B7001EA6064EDC2
:101706005420FF90000DE0FAA3E054DFFBEAFEEB65
:101716004FFF90000DEEF0A3EFF0EDAE047805CE8E
:10172600C313CE13D8F990009530E01BE02496F54C
:1017360082E43400F5837407F0900095E004F07BB2
:10174600FF7A12790B8019E02496F582E43400F5CD
:10175600837408F0900095E004F07BFF7A127927F5
:1017660012191B900216E0FBA3E0FAA3E0F9900021
:10177600081207ABFDACF0EC1313135401FB9000F9
:101786000DE013131354016B7001E4605AEC540816
:10179600FEE054F7FAA3E0FBEA4EFFEB90000DCF14
:1017A600F0A3EFF0EC131313541F90009530E01BD9
:1017B600E02496F582E43400F583740BF0900095EE
:1017C600E004F07BFF7A1279468019E02496F582D0
:1017D600E43400F583740CF0900095E004F07BFF90
:1017E6007A12796012191B900216E0FBA3E0FAA3A5
:1017F600E0F99000081207ABFDACF0ECC45401FB15
:1018060090000DE0C454016B7001E46058EC541074
:10181600FEE054EFFAA3E0FBEA4EFFEB90000DCF9B
:10182600F0A3EFF0ECC4540F90009530E01BE024D9
:1018360096F582E43400F5837409F0900095E0048F
:10184600F07BFF7A12797D8019E02496F582E434E4
:1018560000F583740AF0900095E004F07BFF7A129D
:10186600799812191B900095E02496F582E43400CD
:10187600F583740DF0900095E004F0900216E0FBFD
:10188600A3E0FAA3E0F99000081207ABE5F05407CD
:1018960090010EF07BFF7A1279B4900296F012193D
:0918A6001B90001A7402F07F008F
:0118AF002216
:1062F50090000FE4F0A37436F09000177401F0A33A
:106305007401F0A3745BF07B017A00790F126018B9
:10631500EF7BFF70067A1279C180047A1279D41264
:10632500191B7E017F417D007B017A00791A020BE2
:01633500BBAC
:06244F009001CEEFF0FB4E
:10245500A3120A9500000000EB1470030224F71480
:1024650070030225791470030226031470030226F3
:102475007F1470030226FB2405600302277912608E
:10248500F19001E1740BF0900055120A549001E2AD
:10249500EFF07F057E001266B89001DFEEF0A3EF46
:1024A500F07B017A0179DD7F097E007D007C0012D9
:1024B500570D9001E5EFF07B017A0179DD7F097E0B
:1024C500007D007C001253CC9001CF120A89900147
:1024D500CFE0FCA3E0FDA3E0FEA3E0FFEC33500F4B
:1024E5007BFF7A0F7933900296120A8912191B0223
:1024F50026747B017A0179D31260F79001D77409AC
:10250500F0900055120A549001D8EFF09001CEE0FA
:102515009001DBF07F067E001266B89001D5EEF0E3
:10252500A3EFF07B017A0179D37F0A7E007D007CE1
:102535000012570D9001DCEFF07B017A0179D37F12
:102545000A7E007D007C001253CC9001CF120A89CF
:102555009001CFE0FCA3E0FDA3E0FEA3E0FFEC3398
:10256500500F7BFF7A0F7933900296120A89121960
:102575001B0225F87B017A0179D31260F79001D708
:102585007409F0900055120A549001D8EFF09001AB
:10259500CEE09001DBF07F067E001266B89001D593
:1025A500EEF0A3EFF07B017A0179D37F0A7E007DFF
:1025B500007C0012570D9001DCEFF07B017A017968
:1025C500D37F0A7E007D007C001253CC9001CF1290
:1025D5000A899001CFE0FCA3E0FDA3E0FEA3E0FFA4
:1025E500EC33500F7BFF7A0F7933900296120A89EC
:1025F50012191B7B017A0179D37F0A0227741260B5
:10260500F19001E17413F0900055120A549001E223
:10261500EFF07F057E001266B89001DFEEF0A3EFC4
:10262500F07B017A0179DD7F097E007D007C001257
:10263500570D9001E5EFF07B017A0179DD7F097E89
:10264500007D007C001253CC9001CF120A899001C5
:10265500CFE0FCA3E0FDA3E0FEA3E0FFEC33500FC9
:102665007BFF7A0F7933900296120A8912191B7B28
:10267500017A0179DD7F090227741260F19001E189
:102685007415F0900055120A549001E2EFF07F05A1
:102695007E001266B89001DFEEF0A3EFF07B017AC1
:1026A5000179DD7F097E007D007C0012570D9001C8
:1026B500E5EFF07B017A0179DD7F097E007D007C05
:1026C500001253CC9001CF120A899001CFE0FCA3F0
:1026D500E0FDA3E0FEA3E0FFEC33500F7BFF7A0F94
:1026E5007933900296120A8912191B7B017A0179B6
:1026F500DD7F090227741260F19001E17429F090E1
:102705000055120A549001E2EFF07F057E00126633
:10271500B89001DFEEF0A3EFF07B017A0179DD7F60
:10272500097E007D007C0012570D9001E5EFF07BDE
:10273500017A0179DD7F097E007D007C001253CC92
:102745009001CF120A899001CFE0FCA3E0FDA3E040
:10275500FEA3E0FFEC33500F7BFF7A0F7933900235
:1027650096120A8912191B7B017A0179DD7F0912FC
:102775005E1F80097BFF7A1279E512191B9001CF44
:0B278500E0FCA3E0FDA3E0FEA3E0FFEA
:012790002226
:105F9C007F007E007D007C007B017A04792D1260ED
:105FAC00F79004317417F0900055120A5490043293
:105FBC00EFF07F057E001266B890042FEEF0A3EF91
:105FCC00F07B017A04792D7F097E007D007C001224
:105FDC00570D900435EFF07B017A04792D7F097E03
:105FEC00007D007C001253CCEC33500F7BFF7A12F7
:105FFC0079FA900296120A8912191B7B017A04799C
:0C600C002D7F097E007D007C00025E25D7
:105D9F007F007E007D007C007B017A0479231260F6
:105DAF00F79004277421F0900055120A549004289C
:105DBF00EFF0E490042BF07F06FE1266B8900425F6
:105DCF00EEF0A3EFF07B017A0479237F0A7E007D4A
:105DDF00007C0012570D90042CEFF07B017A0479B0
:105DEF00237F0A7E007D007C001253CCEC33500FD2
:105DFF007BFF7A1279FA900296120A8912191B7B8D
:105E0F00017A0479237F0A7E007D007C00025E25E3
:0B608700900216EBF0A3EAF0A3E9F092
:10609200A3EBF0A3EAF0A3E9F0900216E0FBA3E081
:1060A200FAA3E04A4B700C7BFF7A13791A12191B80
:1060B2007FFF22900219E0FBA3E0FAA3E02408F993
:1060C200E43AFA781A7C017D017E007F4112069241
:1060D2009000BFE024C0F582E43400F583740FF031
:0E60E2009000BFE004F090001A7405F07F00FB
:0160F000228D
:0B1D33009001CEEBF0A3EAF0A3E9F072
:101D3E00E4A3F0900208F0A3F0A3120A95000000AD
:101D4E000090020EE4F0A3F0A3F0F9A3C9F0A3F003
:101D5E00A3E9F0E4A3F0A3F09001CEE0FBA3E0FA38
:101D6E00A3E04A4B700E7BFF7A13792912191B746C
:101D7E00FF0220C2125D1A9002197401F0A37400C2
:101D8E00F0A3741BF0A37401F0A37402F0A3740803
:101D9E00F07B017A00790F122DE79001D1EFF06000
:101DAE0003021F707BFF7A13794E12191B7B017A87
:101DBE0000791B90020EEBF0A3EAF0A3E9F090007D
:101DCE00041206D1120B951E03011E14031F0006EA
:101DDE001EE6071F000A1F000C1EEC0D1F060F1F2C
:101DEE009D111F18141F00161F23181F3C221F00C1
:101DFE002A00001F5590020EE0FBA3E0FAA3E0F9C3
:101E0E00124A7C021F9D90020EE0FBA3E0FAA3E0B3
:101E1E00F99000061206D1900296F0900007120675
:101E2E00D1900297F07BFF7A13795F12191B900203
:101E3E0014E0FEA3E0FF2423F9E43400FA90021923
:101E4E007401F0A3EAF0A3E9F0EF2409FFE43EFEEB
:101E5E00C3900209E09FFF900208E09EFEE4FCFDA5
:101E6E0090021C120A899002207401F0A37401F0F2
:101E7E00A374D2F0A37401F0A37402F0A3740AF059
:101E8E00900211E0FBA3E0FAA3E0F9124774EF60B1
:101E9E0003021F9D7B0190021904F0A37401F0A3AD
:101EAE0074D2F090020AE0FCA3E0FDA3E0FEA3E0F2
:101EBE00FF90021C120A8990020EE0FBA3E0FAA327
:101ECE00E0F99000071206D1900220F01230FB7B51
:101EDE00FF7A13796C021F6B125582021F9D1255E9
:101EEE008290020EE0FBA3E0FAA3E0F912142B029B
:101EFE001F9D125E9E021F9D1255827BFF7A1379E3
:101F0E007812191B1264A0021F9D125E9E7BFF7A2F
:101F1E0013798C8048125E9E90020EE0FBA3E0FACD
:101F2E00A3E0F9125A5D7BFF7A1379AA802F125E15
:101F3E009E90020EE0FBA3E0FAA3E0F91260877B0D
:101F4E00FF7A1379C0801690020EE0FBA3E0FAA38D
:101F5E00E0F97D021254B67BFF7A1379D912191B60
:101F6E00802D9001D1E0B4FE267B017A00791B9082
:101F7E00020EEBF0A3EAF0A3E9F07D011254B67B5A
:101F8E00FF7A1379EF12191B74FF7FFE0220C390A4
:101F9E00001AE024FE60481460771470030220508B
:101FAE00147003022081240460030220B3E4900025
:101FBE001AF07B0190021904F0A37400F0A374DAF6
:101FCE00F0A3120A950000001A7A007980123C6C78
:101FDE007E007F157D007B017A0079800220B0E4BF
:101FEE0090001AF07B0190021904F0A37401F0A383
:101FFE00740EF0A3120A95000000017A0079951272
:10200E003C6C7E007F157D007B017A007995022065
:10201E00B0E490001AF07B0190021904F0A3740052
:10202E00F0A37436F0900051E0FCA3E0FDA3E0FEB7
:10203E00A3E0FF90021C120A897A007980123C6C90
:10204E008063E490001AF07B0190021904F0A374EF
:10205E0001F0A3740FF0A3120A950000000B7A0092
:10206E0079AA123C6C7E007F157D007B017A007987
:10207E00AA802FE490001AF07B0190021904F0A3BD
:10208E007401F0A3741AF0A3120A95000000417AAD
:10209E000079BF123C6C7E007F417D007B017A008F
:1020AE0079BF120BBB9001CEE0FBA3E0FAA3E0F9DF
:0820BE001250CCE4FFFEFDFC12
:0120C60022F7
:0F45AE0090035BEBF0A3EAF0A3E9F0A3120A89F4
:1045BD00900362120A95000000009003817401F0CF
:1045CD00A37403F0A37466F090035EA3A3E0FEA3AF
:1045DD00E02406FFE43E900384F0A3EFF090035B2C
:1045ED00E0FBA3E0FAA3E04A4B700E7BFF7A14794F
:1045FD000612191B74FF02476F900381E0FBA3E4C1
:10460D0075F00112076AA9F0FA74FF1207209003E2
:10461D0081E0FBA3E475F00112076AA9F0FA74FFBB
:10462D00120720900384E0FF900381E0FBA3E47563
:10463D00F00112076AA9F0FAEF120720900384A384
:10464D00E0FF900381E0FBA3E475F00112076AA976
:10465D00F0FAEF120720900381E0FBA3E475F0015F
:10466D0012076AA9F0FA7405120720900055120A74
:10467D0054900381E0FBA3E475F00112076AA9F0E1
:10468D00FAEF120720900381E0FBA3E475F001120D
:10469D00076AA9F0FAE4120720900381E0FBA3E476
:1046AD0075F00112076AA9F0FAE412072090038150
:1046BD00E0FBA3E475F00112076AA9F0FA74061283
:1046CD00072090035EA3A3E0FEA3E0FF786F7C03B9
:1046DD007D0190035BE0FBA3E0FAA3E0F9120692E3
:1046ED007B017A037966900385E02404FF900384AF
:1046FD00E03400FEE4FCFD12570D900384E0FCA3B2
:10470D00E0FD2469F582E43403F583EFF07B017A53
:10471D00037966ED2404FFE43CFEE4FCFD1253CC6A
:10472D00900362120A89900362E0FCA3E0FDA3E00E
:10473D00FEA3E0FFEC33500F7BFF7A0F793390022D
:10474D0096120A8912191B7B017A037966900385EB
:10475D00E02404FF900384E03400FEE4FCFD125ECF
:06476D0025E4FFFEFDFC47
:014773002223
:0A669100C2138F9B3013FDC21322C9
:0A669B00C2128F993012FDC21222C4
:106627008F828E83E493FF6006126691A380F52222
:106637008F828E83E493FF600612669BA380F52208
:1065D200759850438E40538EFE53890F758BCC7540
:0765E2008DFFC2ABD28E2237
:03002300020003D5
:08000300309904C299D21232B7
:1065B800759A50438E0475D78F75D6FD438E107526
:0A65C800AF0143AF01D2ACD2AF2205
:030043000261BB9C
:1061BB00C0E0C0F0C083C082C0D075D000C000C0AA
:0D61CB0001C002C003C004C005C006C0072B
:1061D800E59A30E01A539AFE900191E59BF07B0115
:1061E8007A0179917F017E007D007C00125881E55B
:0961F8009A30E105539AFDD2131F
:10620100D007D006D005D004D003D002D001D000F1
:0B621100D0D0D082D083D0F0D0E0329B
:10621C0030142B900438E0D39404400C1266AFC2B7
:10622C00149004377401F022900439E0FFD39400E9
:10623C00402AEFD3940450241266A5C21422208065
:10624C00167F0A12659A208013900437E0700DA314
:0D625C00F0A3F0D2148001E4900437F0228A
:06659A00AE071FEE6017C2
:1065A000E49001CEF09001CEE0C394FA50EC0000EC
:0765B0000000E004F080EEA2
:0165B70022C1
:0A66A500E4900436F07F0202244F57
:0966AF00E4900436F0FF02244FD0
:10664700E4900438F0A3F0900436F0D280A3F0224F
:106508000000001F0000001C0000001F0000001E0B
:106518000000001F0000001E0000001F0000001FF8
:106528000000001E0000001F0000001E0000001FE9
:0F570D00900290EBF0A3EAF0A3E9F0A3120A894F
:10571C00E4900297F0A3120A95000000009002900A
:10572C00E0FBA3E0FAA3E04A4B6017E4FFFEFDFCAC
:10573C00A3E0F8A3E0F9A3E0FAA3E0FBD31209BDC0
:10574C0050037F0022900298120A950000000290EC
:10575C000293E0FCA3E0FDA3E0FEA3E024FFFFEE38
:10576C0034FFFEED34FFFDEC34FFFC900298E0F8C2
:10577C00A3E0F9A3E0FAA3E0FBC31209BD504090EB
:10578C000298A3A3E0FEA3E0FF900290E0FBA3E04D
:10579C00FAA3E0F98F828E831206D1FF900297E074
:1057AC002FF0A3E0FCA3E0FDA3A3E02401FFE43E63
:1057BC00FEE43DFDE43CFC900298120A8980909036
:0457CC000297E0FF61
:0157D00022B6
:0966B800900290EEF0A3EFF02235
:1059260090021C120A8990021CA3A3E0FEA3E4FFC6
:10593600E4FDFC78081209E1C004C005C006C007F2
:1059460090021CA3A3A3E0FFE4FEFDFC7818120955
:10595600E1D003D002D001D000EF4BFFEE4AFEEDBE
:1059660049FDEC48FCC004C005C006C00790021CF7
:10597600A3E0FDA3A3E4FFFEE4FC78081209CED061
:1059860003D002D001D000EF4BFFEE4AFEED49FDF9
:10599600EC48FCC004C005C006C00790021CE0FC31
:1059A600A3A3A3E4FFFEFDEC78181209CED003D022
:1059B60002D001D000EF4BFFEE4AFEED49FDEC4868
:0259C600FC22C1
:105C0A00E4FCC3EF648094B0400ED3EF648094B98F
:105C1A005006EF24D0FE802AC3EF648094C1400E60
:105C2A00D3EF648094C65006EF24C9FE8014C3EFF4
:105C3A00648094E1400CD3EF648094E65004EF242E
:105C4A00A9FEC3ED648094B0400ED3ED648094B98C
:105C5A005006ED24D0FC802AC3ED648094C1400E26
:105C6A00D3ED648094C65006ED24C9FC8014C3EDBC
:105C7A00648094E1400CD3ED648094E65004ED24F2
:085C8A00A9FCEEC454F02CFF4C
:015C920022EF
:0B57D100900418EBF0A3EAF0A3E9F04D
:1057DC00A3120A950000000090041F120A95000005
:1057EC00000012000EEE3395E0FDFC90041F120A2F
:1057FC0089900418E0FBA3E0FAA3E04A4B70037F06
:10580C00FF2290041B120A950000000090041FE078
:10581C00FCA3E0FDA3E0FEA3E0FF90041BE0F8A3D3
:10582C00E0F9A3E0FAA3E0FBC31209BD50449004D5
:10583C001BA3A3E0FEA3E0FF900418E0FBA3E0FA97
:10584C00A3E0F98F828E831206D1643060037F004F
:10585C002290041BE0FCA3E0FDA3E0FEA3E02401E6
:10586C00FFE43EFEE43DFDE43CFC90041B120A897F
:04587C00809A7F018E
:015880002205
:063707009003A8120A89DC
:10370D009003B4120A95000000009003B8120A95B8
:10371D00000000009003BC120A9500000000900309
:10372D00C0120A95000000009003C4120A95000013
:10373D000000E47F01FEFDFC9003ACE0F8A3E0F98E
:10374D00A3E0FAA3E0FBC31209BD6015E47F02FEFE
:10375D00FDFC9003ACE0F8A3A3A3E0C31209BD7078
:10376D00799003A8E0FCA3E0FDA3E0FEA3E024FF15
:10377D00FFEE34FFFEED34FFFDEC34FFFCE47B6423
:10378D00FAF9F81209079003BC120A899003A8E010
:10379D00FCA3E0FDA3E0FEA3E024FFFFEE34FFFE5B
:1037AD00ED34FFFDEC34FFFCE47B64FAF9F812090B
:1037BD0007AC00AD01AE02AF039003B8120A8990B9
:1037CD0003ACE0FCA3E0FDA3E0FEA3E0240CFFE4CA
:1037DD003EFEE43DFDE43CFC8050E47B64FAF9F8E8
:1037ED009003A8E0FCA3E0FDA3E0FEA3E0FF120917
:1037FD00079003BC120A89E47B64FAF9F89003A8D8
:10380D00E0FCA3E0FDA3E0FEA3E0FF120907AC007E
:10381D00AD01AE02AF039003B8120A899003ACE07C
:10382D00FCA3E0FDA3E0FEA3E0FF9003C0120A8914
:10383D009003B0E0FCA3E0FDA3E0FEA3E0FF900346
:10384D00C4120A89E47B04FAF9F89003B8E0FCA3EA
:10385D00E0FDA3E0FEA3E0FF120907AB07AA06A94E
:10386D0005A8049003B8E0FCA3E0FDA3E0FEA3E0EF
:10387D002BFFEE3AFEED39FDEC38FCC004C005C05F
:10388D0006C007E47B04FAF9F8A3E0FCA3E0FDA36E
:10389D00E0FEA3E0FF120907D003D002D001D00053
:1038AD00EB2FFFEA3EFEE93DFDE83CFCC004C00500
:1038BD00C006C007E47F02FEFDFC9003BCE0F8A348
:1038CD00E0F9A3E0FAA3E0FB12087CAB07AA06A976
:1038DD0005A804D007D006D005D004C3EF9BFFEE9A
:1038ED009AFEED99FDEC98FCC004C005C006C0071A
:1038FD009003C0E0FCA3E0FDA3E0FEA3E02401FFE4
:10390D00E43EFEE43DFDE43CFCE47B1AFAF9F812DA
:10391D00087CE47B0AFAF9F8120907D003D002D02B
:10392D0001D000EB2FFBEA3EFAE93DF9E83CF890B7
:10393D0003C4E0FCA3E0FDA3E0FEA3E02BFFEA3E01
:10394D00FEE93DFDE83CFCEF24FFFFEE34FFFEED0C
:10395D0034FFFDEC34FFFC9003B4120A899003B4DC
:10396D00E0FCA3E0FDA3E0FEA3E0FFEC33E47B0766
:10397D00FAF9F89003B44011A3A3A3E01262B1AC1D
:10398D0000AD01AE02AF03801BE0FCA3E0FDA3E0A0
:10399D00FEA3E0FF1262B1EB2407FFE43AFEE43927
:1039AD00FDE438FC9003B4120A899003B4E0FCA343
:0839BD00E0FDA3E0FEA3E0FF22
:0139C50022DF
:105F1D0090043A120A89E47B04FAF9F890043AE005
:105F2D00FCA3E0FDA3E0FEA3E0FF1262B1AC00AD67
:105F3D0001AE02AF03EC4D4E4F704E7B64FAF9F893
:105F4D0090043AE0FCA3E0FDA3E0FEA3E0FF1262A3
:105F5D00B1AC00AD01AE02AF03EC4D4E4F70257BE1
:105F6D00907A01F9F890043AE0FCA3E0FDA3E0FE7D
:105F7D00A3E0FF1262B1AC00AD01AE02AF03EC4D78
:0F5F8D004E4F7005E47F018002E4FFFEFDFC2211
:1065E900EE3395E0FDFC125F1DEC4D4E4F7E0160D0
:0765F900037F6E227F6D227B
:0620C700900310120A89CB
:1020CD00900323120A95000007B278277C037D0147
:1020DD007BFF7A6579087E007F301206929003109F
:1020ED00E0FCA3E0FDA3E0FEA3E0FF900357120A7E
:1020FD0089900357E0FCA3E0FDA3E0FEA3E024805C
:10210D00FFEE3470FEE43DFDE43CFC900357120AF3
:10211D0089900323120A95000007B2E4FFFEFDFC2F
:10212D00900357E0F8A3E0F9A3E0FAA3E0FBD31284
:10213D0009BD5003022202900323A3A3E0FEA3E0F6
:10214D00FF1265E9EE3395E0FDFC90031F120A893D
:10215D00E47F807E51FDFC90031FE0F8A3E0F9A31E
:10216D00E0FAA3E0FB12087C900357E0F8A3E0F936
:10217D00A3E0FAA3E0FBC31209BD4079900357E039
:10218D00FCA3E0FDA3E0FEA3E0FFC004C005C00674
:10219D00C007E47F807E51FDFC90031FE0F8A3E0B3
:1021AD00F9A3E0FAA3E0FB12087CAB07AA06A90588
:1021BD00A804D007D006D005D004C3EF9BFFEE9A3C
:1021CD00FEED99FDEC98FC900357120A89900323BC
:1021DD00E0FCA3E0FDA3E0FEA3E0FFE4FAF9F8EFD5
:1021ED002401FFEA3EFEE93DFDE83CFC900323128D
:1021FD000A89022128900323A3A3E0FFA3E0900303
:10220D0014CFF0A3EFF0900323120A950000000005
:10221D00E4FFFEFDFC900357E0F8A3E0F9A3E0FA1C
:10222D00A3E0FBD31209BD500302232B900314E04E
:10223D00FEA3E0FFE4FCFD125F1DEC4D4E4F600A66
:10224D0090032B120A950000001D900323A3A3E019
:10225D00FEA3E0A375F004120AE0EE25E025E025CB
:10226D0083F583E0FCA3E0FDA3E0FEA3E0FFE47BA8
:10227D00807A51F9F812087C900357E0F8A3E0F941
:10228D00A3E0FAA3E0FBC31209BD500302232B9078
:10229D000357E0FCA3E0FDA3E0FEA3E0FFC004C0F4
:1022AD0005C006C007900323A3A3E0FEA3E0A3751A
:1022BD00F004120AE0EE25E025E02583F583E0FC2D
:1022CD00A3E0FDA3E0FEA3E0FFE47B807A51F9F8E3
:1022DD0012087CAB07AA06A905A804D007D006D022
:1022ED0005D004C3EF9BFFEE9AFEED99FDEC98FC33
:1022FD00900357120A89900323E0FCA3E0FDA3E0AD
:10230D00FEA3E0FFE4FAF9F8EF2401FFEA3EFEE94F
:10231D003DFDE83CFC900323120A8902221D900327
:10232D002B120A950000001C900323A3A3A3E00425
:10233D00900316F0900323120A9500000001E4FFAC
:10234D00FEFDFC900357E0F8A3E0F9A3E0FAA3E04B
:10235D00FBD31209BD405EE47F807E51FDFC9003EE
:10236D0057E0F8A3A3A3E01209BD4049900357E03D
:10237D00FCA3E0FDA3E0FEA3E09480FFEE9451FEEC
:10238D00ED9400FDEC9400FC900357120A89900324
:10239D0023E0FCA3E0FDA3E0FEA3E0FFE4FAF9F8DF
:1023AD00EF2401FFEA3EFEE93DFDE83CFC900323EE
:1023BD00120A898089900323A3A3A3E0900317F049
:1023CD00E47B107A0EF9F8900357E0FCA3E0FDA32F
:1023DD00E0FEA3E0FF120907900318EFF0E47B1075
:1023ED007A0EF9F8900357E0FCA3E0FDA3E0FEA3FD
:1023FD00E0FF120907AC00AD01AE02AF03E47B3C78
:10240D00FAF9F8120907900319EFF0E47B3CFAF999
:10241D00F8900357E0FCA3E0FDA3E0FEA3E0FF125C
:10242D00090790031AEBF0900310E0FCA3E0FDA365
:10243D00E0FEA3E0FF90031B120A897B017A03796A
:01244D00147A
:01244E00226B
:0B52D7009003DEEBF0A3EAF0A3E9F087
:1052E2009003EC120A95000000009003E4E0FCA396
:1052F200E0FDA3E0FEA3E0FF9003ECE0F8A3E0F9F9
:10530200A3E0FAA3E0FBC31209A740030253CBE4D4
:105312007F02FEFDFC9003ECE0F8A3A3A3E01208D9
:105322007C9003E1E0FBA3E0FAA3E0F98F828E8395
:105332001206D19003E8F08F828E83A31206D190D9
:1053420003E9F09003E8E0FF126616EF24D0900321
:10535200EAF0D3648094894004E024F9F09003E9F0
:10536200E0FF126616EF24D09003EBF0D364809432
:10537200894004E024F9F09003EAE0C454F0FFA36A
:10538200E02FFFC007A3A3A3E0FEA3E0FF9003DE8C
:10539200E0FBA3E0FAA3E0F98F828E83D0E012074C
:1053A200329003ECE0FCA3E0FDA3E0FEA3E0FFE407
:1053B200FAF9F8EF2401FFEA3EFEE93DFDE83CFC84
:0953C2009003EC120A890252EC7E
:0153CB0022BF
:0B4FB2009003F0EBF0A3EAF0A3E9F09D
:104FBD009003FC120A95000000009003F6E0FCA39C
:104FCD00E0FDA3E0FEA3E0FF9003FCE0F8A3E0F911
:104FDD00A3E0FAA3E0FBC31209A740030250A2907D
:104FED0003FCA3A3E0FEA3E0FF9003F3E0FBA3E02B
:104FFD00FAA3E0F98F828E831206D1FFC4540F24D9
:10500D0030FE9003FBF0EF540F24309003FAF0D3F1
:10501D00EE648094B94005A3E02407F09003FAE014
:10502D00D3648094B94004E02407F09003FBE0FFC3
:10503D00C007E47F02FEFDFCA3E0F8A3E0F9A3E0C6
:10504D00FAA3E0FB12087CAD07AC069003F0E0FB81
:10505D00A3E0FAA3E0F98D828C83D0E012073290A1
:10506D0003FAE0FFEF8D828C83A31207329003FCCD
:10507D00E0FCA3E0FDA3E0FEA3E0FFE4FAF9F8EF06
:10508D002401FFEA3EFEE93DFDE83CFC9003FC12E5
:10509D000A89024FC7E47F02FEFDFC9003F6E0F89B
:1050AD00A3E0F9A3E0FAA3E0FB12087C9003F0E083
:0F50BD00FBA3E0FAA3E0F98F828E83E4020732AF
:0D4E73007B01E0FCA3E0FDA3E0FEA3E0FF57
:0F4E800090027CEBF0A3EAF0A3E9F0A3120A89F9
:104E8F00900283120A9500000000E4900287F0A3BD
:104E9F00F090027CE0FBA3E0FAA3E04A4B70037FA3
:104EAF00FF22900283120A9500000000E47B02FAB1
:104EBF00F9F890027FE0FCA3E0FDA3E0FEA3E0FF82
:104ECF00120907900283E0F8A3E0F9A3E0FAA3E048
:104EDF00FBC31209BD4003024FAF900283A3A3E0AF
:104EEF00FEA3E0FF90027CE0FBA3E0FAA3E0F98FC2
:104EFF00828E831206D1900287F0900283A3A3A320
:104F0F00E0FBAA0690027FA3A3E0FEA3E0C39BFFF2
:104F1F00EE9ACF24FFCF34FFFE90027CE0FBA3E09C
:104F2F00FA8F828E831206D1900288F0E0FFC007BD
:104F3F00900283A3A3E0FEA3E0F5828E83D0E0125C
:104F4F000732900287E0FFC007900283A3A3E0FE21
:104F5F00A3E0FBAA0690027FA3A3E0FEA3E0C39BFE
:104F6F00FFEE9ACF24FFCF34FFFE90027CE0FBA32D
:104F7F00E0FAA3E0F98F828E83D0E012073290021D
:104F8F0083E0FCA3E0FDA3E0FEA3E02401FFE43EE9
:104F9F00FEE43DFDE43CFC900283120A89024EBB05
:024FAF007F0081
:014FB10022DD
:0663B40090022D120A897F
:1063BA00900231E0F8A3E0F9A3E0FAA3E0FBA3E03E
:1063CA00FCA3E0FDA3E0FEA3E0C39BFFEE9AFEED73
:1063DA0099FDEC98FC90022DE0F8A3E0F9A3E0FA0D
:0663EA00A3E0FB1209070D
:0163F000228A
:06637600900400120A89E8
:10637C00900400E0FCA3E0FDA3E0FEA3E0FF90048A
:10638C0008E0F8A3E0F9A3E0FAA3E0FB12087C9084
:10639C000404E0F8A3E0F9A3E0FAA3E02FFFEA3E3F
:0763AC00FEE93DFDE83CFCA9
:0163B30022C7
:0664680090022D120A89CA
:10646E00900231E0F8A3E0F9A3E0FAA3E0FBA3E089
:10647E00FCA3E0FDA3E0FEA3E0FF12004990022D75
:10648E00E0F8A3E0F9A3E0FAA3E0FB12024712033F
:01649E008F6E
:01649F0022DA
:06642D0090040C120A8924
:10643300900414E0FCA3E0FDA3E0FEA3E0FFE4125C
:10644300035190040CE0F8A3E0F9A3E0FAA3E0FB06
:1064530012013E900410E0F8A3E0F9A3E0FAA3E0F0
:04646300FB12004DDB
:016467002212
:0B59C800E0FCA3E0FDA3E0FEA3E0FF75
:1059D30090027C120A89E4FFFEFDFC90027CE0F851
:1059E300A3E0F9A3E0FAA3E0FBC31209BD6018909A
:1059F300027CA3A3A3E05407FFE4FEFDFCFBFAF93A
:105A0300F8C31209BD7020E47F08FEFDFC900280FC
:105A1300E0F8A3E0F9A3E0FAA3E0FBD31209BD5039
:105A2300037F00227F012290027CA3A3A3E05407FB
:105A3300FBC374089BFFE49400FEE49400FDE4942C
:105A430000FCA3E0F8A3E0F9A3E0FAA3E0FBD31280
:0A5A530009BD50037F00227F0122ED
:064913009003C8120A899E
:10491900E49003D7F0A3F0A3F0A3120A95000000D6
:10492900009003D0E0FBA3E0FAA3E04A4B700574C2
:10493900FF024A77E47B08FAF9F89003C8E0FCA380
:10494900E0FDA3E0FEA3E0FF1209079003DA120AD3
:10495900899003CCE0FCA3E0FDA3E0FEA3E0FF9077
:104969000280120A899003C81259C89003D9EFF03E
:10497900704CA3A3E0FDA3E0FEA3E0FF9003D0E009
:10498900FBA3E0FAA3E02FF9EA3EFAEB3DFBC003F3
:10499900C002C0011206B8FB9003C8E0FCA3E0FD09
:1049A900A3E0FEA3E05407FFAA079003D3A3A3A3A0
:1049B900E0FFA802088002C333D8FC024A6C9003C6
:1049C900D9E064016003024A769003C8E0FCA3E0E1
:1049D900FDA3E0FEA3E05407FFC374089FFB900307
:1049E900D3A3A3A3E0FFA803088002C313D8FC90B4
:1049F90003D7F074FFA803088002C313D8FC5F90A3
:104A090003D8F09003DAA3A3E0FEA3E0FF2401FD9D
:104A1900E43EFC9003D0E0FBA3E0FAA3E02DF9EA21
:104A29003CFA1206B8FD9003D7E04D120720900317
:104A3900D0E0FBA3E0FAA3E02FF9EA3EFAC003C0F5
:104A490002C0011206B8FB9003C8E0FCA3E0FDA375
:104A5900A3E05407FF9003D8E0FEA807088002C32B
:104A690033D8FC4BD001D002D003120720E4FFFE5B
:024A7900FDFC42
:014A7B002218
:063EE7009002C4120A89DA
:103EED009002D3120A9500000000E49002D7F0A3CF
:103EFD00120A9500000000E49002DCF0A3F090029D
:103F0D00CCE0FBA3E0FAA3E04A4B6017E4FFFEFD13
:103F1D00FCA3E0F8A3E0F9A3E0FAA3E0FBC31209C8
:103F2D00BD70028062E47B08FAF9F89002C4E0FCEF
:103F3D00A3E0FDA3E0FEA3E0FF1209079002D81253
:103F4D000A899002CFA3A3E0FEA3E0FF78DE7C02F6
:103F5D007D019002CCE0FBA3E0FAA3E0F9120692FA
:103F6D00E47F01FEFDFC9002CFE0F8A3E0F9A3E0B1
:103F7D00FAA3E0FBD31209BD40147A0279DE900258
:103F8D00CF124E73BFFF0774FFFFFEFDFC229002A0
:103F9D00C8E0FCA3E0FDA3E0FEA3E0FF90028012C9
:103FAD000A899002C41259C89002D7EFF06003023B
:103FBD0040469002D3E0F8A3E0F9A3E0FAA3E0FBBA
:103FCD00C000C001C002C0039002C4E0FCA3E0FD2C
:103FDD00A3E0FEA3E05407FFAB079002D8A3A3A371
:103FED00E024DEF582E43402F583E0FFA8030880C7
:103FFD0002C313D8FCFB7A009002C8A3A3A3E0FF71
:10400D00C374089FFF74FF7E00A807088006CEA228
:10401D00E713CE13D8F8FFEE5AFEEF5BFFEE3395A4
:10402D00E0FDFCD003D002D001D000EB4FFFEA4EF3
:10403D00FEE94DFDE84C0241279002D7E064016096
:10404D000302412E9002C4E0FCA3E0FDA3E0FEA319
:10405D00E05407FFAA07EAF404FBA3A3A3A3E0C35C
:10406D009BFFC374109FFF74FFA807088002C31342
:10407D00D8FCFB9002D8A3A3A3E0FF24DFF582E4D4
:10408D003402F583E05B9002DCF074DE2FF582E400
:10409D003402F583E0FFA802088002C313D8FC9018
:1040AD0002DDF09002D3E0F8A3E0F9A3E0FAA3E07B
:1040BD00FBC000C001C002C0039002C4E0FCA3E03D
:1040CD00FDA3A3E05407FFC374089FFF9002DCE03B
:1040DD007E00A807088005C333CE33CED8F9FFEE96
:1040ED003395E0FDFCD003D002D001D000EB4FFFA3
:1040FD00EA4EFEE94DFDE84CFC9002D3120A899080
:10410D0002D3E0F8A3E0F9A3E0FAA3E0FB9002DD0F
:10411D00E0FFEB4FFFEAFEE9FDE8FC9002D3120A47
:0F412D00899002D3E0FCA3E0FDA3E0FEA3E0FF36
:01413C002260
:06438000900230120A89D0
:10438600E4900243F0A3F0A3F0900278120A95009D
:1043960000000090023CE0FBA3E0FAA3E04A4B6079
:1043A6005EE4FFFEFDFCA3E0F8A3E0F9A3E0FAA3B8
:1043B600E0FBC31209BD7002804590023FA3A3E053
:1043C600FEA3E0FF78467C027D0190023CE0FBA361
:1043D600E0FAA3E0F9120692E47F01FEFDFC9002EA
:1043E6003FE0F8A3E0F9A3E0FAA3E0FBD31209BD8E
:1043F60040147A02794690023F124E73BFFF07744B
:10440600FFFFFEFDFC22900238E0FCA3E0FDA3E0E6
:10441600FEA3E0FF900280120A899002341259C866
:10442600900243EFF060030244B7900278E0F8A3ED
:10443600E0F9A3E0FAA3E0FBC000C001C002C0039C
:10444600900234E0FCA3E0FDA3E0FEA3E05407FFE6
:10445600AB07900230A3A3A3E02446F582E434021E
:10446600F583E0FFA803088002C313D8FCFB7A009B
:10447600900238A3A3A3E0FFC374089FFF74FF7ED6
:1044860000A807088006CEA2E713CE13D8F8FFEEE1
:104496005AFEEF5BFFEE3395E0FDFCD003D002D071
:1044A60001D000EB4FFFEA4EFEE94DFDE84C024518
:1044B60098900243E06401600302459F900234E055
:1044C600FCA3E0FDA3E0FEA3E05407FFAA07EAF47D
:1044D60004FBA3A3A3A3E0C39BFFC374109FFF74B5
:1044E600FFA807088002C313D8FCFB900230A3A3E1
:1044F600A3E0FF2447F582E43402F583E05B9002F3
:1045060044F074462FF582E43402F583E0FFA802F6
:10451600088002C313D8FC900245F0900278E0F8B8
:10452600A3E0F9A3E0FAA3E0FBC000C001C002C00B
:1045360003900234E0FCA3E0FDA3A3E05407FFC30D
:1045460074089FFF900244E07E00A807088005C318
:1045560033CE33CED8F9FFEE3395E0FDFCD003D051
:1045660002D001D000EB4FFFEA4EFEE94DFDE84CCC
:10457600FC900278120A89900278E0F8A3E0F9A389
:10458600E0FAA3E0FB900245E0FFEB4FFFEAFEE90D
:10459600FDE8FC900278120A89900278E0FCA3E01C
:0745A600FDA3E0FEA3E0FF0E
:0145AD0022EB
:064D2D0090022D120A891C
:104D3300E4900240F0A3F0A3F0900239E0FBA3E07B
:104D4300FAA3E04A4B700574FF024E6E900235E001
:104D5300FCA3E0FDA3E0FEA3E0FF900280120A891A
:104D63009002311259C8900242EFF0704E90022D1A
:104D7300A3E0FDA3E0FEA3E0FF900239E0FBA3E084
:104D8300FAA3E02FF9EA3EFAEB3DFBC003C002C0F1
:104D9300011206B8FB900231E0FCA3E0FDA3E0FEA4
:104DA300A3E05407FFAA0790023CA3A3A3E0FFA834
:104DB30002088002C333D8FC024E63900242E064CF
:104DC300016003024E6D900231E0FCA3E0FDA3E01D
:104DD300FEA3E05407FFC374089FFB90023CA3A308
:104DE300A3E0FFA803088002C313D8FC900240F09D
:104DF30074FFA803088002C313D8FC5F900241F03C
:104E030090022DA3A3E0FEA3E0FF2401FDE43EFCFA
:104E1300900239E0FBA3E0FAA3E02DF9EA3CFA1291
:104E230006B8FD900240E04D120720900239E0FBE6
:104E3300A3E0FAA3E02FF9EA3EFAC003C002C001DF
:104E43001206B8FB900231E0FCA3E0FDA3A3E054FB
:104E530007FF900241E0FEA807088002C333D8FC95
:0F4E63004BD001D002D003120720E4FFFEFDFC6C
:014E7200221D
:106018009001CEEBF0A3EAF0A3E9F09001CEE0FB0B
:10602800A3E0FAA3E04A4B70037FFF229001CEE081
:10603800FBA3E0FAA3E0F9900008120B0CC003C020
:1060480002C0019001CEE0FBA3E0FAA3E0F99000C2
:1060580002120B3C9001CEE0FBA3E0FAA3E0F9901A
:106068000008120B0CC003C002C0019001CEE0FB77
:0F607800A3E0FAA3E0F9900005120B3C7F002291
:105C9300900441EBF0A3EAF0A3E9F0900441E0FBA8
:105CA300A3E0FAA3E04A4B70037FFF227B007A0054
:105CB3007900C003C002C001900441E0FBA3E0FAF5
:105CC300A3E0F9900008120B3C7B007A007900C036
:105CD30003C002C001900441E0FBA3E0FAA3E0F992
:105CE300900002120B3C7B007A007900C003C002D3
:105CF300C001900441E0FBA3E0FAA3E0F9900005A2
:105D0300120B3C900441E0FBA3E0FAA3E0F9E4F5B5
:075D1300F01208307F0022AE
:0B633600900232E0FBA3E0FAA3E0F9C4
:10634100900241EBF0A3EAF0A3E9F0900241E0FBF7
:10635100A3E0FAA3E04A4B700774FFFFFEFDFC22A5
:10636100900241E0FBA3E0FAA3E0F9120780FFAE3F
:05637100F0E4FCFD2238
:0B4BDE00900232E0FBA3E0FAA3E0F934
:104BE90090023EEBF0A3EAF0A3E9F090023EE0FB6D
:104BF900A3E0FAA3E04A4B700474FF803B90023EA5
:104C0900E0FBA3E0FAA3E0F9900005120B0CC00346
:104C1900C002C00190023EE0FBA3E0FAA3E0F990D4
:104C29000002120B0CD082D083D0E06B7008E965CA
:104C3900827003EA65837005FFFEFDFC2290023E47
:104C4900E0FBA3E0FAA3E0F9900005120B0CC00306
:104C5900C002C00190023EE0FBA3E0FAA3E0F99094
:104C69000002120B0CC3D082D083D0E0E99582EA0E
:104C7900958390023EE0FBA3E0FAA3E0F950379058
:104C89000002120B0CAF01AE02AD037C00C004C0E0
:104C990005C006C00790023EE0FBA3E0FAA3E0F9D5
:104CA900900005120B0CAF01AE02AD03D003D00288
:104CB900D001D0008060126341C004C005C006C0A5
:104CC9000790023EE0FBA3E0FAA3E0F99000051289
:104CD9000B0CAF01AE02AD037C00C004C005C006D9
:104CE900C00790023EE0FBA3E0FAA3E0F9900002BE
:104CF900120B0CAF01AE02AD03D003D002D001D02C
:104D090000C3EF9BFBEE9AFAED99F9EC98F8D007FE
:104D1900D006D005D004C3EF9BFFEE9AFEED99FDB6
:044D2900EC98FC22E4
:106269009001A9EBF0A3EAF0A3E9F09001A9E0FB02
:10627900A3E0FAA3E04A4B700774FFFFFEFDFC227E
:106289009001A9124BE1A804C005C006C0079001FE
:10629900A9126339D003D002D001C3EF9BFFEE9A54
:0862A900FEED99FDEC98FC22CA
:0B279100900232EBF0A3EAF0A3E9F0A5
:10279C0090023A120A9500000000900232E0FBA36E
:1027AC00E0FAA3E04A4B7002800E900235E0FBA3E6
:1027BC00E0FAA3E04A4B700774FFFFFEFDFC229089
:1027CC000232E0FBA3E0FAA3E0F9900005120B0C37
:1027DC00C003C002C001900232E0FBA3E0FAA3E008
:1027EC00F9900002120B0CC3D082D083D0E0E99593
:1027FC0082EA9583400302288E124BDEA804A905B9
:10280C00AA06AB07900238E0FEA3E0FFE4FCFDD380
:10281C001209A7400D900238E0FEA3E0FFE4FCFD96
:10282C008003124BDE90023A120A8990023AA3A35B
:10283C00E0FEA3E0FF900232E0FBA3E0FAA3E0F994
:10284C00900002120B0CC003C002900235E0FBA3F7
:10285C00E0FAA3E0F8AC02AD03D002D0031206926A
:10286C0090023AA3A3E0FEA3E0FF900232E0FBA3A8
:10287C00E0FAA3E0F9900002A3EE8FF01207E30256
:10288C002AB7126336C004C005C006C007900232D6
:10289C00E0FBA3E0FAA3E0F9900008120B0CAF01E7
:1028AC00AE02AD037C00C004C005C006C007900298
:1028BC0032E0FBA3E0FAA3E0F9900002120B0CAF9C
:1028CC0001AE02AD03D003D002D001D000C3EF9B08
:1028DC00FBEE9AFAED99F9EC98F8D007D006D005F2
:1028EC00D004C3EF9BFBEE9AFAED99F9EC98F890B3
:1028FC000238E0FEA3E0FFE4FCFDD31209A740661A
:10290C00900238E0FEA3E0FFE4FCFDA3120A8990DC
:10291C00023AA3A3E0FEA3E0FF900232E0FBA3E0A7
:10292C00FAA3E0F9900002120B0CC003C002900253
:10293C0035E0FBA3E0FAA3E0F8AC02AD03D002D083
:10294C000312069290023AA3A3E0FEA3E0FF9002CA
:10295C0032E0FBA3E0FAA3E0F9900002A3EE8FF0C3
:10296C001207E3022AB7126336C004C005C006C0C2
:10297C0007900232E0FBA3E0FAA3E0F99000081202
:10298C000B0CAF01AE02AD037C00C004C005C00649
:10299C00C007900232E0FBA3E0FAA3E0F99000023A
:1029AC00120B0CAF01AE02AD03D003D002D001D09C
:1029BC0000C3EF9BFBEE9AFAED99F9EC98F8D0076F
:1029CC00D006D005D004C3EF9BFFEE9AFEED99FD27
:1029DC00EC98FC90023A120A8990023AA3A3E0FE0A
:1029EC00A3E0FF900232E0FBA3E0FAA3E0F9900031
:1029FC0002120B0CC003C002900235E0FBA3E0FAFC
:102A0C00A3E0F8AC02AD03D002D003120692900200
:102A1C0032E0FBA3E0FAA3E0F9900008120B0CC023
:102A2C0003C002C001900232E0FBA3E0FAA3E0F97C
:102A3C00900002120B3C90023AE0F8A3E0F9A3E0FC
:102A4C00FAA3E0FBC000C001C002C00390023AA38D
:102A5C00E0FDA3E0FEA3E0FF900235E0FBA3E0FA6B
:102A6C00A3E02FF9EA3EFAEB3D900235F0A3EAF031
:102A7C00A3E9F0C3900239E09FFF900238E09EF08A
:102A8C00A3EFF0900232E0FBA3E0FAA3E0F91227E7
:102A9C0091D003D002D001D000EB2FFFEA3EFEE92B
:102AAC003DFDE83CFC90023A120A8990023AE0FCA7
:092ABC00A3E0FDA3E0FEA3E0FF8E
:012AC50022EE
:0B340A0090019DEBF0A3EAF0A3E9F0B5
:103415009001A5120A950000000090019DE0FBA314
:10342500E0FAA3E04A4B600CA3E0FBA3E0FAA3E0BB
:103435004A4B700574FFFF802B90019DE0FBA3E0D4
:10344500FAA3E0F9126269A804A905AA06AB0790D8
:1034550001A3E0FEA3E0FFE4FCFDD31209A7500899
:1034650074FF7FFEFEFDFC2290019DE0FBA3E0FAC8
:10347500A3E0F9900005120B0CC003C002C0019037
:10348500019DE0FBA3E0FAA3E0F9900002120B0C0A
:10349500D3D082D083D0E0E99582EA9583400302B8
:1034A50036B990019D126339C004C005C006C00736
:1034B50090019DE0FBA3E0FAA3E0F9900008120B50
:1034C5000CAF01AE02AD037C00C004C005C006C050
:1034D5000790019DE0FBA3E0FAA3E0F99000051237
:1034E5000B0CAF01AE02AD03D003D002D001D0006A
:1034F500C3EF9BFBEE9AFAED99F9EC98F8D007D05B
:1035050006D005D004C3EF9BFFEE9AFEED99FDECC6
:1035150098FC9001A5120A899001A3E0FEA3E0FFA3
:10352500E4FCFDA3E0F8A3E0F9A3E0FAA3E0FBC304
:103535001209A750030236049001A3E0FEA3E0FFA1
:1035450090019DE0FBA3E0FAA3E0F9900005120BC2
:103555000CA801AC02AD039001A0E0FBA3E0FAA327
:10356500E0F91206929001A3E0FEA3E0FF90019D11
:10357500E0FBA3E0FAA3E0F9900005A3EE8FF012BB
:1035850007E390019D12633990019DE0FBA3E0FAEA
:10359500A3E0F9900008120B0CE92FF9EA3EFAEBCB
:1035A5003DFBC003C002C00190019DE0FBA3E0FA12
:1035B500A3E0F9900005120B0CD082D083D0E06B0C
:1035C5007008E965827003EA6583702890019DE0C3
:1035D500FBA3E0FAA3E0F9900008120B0CC003C0AE
:1035E50002C00190019DE0FBA3E0FAA3E0F9900081
:1035F50005120B3C9001A3E0FEA3E0FF0237039008
:1036050001A5A3A3E0FEA3E0FF90019DE0FBA3E0DD
:10361500FAA3E0F9900005120B0CA801AC02AD036A
:103625009001A0E0FBA3E0FAA3E0F9120692900155
:103635009DE0FBA3E0FAA3E0F9900008120B0CC093
:1036450003C002C00190019DE0FBA3E0FAA3E0F9ED
:10365500900005120B3C9001A5A3E0FDA3E0FEA39D
:10366500E0FF9001A0E0FBA3E0FAA3E02FF9EA3E1A
:10367500FAEB3D9001A0F0A3EAF0A3E9F0C39001B5
:10368500A4E09FFF9001A3E09EF0A3EFF090019DC1
:10369500E0FBA3E0FAA3E0F912340A9001A5E0F8F3
:1036A500A3E0F9A3E0FAA3E02FFFEA3EFEE93DFD22
:1036B500E83CFC229001A3E0FEA3E0FF90019DE021
:1036C500FBA3E0FAA3E0F9900005120B0CA801ACEE
:1036D50002AD039001A0E0FBA3E0FAA3E0F9120616
:1036E500929001A3E0FEA3E0FF90019DE0FBA3E023
:1036F500FAA3E0F9900005A3EE8FF01207E3E4FCCE
:01370500FDC6
:0137060022A0
:10002600E4FDFCC3ED9FEC9E50100079207B28DB9D
:0A003600FED9FC0DBD00010C80E9AD
:01004000229D
:10660000E4FDFCC3ED9FEC9E500B7B06DBFE0DBD55
:0566100000010C80EE0A
:016615002262
:100046000203FBE86480F8E933E83360110460F0EA
:10005600ED33EC337009E8FCE9FDEAFEEBFF220420
:1000660060DED3EB9FEA9EE99DE8C2E78CF0C2F71B
:1000760095F0400CE8CCF8E9CDF9EACEFAEBCFFBE7
:100086001203C685D0F05804700320D5B3E8047077
:10009600075002B2D502040592D5EC0460F7E4CC11
:1000A600C0E0C398F8603B94186008400DD0E0FBB0
:1000B6000203DDE4FBFAC9FC8028E830E406E4C963
:1000C600FBE4CAFCE830E305E4C9CACBFCE8540704
:1000D6006010F8C3E913F9EA13FAEB13FBEC13FC0F
:1000E600D8F130F52FC3E49CFCEF9BFFEE9AFEEDB2
:1000F60099FDD0E0FBEF4E4D4C701222DB0302045B
:1001060002EC2CFCEF33FFEE33FEED33FDED30E772
:10011600EB0203DDEF2BFFEE3AFEED39FDD0E0FBFF
:1001260050130BBB0003020405ED13FDEE13FEEFA7
:0801360013FFEC13FC0203DDD2
:10013E00EC4D6011E8497017ED33EC3304600DE4BB
:10014E00FCFFFEFD22E933E8330470F80203FB12D4
:10015E0003C658046009E4CC2481500628500902D5
:10016E000405284003020402C0E0EB4A7044B98043
:10017E0006D0E0FB0203F1EF4E701CBD8008EBFFD2
:10018E00EAFEE9FD80EBE98DF0A4FEE5F002022720
:10019E00E9CDF9EAFEEBFFEF89F0A4FCE5F0CE899C
:1001AE00F0A42EFFE435F0CD89F0A42DFEE435F059
:1001BE008067EF4E7005BD80D780C3EF8BF0A4AC87
:1001CE00F0EE8BF0A42CFCE435F0F8EF8AF0A42CC2
:1001DE00E5F038FCE433CB8DF0A42CFCE5F03BF8D5
:1001EE00EE8AF0A42CFCE5F038F8E433CF89F0A4C5
:1001FE002CFCE5F038CF3400CE89F0A42FFFE5F0CB
:10020E003EFEE433C98DF0A42EFEE5F039CD8AF022
:10021E00A42FFFE5F03EFEE43DFD33D0E0FB50079A
:10022E000BBB000F020405EC2CFCEF33FFEE33FE8C
:06023E00ED33FD0203DDBB
:10024400020405EC5D046005E8590470030203FB35
:100254001203C6580460F6EC4860F2EC7004FDFE2C
:10026400FF22C860DB2481C85009C398600250068D
:100274000204029850CAF582E9294B4A7005AB8200
:100284000203F175F0007C1A7880C3EF9BEE9AEDBF
:1002940099400DC3EF9BFFEE9AFEED99FDE842F005
:1002A400DC23ACF0D0E0FFD0E0FED0E0FDAB822058
:1002B400E7101BEB60BAEC2CFCEF33FFEE33FEEDE2
:1002C40033FD0203DDE803F830E705C0F075F00004
:1002D400EF2FFFEE33FEED33FD40B830E7C280AAC6
:1002E40074F8CC6480CCC86480C8F582046043C3CD
:1002F400EB9FF5F0EA9E42F0E99D42F0E89C45F060
:1003040060305018E5825FFFE582F42B5582FB5084
:10031400210ABA001D09B90019088016E5825BFBA1
:10032400E582F42F5582FF50090EBE00050DBD0075
:10033400010CC3EB9FF5F0EA9E42F0E99D42F0E820
:0D0344009C45F06007CC4820E701B3EC2297
:1003510075F020800E75F010800575F0087D007E27
:10036100007F003392D530D503120999EC33401048
:10037100EF33FFEE33FEED33FDEC33FCD5F0ED2230
:0E038100E5F0247EA2D513CC92E7CDCEFF226C
:10038F00EDD2E7CD33EC3392D524814006E4FFFE66
:10039F00FDFC22FCE4CFCECDCC24E0501174FF80C5
:1003AF00EDC3CC13CCCD13CDCE13CECF13CF047062
:0703BF00F030D5DE020999C0
:1018B000E50D2496F582E43402F583E0050D2290CF
:1018C0000293301003900296E475F001120AEC02C4
:1018D00006B82009E97F2ED2098018EF540F249012
:1018E000D43440D4FF300D0BEF24BFB41A005003A2
:1018F0002461FFE50E6002150E0511E51170020569
:101900001030100E900293E475F001120AECEF0211
:1019100007200266757403D2108003E4C210F50D2F
:10192000900293120B03E4F50EF510F511E50E602D
:10193000077F201218F380F5750FFFC20AC209C293
:101940000BC20CC20EC20FC2111218BFFF700D30B5
:1019500010057F00121904AF11AE1022B4255FC22A
:10196000D5C20D1218BFFF24D0B40A00501A75F06A
:101970000A780E30D50508B6FF0106C6A426F62063
:10198000D5047002D20C80D924CFB41A00EF5004D1
:10199000C2E5D20D021BF6D20A80C6D20980C0D29F
:1019A0000B80BCD2D580BAD20E80B47F201218F33F
:1019B000200B077401B50E0040F11218B0FF121889
:1019C000F302192DD211D20F80951218B0FB121804
:1019D000B0FA1218B0F94A4B700679F47A1C7BFF02
:1019E000200B2EE50E602A7E008E82758300120683
:1019F000D160060EEE650F70F0C2D5EBC0E0EAC014
:101A0000E0E9C0E0EE121C57D0E0F9D0E0FAD0E0F7
:101A1000FB1206B8FF60AAEBC0E0EAC0E0E9C0E054
:101A20001218F3D0E02401F9D0E03400FAD0E0FB42
:101A3000E50F0460DCD50FD98087D20B80A2121C81
:101A40003960F7E50F700104120410A90F600DE56D
:101A50000F600914F50F121CE1EF60F3EA30E702A2
:101A6000F404C3995079EAF4250F0430E701E40443
:101A7000F50F800D121C3960C1EA050F250F120405
:101A800010EA9002C2F030E701E4250F04D50F04FC
:101A9000200E0114121C57E4C0E0121CE19002C297
:101AA000E0601320E70714F01218DB802204F0D066
:101AB000E014C0E07F001218DBE50F60071218D2B7
:101AC000150F800B300E031218D2D0E002192DD062
:101AD000E00480C4121C39609EE50F0412041090CB
:101AE00002C2EAF0E50F200E026001042404121C79
:011AF000579E
:101AF10074FF04C0E0121CE11218DBE50F200E0296
:101B010060031218D2D0E0B50FE87F451218E590B6
:101B110002C2E07F2B30E7047F2DF404C0E01218ED
:101B2100F3D0E075F00A84C0F01218DCD0E012188E
:101B3100DC02192D791080027908C20FC2118008C8
:101B4100D2D5790A8004790AC2D5E50F047002F56D
:101B51000FE4FAFDFEFF1218B0FC7B08200A1312F5
:101B610018B0FD7B1030090A1218B0FE1218B0FF30
:101B71007B20EC3382D592D55013C3E43009069F04
:101B8100FFE49EFEE4200A039DFDE49CFCE4CBF807
:101B9100C20AEC700CCFCECDCCE824F8F870F380FB
:101BA10017C3EF33FFEE33FEED33FDEC33FCEB33C4
:101BB100FB994002FB0FD8E9EB300A05F8D0E0C4ED
:101BC10048B20AC0E00AEC4D4E4F78207B0070C24B
:101BD100EAB50F0040BCC0E0121C59D0F0D0E020A3
:101BE1000A04C4C0E0C4B20AC0F01218DCD0F0D5B7
:101BF100F0EB02192D120B9519CA531B3558199B7D
:101C01004C1997421B394F1B41441B414919B043A1
:101C11001B47551A74461AD4451A3E471D145019CC
:101C21009F2D19A32E19C62B19A72319C4201CFDFA
:101C31002A195F48000019BEE50FB4FF03750F06AE
:101C41001218B0FC1218B0FD1218B0FE1218B0FF35
:101C51009002BB02044D790AA2D5200C14300E0962
:101C6100B910020404B9080104A2D5200F025001E1
:101C710004200B68920BB50E005034C0E07F203079
:101C81000C197F30A20B720F720E500F121CB0C2D2
:101C91000BC20FC20EC2117F30800F300E03E9C09C
:101CA100E01218F3300E03D0E0F9D0E0B50ECC30DD
:101CB1000E177F30B9100C1218F37F58300D077FC3
:101CC100788003B908031218F3300B057F2D021831
:101CD100F37F202011F87F2B200FF322920B80CF6E
:101CE1007F00B40700500B24BBF582E43402F58376
:101CF100E0FF22286E756C6C2900D20A1218B030F0
:101D01000AF8C20A780E30D50108F602195F2D5083
:101D11004349581218B02403B405004001E4901D52
:101D21000F931218E4743A1218E4D20C750E0402DF
:021D31001B3560
:1003C600E9D2E7C933E833F892D5EDD2E7CD33EC7D
:0703D60033FC5002B2D522F6
:1003DD00EC30E7100FBF000C0EBE00080DBD000481
:1003ED000BEB6014A2D5EB13FCED92E7FD2274FF2D
:1003FD00FCFDFEFF22E480F8A2D574FF13FC7D8086
:03040D00E480EF99
:10041000F920E73624F950037907E4F42402FBE5D8
:1004200082158270021583DBF6E024FB501BE96025
:1004300014E4F0E582158270021583E004F0B40A3A
:0D04400008E4F0D9EE7401F00A22C2D522C2
:10044D00ED33EC3392D5FA602AB4FF33EDC2E77B7E
:10045D00FF60067A047972E4227A04797B20D50450
:10046D007A047976224E614E002B494E46002D4975
:10047D004E4600E47A08F0A3DAFC7B00740722C034
:10048D0083C082ECC0E0EDC0E0EEC0E0EFC0E0EA7A
:10049D0075F010A4CAABF075F04DA42BFBE435F04C
:1004AD00FCEA2410FAEB34C5FBEC34D9FCEDC2E7C1
:1004BD00FF75F056A4F42411C5F0F434C58FF0A4E3
:1004CD002AE5F03BE43CF020E714120582D0E0FF72
:1004DD00D0E0FED0E0FDD0E0FC1202478014F40421
:1004ED00120582D0E0FFD0E0FED0E0FDD0E0FC129E
:1004FD00013ED082D083E0FAEDD2E7CD33EC332448
:10050D0082FBE4C3CF33CFCE33CECD33CD33DBF34C
:10051D007B0775F00A846004F0A31B0AE5F0F0A3D5
:10052D008FF0740AA4FFACF08EF0740AA42CFEAC0C
:10053D00F050010C8DF0740AA42CFDE435F0F0A3FD
:05054D00DBDE74072253
:100552003F8000004120000042C80000447A0000B1
:10056200461C400047C35000497424004B18968033
:100572004CBEBC205A0E1BCA6753C21C749DC5AE2A
:10058200FB60065407601C23231205B0EB5438604D
:100592000912059C1205AB12013EECF8EDF9EEFAD8
:1005A200EFCB22EB1205AB80F1543803241C9005EB
:1005B20052FE93FC0EEE93FD0EEE930ECE93FF22AF
:03000000025B7E22
:0C5B7E00787FE4F6D8FD758122025BC53B
:1005C200E709F608DFFA8046E709F208DFFA803E1B
:1005D20088828C83E709F0A3DFFA8032E309F60808
:1005E200DFFA8078E309F208DFFA807088828C8370
:1005F200E309F0A3DFFA806489828A83E0A3F60824
:10060200DFFA805889828A83E0A3F208DFFA804CFD
:1006120080D280FA80C680D4806980F280338010D4
:1006220080A680EA809A80A880DA80E280CA80333D
:1006320089828A83ECFAE493A3C8C582C8CCC583B5
:10064200CCF0A3C8C582C8CCC583CCDFE9DEE78085
:100652000D89828A83E493A3F608DFF9ECFAA9F004
:10066200EDFB2289828A83ECFAE0A3C8C582C8CC5A
:10067200C583CCF0A3C8C582C8CCC583CCDFEADE73
:10068200E880DB89828A83E493A3F208DFF980CCD5
:1006920088F0EF60010E4E60C388F0ED2402B404CE
:1006A2000050B9F582EB2402B4040050AF23234575
:0606B20082239006127382
:1006B800BB010689828A83E0225002E722BBFE0240
:0906C800E32289828A83E4932273
:1006D100BB010CE58229F582E5833AF583E02250DE
:1006E10006E92582F8E622BBFE06E92582F8E22228
:0D06F100E58229F582E5833AF583E4932242
:1006FE00BB010989828A83F8E028F022500327F78C
:10070E0022BBFE05F8E328F3228A838982F8E4935C
:02071E0028228F
:10072000BB010689828A83F0225002F722BBFE01B8
:02073000F322B2
:10073200F8BB010DE58229F582E5833AF583E8F0FD
:10074200225006E92582C8F622BBFE05E92582C8A9
:02075200F22291
:10075400C5F0F8A3E028F0C5F0F8E5821582700230
:060764001583E038F022CD
:10076A00A3F8E0C5F025F0F0E58215827002158342
:06077A00E0C838F0E8229F
:10078000BB010A89828A83E0F5F0A3E02250068744
:10079000F009E71922BBFE07E3F5F009E319228906
:0B07A000828A83E493F5F07401932239
:1007AB00BB0110E58229F582E5833AF583E0F5F08C
:1007BB00A3E0225009E92582F886F008E622BBFE69
:1007CB000AE92582F8E2F5F008E222E5832AF583AF
:0807DB00E993F5F0A3E9932274
:1007E300BB010DC58229C582C5833AC5830207545F
:1007F3005011C58229F808E5F026F618F5F0E582D0
:1008030036F622BBFE11C58229F808E225F0F5F081
:10081300F218E23582F222F8E58229F582E5832A8D
:0D082300F58374019325F0F5F0E49338227D
:10083000BB010A89828A83F0E5F0A3F0225006F713
:0F08400009A7F01922BBFE06F3E5F009F3192210
:10084F00F8BB0111E58229F582E5833AF583E8F0DB
:10085F00E5F0A3F0225009E92582C8F608A6F02298
:0D086F00BBFE09E92582C8F2E5F008F2227F
:10087C00E88FF0A4CC8BF0A42CFCE98EF0A42CFC1B
:10088C008AF0EDA42CFCEA8EF0A4CDA8F08BF0A499
:10089C002DCC3825F0FDE98FF0A42CCD35F0FCEBF8
:1008AC008EF0A4FEA9F0EB8FF0A4CFC5F02ECD39BD
:0F08BC00FEE43CFCEAA42DCE35F0FDE43CFC222A
:1008CB0075F008758200EF2FFFEE33FECD33CDCCE4
:1008DB0033CCC58233C5829BED9AEC99E582984067
:1008EB000CF582EE9BFEED9AFDEC99FC0FD5F0D644
:1008FB00E4CEFBE4CDFAE4CCF9A88222B800C1B96E
:10090B000059BA002DEC8BF084CFCECDFCE5F0CBAB
:10091B00F97818EF2FFFEE33FEED33FDEC33FCEBE4
:10092B0033FB10D703994004EB99FB0FD8E5E4F99F
:10093B00FA227818EF2FFFEE33FEED33FDEC33FC8C
:10094B00C933C910D7059BE99A4007EC9BFCE99A80
:10095B00F90FD8E0E4C9FAE4CCFB2275F010EF2FC5
:10096B00FFEE33FEED33FDCC33CCC833C810D707C5
:10097B009BEC9AE899400AED9BFDEC9AFCE899F800
:0E098B000FD5F0DAE4CDFBE4CCFAE4C8F92293
:1062B100C2D5E830E70FB2D5E4C39BFBE49AFAE418
:1062C10099F9E498F8EC30E717B2D51262E71209B0
:1062D10007E4C39BFBE49AFAE499F9E498F8800394
:1062E10012090730D50DE4C39FFFE49EFEE49DFD36
:0462F100E49CFC220B
:0E099900C3E49FFFE49EFEE49DFDE49CFC226F
:1009A700EB9FF5F0EA9E42F0E99D42F0EC6480C8C7
:0609B70064809845F02267
:1009BD00EB9FF5F0EA9E42F0E99D42F0E89C45F090
:0109CD002207
:1009CE00E8600FECC313FCED13FDEE13FEEF13FF07
:0309DE00D8F1222B
:1009E100E8600FEFC333FFEE33FEED33FDEC33FC74
:0309F100D8F12218
:1009F400BB010DE58229F582E5833AF583020BF309
:100A04005007E92582F8020BE7BBFE07E92582F8C7
:100A1400020BFFE58229F582E5833AF583020C0B8C
:100A2400BB010DE58229F582E5833AF583020C28A2
:100A34005007E92582F8020C1BBBFE07E92582F862
:100A4400020C34E58229F582E5833AF583020C41F0
:100A54007401FF3395E0FEFDFCA3A3A3E0CF2FF0C8
:100A6400E582158270021583E0CE3EF0E5821582A0
:100A740070021583E0CD3DF0E58215827002158386
:050A8400E0CC3CF02273
:0C0A8900ECF0A3EDF0A3EEF0A3EFF022E0
:100A9500A8828583F0D083D082120AAC120AAC12E8
:100AA5000AAC120AACE473E493A3C583C5F0C5830D
:100AB500C8C582C8F0A3C583C5F0C583C8C582C8AB
:010AC500220E
:100AC600BB010789828A83020A955005E9F8020C60
:0A0AD60051BBFE05E9F8020C6A228C
:0C0AE000A42582F582E5F03583F5832221
:100AEC00F8E0FBA3A3E0F925F0F0E5821582700293
:070AFC001583E0FA38F02237
:090B0300EBF0A3EAF0A3E9F022F3
:100B0C00BB010DE58229F582E5833AF583020C954C
:100B1C005007E92582F8020C83BBFE07E92582F811
:100B2C00020C9EE58229F582E5833AF583020CB02E
:100B3C00BB0120E58229F582E5833AF583D0F0D01C
:100B4C00E0F8D0E0F9D0E0FAD0E0FBE8C0E0C0F08B
:100B5C00020B035018E92582F8D083D082D0E0F93B
:100B6C00D0E0FAD0E0FBC082C083020C8CBBFE1834
:100B7C00E92582F8D083D082D0E0F9D0E0FAD0E039
:090B8C00FBC082C083020CA72209
:100B9500D083D082F8E4937012740193700DA3A3EF
:100BA50093F8740193F5828883E473740293686003
:060BB500EFA3A3A380DF03
:10661600EFC39461400AEF947B5005EF24E0FF221C
:016626002251
:10000E00E4FFFE1206B8600C0FEF70010E09E970E6
:05001E00F20A80EF2250
:100BBB00EF4E6012EF60010EEDBB010B89828A8351
:100BCB00F0A3DFFCDEFA2289F05007F709DFFCA95E
:0C0BDB00F022BBFEFCF309DFFCA9F022B5
:105B8A00026538E493A3F8E493A34003F68001F294
:105B9A0008DFF48029E493A3F85407240CC8C3331C
:105BAA00C4540F4420C8834004F456800146F6DFEB
:105BBA00E4800B01020408102040809064D7E47E40
:105BCA00019360BCA3FF543F30E509541FFEE493E0
:105BDA00A360010ECF54C025E060A840B8E493A3A7
:105BEA00FAE493A3F8E493A3C8C582C8CAC583CAD2
:105BFA00F0A3C8C582C8CAC583CADFE9DEE780BE8A
:016507000093
:0C0BE700E6FC08E6FD08E6FE08E6FF223A
:0C0BF300E0FCA3E0FDA3E0FEA3E0FF2275
:0C0BFF00E2FC08E2FD08E2FE08E2FF2232
:100C0B00E493FC740193FD740293FE740393FF222F
:0D0C1B00E6FB08E6F908E6FA08E6CBF82249
:0C0C2800E0F8A3E0F9A3E0FAA3E0FB224F
:0D0C3400E2FB08E2F908E2FA08E2CBF82240
:100C4100E493F8740193F9740293FA740393FB2209
:100C5100D083D082E493F608740193F6087402936A
:090C6100F608740393F6740473A1
:100C6A00D083D082E493F208740193F20874029359
:090C7A00F208740393F274047390
:090C8300E6FB08E6FA08E6F92296
:090C8C00EBF608EAF608E9F6228D
:090C9500E0FBA3E0FAA3E0F92260
:090C9E00E2FB08E2FA08E2F92287
:090CA700EBF208EAF208E9F2227E
:0C0CB000E493FB740193FA740293F922A0
:00000001FF
